{"contracts/openmartket2.sol":{"NFTMarketplace":{"abi":[{"inputs":[],"stateMutability":"nonpayable","type":"constructor"},{"anonymous":false,"inputs":[{"indexed":true,"internalType":"address","name":"owner","type":"address"},{"indexed":true,"internalType":"address","name":"approved","type":"address"},{"indexed":true,"internalType":"uint256","name":"tokenId","type":"uint256"}],"name":"Approval","type":"event"},{"anonymous":false,"inputs":[{"indexed":true,"internalType":"address","name":"owner","type":"address"},{"indexed":true,"internalType":"address","name":"operator","type":"address"},{"indexed":false,"internalType":"bool","name":"approved","type":"bool"}],"name":"ApprovalForAll","type":"event"},{"anonymous":false,"inputs":[{"indexed":false,"internalType":"uint256","name":"_fromTokenId","type":"uint256"},{"indexed":false,"internalType":"uint256","name":"_toTokenId","type":"uint256"}],"name":"BatchMetadataUpdate","type":"event"},{"anonymous":false,"inputs":[{"indexed":false,"internalType":"uint256","name":"_tokenId","type":"uint256"}],"name":"MetadataUpdate","type":"event"},{"anonymous":false,"inputs":[{"indexed":false,"internalType":"uint256","name":"tokenId","type":"uint256"}],"name":"NewTokenId","type":"event"},{"anonymous":false,"inputs":[{"indexed":true,"internalType":"uint256","name":"tokenId","type":"uint256"},{"indexed":false,"internalType":"address","name":"owner","type":"address"},{"indexed":false,"internalType":"address","name":"seller","type":"address"},{"indexed":false,"internalType":"uint256","name":"price","type":"uint256"},{"indexed":false,"internalType":"bool","name":"currentlyListed","type":"bool"}],"name":"TokenListedSuccess","type":"event"},{"anonymous":false,"inputs":[{"indexed":true,"internalType":"address","name":"from","type":"address"},{"indexed":true,"internalType":"address","name":"to","type":"address"},{"indexed":true,"internalType":"uint256","name":"tokenId","type":"uint256"}],"name":"Transfer","type":"event"},{"inputs":[{"internalType":"address","name":"to","type":"address"},{"internalType":"uint256","name":"tokenId","type":"uint256"}],"name":"approve","outputs":[],"stateMutability":"nonpayable","type":"function"},{"inputs":[{"internalType":"address","name":"owner","type":"address"}],"name":"balanceOf","outputs":[{"internalType":"uint256","name":"","type":"uint256"}],"stateMutability":"view","type":"function"},{"inputs":[{"internalType":"string","name":"tokenURI","type":"string"},{"internalType":"uint256","name":"price","type":"uint256"}],"name":"createToken","outputs":[{"internalType":"uint256","name":"","type":"uint256"}],"stateMutability":"payable","type":"function"},{"inputs":[{"internalType":"uint256","name":"tokenId","type":"uint256"}],"name":"executeSale","outputs":[],"stateMutability":"payable","type":"function"},{"inputs":[],"name":"getAllNFTs","outputs":[{"components":[{"internalType":"uint256","name":"tokenId","type":"uint256"},{"internalType":"address payable","name":"owner","type":"address"},{"internalType":"address payable","name":"seller","type":"address"},{"internalType":"uint256","name":"price","type":"uint256"},{"internalType":"bool","name":"currentlyListed","type":"bool"}],"internalType":"struct NFTMarketplace.ListedToken[]","name":"","type":"tuple[]"}],"stateMutability":"view","type":"function"},{"inputs":[{"internalType":"uint256","name":"tokenId","type":"uint256"}],"name":"getApproved","outputs":[{"internalType":"address","name":"","type":"address"}],"stateMutability":"view","type":"function"},{"inputs":[],"name":"getCurrentToken","outputs":[{"internalType":"uint256","name":"","type":"uint256"}],"stateMutability":"view","type":"function"},{"inputs":[],"name":"getLatestIdToListedToken","outputs":[{"components":[{"internalType":"uint256","name":"tokenId","type":"uint256"},{"internalType":"address payable","name":"owner","type":"address"},{"internalType":"address payable","name":"seller","type":"address"},{"internalType":"uint256","name":"price","type":"uint256"},{"internalType":"bool","name":"currentlyListed","type":"bool"}],"internalType":"struct NFTMarketplace.ListedToken","name":"","type":"tuple"}],"stateMutability":"view","type":"function"},{"inputs":[],"name":"getListPrice","outputs":[{"internalType":"uint256","name":"","type":"uint256"}],"stateMutability":"view","type":"function"},{"inputs":[{"internalType":"uint256","name":"tokenId","type":"uint256"}],"name":"getListedTokenForId","outputs":[{"components":[{"internalType":"uint256","name":"tokenId","type":"uint256"},{"internalType":"address payable","name":"owner","type":"address"},{"internalType":"address payable","name":"seller","type":"address"},{"internalType":"uint256","name":"price","type":"uint256"},{"internalType":"bool","name":"currentlyListed","type":"bool"}],"internalType":"struct NFTMarketplace.ListedToken","name":"","type":"tuple"}],"stateMutability":"view","type":"function"},{"inputs":[{"internalType":"address","name":"owner","type":"address"}],"name":"getMyNFTs","outputs":[{"components":[{"internalType":"uint256","name":"tokenId","type":"uint256"},{"internalType":"address payable","name":"owner","type":"address"},{"internalType":"address payable","name":"seller","type":"address"},{"internalType":"uint256","name":"price","type":"uint256"},{"internalType":"bool","name":"currentlyListed","type":"bool"}],"internalType":"struct NFTMarketplace.ListedToken[]","name":"","type":"tuple[]"}],"stateMutability":"view","type":"function"},{"inputs":[{"internalType":"address","name":"owner","type":"address"},{"internalType":"address","name":"operator","type":"address"}],"name":"isApprovedForAll","outputs":[{"internalType":"bool","name":"","type":"bool"}],"stateMutability":"view","type":"function"},{"inputs":[],"name":"name","outputs":[{"internalType":"string","name":"","type":"string"}],"stateMutability":"view","type":"function"},{"inputs":[{"internalType":"uint256","name":"tokenId","type":"uint256"}],"name":"ownerOf","outputs":[{"internalType":"address","name":"","type":"address"}],"stateMutability":"view","type":"function"},{"inputs":[{"internalType":"address","name":"from","type":"address"},{"internalType":"address","name":"to","type":"address"},{"internalType":"uint256","name":"tokenId","type":"uint256"}],"name":"safeTransferFrom","outputs":[],"stateMutability":"nonpayable","type":"function"},{"inputs":[{"internalType":"address","name":"from","type":"address"},{"internalType":"address","name":"to","type":"address"},{"internalType":"uint256","name":"tokenId","type":"uint256"},{"internalType":"bytes","name":"data","type":"bytes"}],"name":"safeTransferFrom","outputs":[],"stateMutability":"nonpayable","type":"function"},{"inputs":[{"internalType":"address","name":"operator","type":"address"},{"internalType":"bool","name":"approved","type":"bool"}],"name":"setApprovalForAll","outputs":[],"stateMutability":"nonpayable","type":"function"},{"inputs":[{"internalType":"bytes4","name":"interfaceId","type":"bytes4"}],"name":"supportsInterface","outputs":[{"internalType":"bool","name":"","type":"bool"}],"stateMutability":"view","type":"function"},{"inputs":[],"name":"symbol","outputs":[{"internalType":"string","name":"","type":"string"}],"stateMutability":"view","type":"function"},{"inputs":[{"internalType":"uint256","name":"tokenId","type":"uint256"}],"name":"tokenURI","outputs":[{"internalType":"string","name":"","type":"string"}],"stateMutability":"view","type":"function"},{"inputs":[{"internalType":"address","name":"from","type":"address"},{"internalType":"address","name":"to","type":"address"},{"internalType":"uint256","name":"tokenId","type":"uint256"}],"name":"transferFrom","outputs":[],"stateMutability":"nonpayable","type":"function"}],"evm":{"bytecode":{"linkReferences":{},"object":"6080604052655af3107a4000600a553480156200001b57600080fd5b506040518060400160405280600e81526020017f4e46544d61726b6574706c6163650000000000000000000000000000000000008152506040518060400160405280600481526020017f4e46544d000000000000000000000000000000000000000000000000000000008152508160009080519060200190620000a09291906200021a565b508060019080519060200190620000b99291906200021a565b505050620001076040518060400160405280600481526020017f68657265000000000000000000000000000000000000000000000000000000008152506200014e60201b620016571760201c565b33600960006101000a81548173ffffffffffffffffffffffffffffffffffffffff021916908373ffffffffffffffffffffffffffffffffffffffff160217905550620003f7565b620001ee816040516024016200016591906200030b565b6040516020818303038152906040527f41304fac000000000000000000000000000000000000000000000000000000007bffffffffffffffffffffffffffffffffffffffffffffffffffffffff19166020820180517bffffffffffffffffffffffffffffffffffffffffffffffffffffffff8381831617835250505050620001f160201b60201c565b50565b60008151905060006a636f6e736f6c652e6c6f679050602083016000808483855afa5050505050565b828054620002289062000381565b90600052602060002090601f0160209004810192826200024c576000855562000298565b82601f106200026757805160ff191683800117855562000298565b8280016001018555821562000298579182015b82811115620002975782518255916020019190600101906200027a565b5b509050620002a79190620002ab565b5090565b5b80821115620002c6576000816000905550600101620002ac565b5090565b6000620002d7826200032f565b620002e381856200033a565b9350620002f58185602086016200034b565b6200030081620003e6565b840191505092915050565b60006020820190508181036000830152620003278184620002ca565b905092915050565b600081519050919050565b600082825260208201905092915050565b60005b838110156200036b5780820151818401526020810190506200034e565b838111156200037b576000848401525b50505050565b600060028204905060018216806200039a57607f821691505b60208210811415620003b157620003b0620003b7565b5b50919050565b7f4e487b7100000000000000000000000000000000000000000000000000000000600052602260045260246000fd5b6000601f19601f8301169050919050565b613ed680620004076000396000f3fe60806040526004361061012a5760003560e01c80638e264590116100ab578063c87b56dd1161006f578063c87b56dd146103fa578063d1a88ae514610437578063e0391b0914610462578063e921ee6e1461048d578063e985e9c5146104ca578063ef2d1746146105075761012a565b80638e2645901461032457806395d89b41146103615780639b1225c41461038c578063a22cb465146103a8578063b88d4fde146103d15761012a565b806342842e0e116100f257806342842e0e146102265780636352211e1461024f57806368f1945f1461028c57806370a08231146102b757806372b3b620146102f45761012a565b806301ffc9a71461012f57806306fdde031461016c578063081812fc14610197578063095ea7b3146101d457806323b872dd146101fd575b600080fd5b34801561013b57600080fd5b5061015660048036038101906101519190612dbd565b610532565b60405161016391906133e2565b60405180910390f35b34801561017857600080fd5b50610181610593565b60405161018e91906133fd565b60405180910390f35b3480156101a357600080fd5b506101be60048036038101906101b99190612e73565b610625565b6040516101cb9190613314565b60405180910390f35b3480156101e057600080fd5b506101fb60048036038101906101f69190612d7d565b61066b565b005b34801561020957600080fd5b50610224600480360381019061021f9190612c67565b610783565b005b34801561023257600080fd5b5061024d60048036038101906102489190612c67565b6107e3565b005b34801561025b57600080fd5b5061027660048036038101906102719190612e73565b610803565b6040516102839190613314565b60405180910390f35b34801561029857600080fd5b506102a161088a565b6040516102ae919061361a565b60405180910390f35b3480156102c357600080fd5b506102de60048036038101906102d99190612bfa565b610894565b6040516102eb919061361a565b60405180910390f35b61030e60048036038101906103099190612e17565b61094c565b60405161031b919061361a565b60405180910390f35b34801561033057600080fd5b5061034b60048036038101906103469190612e73565b6109d1565b60405161035891906135ff565b60405180910390f35b34801561036d57600080fd5b50610376610ad9565b60405161038391906133fd565b60405180910390f35b6103a660048036038101906103a19190612e73565b610b6b565b005b3480156103b457600080fd5b506103cf60048036038101906103ca9190612d3d565b610d5d565b005b3480156103dd57600080fd5b506103f860048036038101906103f39190612cba565b610d73565b005b34801561040657600080fd5b50610421600480360381019061041c9190612e73565b610dd5565b60405161042e91906133fd565b60405180910390f35b34801561044357600080fd5b5061044c610ee8565b60405161045991906135ff565b60405180910390f35b34801561046e57600080fd5b50610477610ffd565b60405161048491906133c0565b60405180910390f35b34801561049957600080fd5b506104b460048036038101906104af9190612bfa565b6111cf565b6040516104c191906133c0565b60405180910390f35b3480156104d657600080fd5b506104f160048036038101906104ec9190612c27565b6115b2565b6040516104fe91906133e2565b60405180910390f35b34801561051357600080fd5b5061051c611646565b604051610529919061361a565b60405180910390f35b6000634906490660e01b7bffffffffffffffffffffffffffffffffffffffffffffffffffffffff1916827bffffffffffffffffffffffffffffffffffffffffffffffffffffffff1916148061058c575061058b826116f0565b5b9050919050565b6060600080546105a29061387f565b80601f01602080910402602001604051908101604052809291908181526020018280546105ce9061387f565b801561061b5780601f106105f05761010080835404028352916020019161061b565b820191906000526020600020905b8154815290600101906020018083116105fe57829003601f168201915b5050505050905090565b6000610630826117d2565b6004600083815260200190815260200160002060009054906101000a900473ffffffffffffffffffffffffffffffffffffffff169050919050565b600061067682610803565b90508073ffffffffffffffffffffffffffffffffffffffff168373ffffffffffffffffffffffffffffffffffffffff1614156106e7576040517f08c379a00000000000000000000000000000000000000000000000000000000081526004016106de9061359f565b60405180910390fd5b8073ffffffffffffffffffffffffffffffffffffffff1661070661181d565b73ffffffffffffffffffffffffffffffffffffffff16148061073557506107348161072f61181d565b6115b2565b5b610774576040517f08c379a000000000000000000000000000000000000000000000000000000000815260040161076b906135bf565b60405180910390fd5b61077e8383611825565b505050565b61079461078e61181d565b826118de565b6107d3576040517f08c379a00000000000000000000000000000000000000000000000000000000081526004016107ca9061341f565b60405180910390fd5b6107de838383611973565b505050565b6107fe83838360405180602001604052806000815250610d73565b505050565b60008061080f83611c6d565b9050600073ffffffffffffffffffffffffffffffffffffffff168173ffffffffffffffffffffffffffffffffffffffff161415610881576040517f08c379a00000000000000000000000000000000000000000000000000000000081526004016108789061357f565b60405180910390fd5b80915050919050565b6000600a54905090565b60008073ffffffffffffffffffffffffffffffffffffffff168273ffffffffffffffffffffffffffffffffffffffff161415610905576040517f08c379a00000000000000000000000000000000000000000000000000000000081526004016108fc906134df565b60405180910390fd5b600360008373ffffffffffffffffffffffffffffffffffffffff1673ffffffffffffffffffffffffffffffffffffffff168152602001908152602001600020549050919050565b600061095a34600a54611caa565b6109646007611d46565b60006109706007611d5c565b905061097c3382611d6a565b6109868185611d88565b6109908184611e33565b7f8a1767404395cfcd1267c6537e872277dde277a29ac6dea742a111469f324a58816040516109bf919061361a565b60405180910390a18091505092915050565b6109d96129b1565b600b60008381526020019081526020016000206040518060a0016040529081600082015481526020016001820160009054906101000a900473ffffffffffffffffffffffffffffffffffffffff1673ffffffffffffffffffffffffffffffffffffffff1673ffffffffffffffffffffffffffffffffffffffff1681526020016002820160009054906101000a900473ffffffffffffffffffffffffffffffffffffffff1673ffffffffffffffffffffffffffffffffffffffff1673ffffffffffffffffffffffffffffffffffffffff168152602001600382015481526020016004820160009054906101000a900460ff1615151515815250509050919050565b606060018054610ae89061387f565b80601f0160208091040260200160405190810160405280929190818152602001828054610b149061387f565b8015610b615780601f10610b3657610100808354040283529160200191610b61565b820191906000526020600020905b815481529060010190602001808311610b4457829003601f168201915b5050505050905090565b6000600b60008381526020019081526020016000206003015490506000600b600084815260200190815260200160002060020160009054906101000a900473ffffffffffffffffffffffffffffffffffffffff169050813414610c03576040517f08c379a0000000000000000000000000000000000000000000000000000000008152600401610bfa9061351f565b60405180910390fd5b6001600b600085815260200190815260200160002060040160006101000a81548160ff02191690831515021790555033600b600085815260200190815260200160002060020160006101000a81548173ffffffffffffffffffffffffffffffffffffffff021916908373ffffffffffffffffffffffffffffffffffffffff160217905550610c916008611d46565b610c9c303385611973565b610ca6308461066b565b600960009054906101000a900473ffffffffffffffffffffffffffffffffffffffff1673ffffffffffffffffffffffffffffffffffffffff166108fc600a549081150290604051600060405180830381858888f19350505050158015610d10573d6000803e3d6000fd5b508073ffffffffffffffffffffffffffffffffffffffff166108fc349081150290604051600060405180830381858888f19350505050158015610d57573d6000803e3d6000fd5b50505050565b610d6f610d6861181d565b838361202b565b5050565b610d84610d7e61181d565b836118de565b610dc3576040517f08c379a0000000000000000000000000000000000000000000000000000000008152600401610dba9061341f565b60405180910390fd5b610dcf84848484612198565b50505050565b6060610de0826117d2565b6000600660008481526020019081526020016000208054610e009061387f565b80601f0160208091040260200160405190810160405280929190818152602001828054610e2c9061387f565b8015610e795780601f10610e4e57610100808354040283529160200191610e79565b820191906000526020600020905b815481529060010190602001808311610e5c57829003601f168201915b505050505090506000610e8a6121f4565b9050600081511415610ea0578192505050610ee3565b600082511115610ed5578082604051602001610ebd9291906132f0565b60405160208183030381529060405292505050610ee3565b610ede8461220b565b925050505b919050565b610ef06129b1565b6000610efc6007611d5c565b9050600b60008281526020019081526020016000206040518060a0016040529081600082015481526020016001820160009054906101000a900473ffffffffffffffffffffffffffffffffffffffff1673ffffffffffffffffffffffffffffffffffffffff1673ffffffffffffffffffffffffffffffffffffffff1681526020016002820160009054906101000a900473ffffffffffffffffffffffffffffffffffffffff1673ffffffffffffffffffffffffffffffffffffffff1673ffffffffffffffffffffffffffffffffffffffff168152602001600382015481526020016004820160009054906101000a900460ff16151515158152505091505090565b6060600061100b6007611d5c565b905060008167ffffffffffffffff811115611029576110286139e7565b5b60405190808252806020026020018201604052801561106257816020015b61104f6129b1565b8152602001906001900390816110475790505b50905060008080600090505b848110156111c4576001816110839190613761565b91506000600b60008481526020019081526020016000209050806040518060a0016040529081600082015481526020016001820160009054906101000a900473ffffffffffffffffffffffffffffffffffffffff1673ffffffffffffffffffffffffffffffffffffffff1673ffffffffffffffffffffffffffffffffffffffff1681526020016002820160009054906101000a900473ffffffffffffffffffffffffffffffffffffffff1673ffffffffffffffffffffffffffffffffffffffff1673ffffffffffffffffffffffffffffffffffffffff168152602001600382015481526020016004820160009054906101000a900460ff161515151581525050858581518110611196576111956139b8565b5b60200260200101819052506001846111ae9190613761565b93505080806111bc906138e2565b91505061106e565b508294505050505090565b606060006111dd6007611d5c565b9050600080600080600090505b84811015611303578673ffffffffffffffffffffffffffffffffffffffff16600b600060018461121a9190613761565b815260200190815260200160002060010160009054906101000a900473ffffffffffffffffffffffffffffffffffffffff1673ffffffffffffffffffffffffffffffffffffffff1614806112db57508673ffffffffffffffffffffffffffffffffffffffff16600b60006001846112919190613761565b815260200190815260200160002060020160009054906101000a900473ffffffffffffffffffffffffffffffffffffffff1673ffffffffffffffffffffffffffffffffffffffff16145b156112f0576001846112ed9190613761565b93505b80806112fb906138e2565b9150506111ea565b5060008367ffffffffffffffff8111156113205761131f6139e7565b5b60405190808252806020026020018201604052801561135957816020015b6113466129b1565b81526020019060019003908161133e5790505b50905060005b858110156115a4578773ffffffffffffffffffffffffffffffffffffffff16600b600060018461138f9190613761565b815260200190815260200160002060010160009054906101000a900473ffffffffffffffffffffffffffffffffffffffff1673ffffffffffffffffffffffffffffffffffffffff16148061145057508773ffffffffffffffffffffffffffffffffffffffff16600b60006001846114069190613761565b815260200190815260200160002060020160009054906101000a900473ffffffffffffffffffffffffffffffffffffffff1673ffffffffffffffffffffffffffffffffffffffff16145b15611591576001816114629190613761565b92506000600b60008581526020019081526020016000209050806040518060a0016040529081600082015481526020016001820160009054906101000a900473ffffffffffffffffffffffffffffffffffffffff1673ffffffffffffffffffffffffffffffffffffffff1673ffffffffffffffffffffffffffffffffffffffff1681526020016002820160009054906101000a900473ffffffffffffffffffffffffffffffffffffffff1673ffffffffffffffffffffffffffffffffffffffff1673ffffffffffffffffffffffffffffffffffffffff168152602001600382015481526020016004820160009054906101000a900460ff161515151581525050838681518110611575576115746139b8565b5b602002602001018190525060018561158d9190613761565b9450505b808061159c906138e2565b91505061135f565b508095505050505050919050565b6000600560008473ffffffffffffffffffffffffffffffffffffffff1673ffffffffffffffffffffffffffffffffffffffff16815260200190815260200160002060008373ffffffffffffffffffffffffffffffffffffffff1673ffffffffffffffffffffffffffffffffffffffff16815260200190815260200160002060009054906101000a900460ff16905092915050565b60006116526007611d5c565b905090565b6116ed8160405160240161166b91906133fd565b6040516020818303038152906040527f41304fac000000000000000000000000000000000000000000000000000000007bffffffffffffffffffffffffffffffffffffffffffffffffffffffff19166020820180517bffffffffffffffffffffffffffffffffffffffffffffffffffffffff8381831617835250505050612273565b50565b60007f80ac58cd000000000000000000000000000000000000000000000000000000007bffffffffffffffffffffffffffffffffffffffffffffffffffffffff1916827bffffffffffffffffffffffffffffffffffffffffffffffffffffffff191614806117bb57507f5b5e139f000000000000000000000000000000000000000000000000000000007bffffffffffffffffffffffffffffffffffffffffffffffffffffffff1916827bffffffffffffffffffffffffffffffffffffffffffffffffffffffff1916145b806117cb57506117ca8261229c565b5b9050919050565b6117db81612306565b61181a576040517f08c379a00000000000000000000000000000000000000000000000000000000081526004016118119061357f565b60405180910390fd5b50565b600033905090565b816004600083815260200190815260200160002060006101000a81548173ffffffffffffffffffffffffffffffffffffffff021916908373ffffffffffffffffffffffffffffffffffffffff160217905550808273ffffffffffffffffffffffffffffffffffffffff1661189883610803565b73ffffffffffffffffffffffffffffffffffffffff167f8c5be1e5ebec7d5bd14f71427d1e84f3dd0314c0f7b2291e5b200ac8c7c3b92560405160405180910390a45050565b6000806118ea83610803565b90508073ffffffffffffffffffffffffffffffffffffffff168473ffffffffffffffffffffffffffffffffffffffff16148061192c575061192b81856115b2565b5b8061196a57508373ffffffffffffffffffffffffffffffffffffffff1661195284610625565b73ffffffffffffffffffffffffffffffffffffffff16145b91505092915050565b8273ffffffffffffffffffffffffffffffffffffffff1661199382610803565b73ffffffffffffffffffffffffffffffffffffffff16146119e9576040517f08c379a00000000000000000000000000000000000000000000000000000000081526004016119e09061345f565b60405180910390fd5b600073ffffffffffffffffffffffffffffffffffffffff168273ffffffffffffffffffffffffffffffffffffffff161415611a59576040517f08c379a0000000000000000000000000000000000000000000000000000000008152600401611a509061349f565b60405180910390fd5b611a668383836001612347565b8273ffffffffffffffffffffffffffffffffffffffff16611a8682610803565b73ffffffffffffffffffffffffffffffffffffffff1614611adc576040517f08c379a0000000000000000000000000000000000000000000000000000000008152600401611ad39061345f565b60405180910390fd5b6004600082815260200190815260200160002060006101000a81549073ffffffffffffffffffffffffffffffffffffffff02191690556001600360008573ffffffffffffffffffffffffffffffffffffffff1673ffffffffffffffffffffffffffffffffffffffff168152602001908152602001600020600082825403925050819055506001600360008473ffffffffffffffffffffffffffffffffffffffff1673ffffffffffffffffffffffffffffffffffffffff16815260200190815260200160002060008282540192505081905550816002600083815260200190815260200160002060006101000a81548173ffffffffffffffffffffffffffffffffffffffff021916908373ffffffffffffffffffffffffffffffffffffffff160217905550808273ffffffffffffffffffffffffffffffffffffffff168473ffffffffffffffffffffffffffffffffffffffff167fddf252ad1be2c89b69c2b068fc378daa952ba7f163c4a11628f55a4df523b3ef60405160405180910390a4611c68838383600161234d565b505050565b60006002600083815260200190815260200160002060009054906101000a900473ffffffffffffffffffffffffffffffffffffffff169050919050565b611d428282604051602401611cc0929190613635565b6040516020818303038152906040527ff666715a000000000000000000000000000000000000000000000000000000007bffffffffffffffffffffffffffffffffffffffffffffffffffffffff19166020820180517bffffffffffffffffffffffffffffffffffffffffffffffffffffffff8381831617835250505050612273565b5050565b6001816000016000828254019250508190555050565b600081600001549050919050565b611d84828260405180602001604052806000815250612353565b5050565b611d9182612306565b611dd0576040517f08c379a0000000000000000000000000000000000000000000000000000000008152600401611dc7906134ff565b60405180910390fd5b80600660008481526020019081526020016000209080519060200190611df7929190612a0e565b507ff8e1a15aba9398e019f0b49df1a4fde98ee17ae345cb5f6b5e2c27f5033e8ce782604051611e27919061361a565b60405180910390a15050565b600a543414611e77576040517f08c379a0000000000000000000000000000000000000000000000000000000008152600401611e6e9061355f565b60405180910390fd5b60008111611eba576040517f08c379a0000000000000000000000000000000000000000000000000000000008152600401611eb1906135df565b60405180910390fd5b6040518060a001604052808381526020013073ffffffffffffffffffffffffffffffffffffffff1681526020013373ffffffffffffffffffffffffffffffffffffffff16815260200182815260200160011515815250600b60008481526020019081526020016000206000820151816000015560208201518160010160006101000a81548173ffffffffffffffffffffffffffffffffffffffff021916908373ffffffffffffffffffffffffffffffffffffffff16021790555060408201518160020160006101000a81548173ffffffffffffffffffffffffffffffffffffffff021916908373ffffffffffffffffffffffffffffffffffffffff1602179055506060820151816003015560808201518160040160006101000a81548160ff021916908315150217905550905050817f9339409317fd01fabff48b703019016f49159bacc801ae872d2ca637d226e4c0303384600160405161201f949392919061332f565b60405180910390a25050565b8173ffffffffffffffffffffffffffffffffffffffff168373ffffffffffffffffffffffffffffffffffffffff16141561209a576040517f08c379a0000000000000000000000000000000000000000000000000000000008152600401612091906134bf565b60405180910390fd5b80600560008573ffffffffffffffffffffffffffffffffffffffff1673ffffffffffffffffffffffffffffffffffffffff16815260200190815260200160002060008473ffffffffffffffffffffffffffffffffffffffff1673ffffffffffffffffffffffffffffffffffffffff16815260200190815260200160002060006101000a81548160ff0219169083151502179055508173ffffffffffffffffffffffffffffffffffffffff168373ffffffffffffffffffffffffffffffffffffffff167f17307eab39ab6107e8899845ad3d59bd9653f200f220920489ca2b5937696c318360405161218b91906133e2565b60405180910390a3505050565b6121a3848484611973565b6121af848484846123ae565b6121ee576040517f08c379a00000000000000000000000000000000000000000000000000000000081526004016121e59061343f565b60405180910390fd5b50505050565b606060405180602001604052806000815250905090565b6060612216826117d2565b60006122206121f4565b90506000815111612240576040518060200160405280600081525061226b565b8061224a84612545565b60405160200161225b9291906132f0565b6040516020818303038152906040525b915050919050565b60008151905060006a636f6e736f6c652e6c6f679050602083016000808483855afa5050505050565b60007f01ffc9a7000000000000000000000000000000000000000000000000000000007bffffffffffffffffffffffffffffffffffffffffffffffffffffffff1916827bffffffffffffffffffffffffffffffffffffffffffffffffffffffff1916149050919050565b60008073ffffffffffffffffffffffffffffffffffffffff1661232883611c6d565b73ffffffffffffffffffffffffffffffffffffffff1614159050919050565b50505050565b50505050565b61235d838361261d565b61236a60008484846123ae565b6123a9576040517f08c379a00000000000000000000000000000000000000000000000000000000081526004016123a09061343f565b60405180910390fd5b505050565b60006123cf8473ffffffffffffffffffffffffffffffffffffffff1661283b565b15612538578373ffffffffffffffffffffffffffffffffffffffff1663150b7a026123f861181d565b8786866040518563ffffffff1660e01b815260040161241a9493929190613374565b602060405180830381600087803b15801561243457600080fd5b505af192505050801561246557506040513d601f19601f820116820180604052508101906124629190612dea565b60015b6124e8573d8060008114612495576040519150601f19603f3d011682016040523d82523d6000602084013e61249a565b606091505b506000815114156124e0576040517f08c379a00000000000000000000000000000000000000000000000000000000081526004016124d79061343f565b60405180910390fd5b805181602001fd5b63150b7a0260e01b7bffffffffffffffffffffffffffffffffffffffffffffffffffffffff1916817bffffffffffffffffffffffffffffffffffffffffffffffffffffffff19161491505061253d565b600190505b949350505050565b6060600060016125548461285e565b01905060008167ffffffffffffffff811115612573576125726139e7565b5b6040519080825280601f01601f1916602001820160405280156125a55781602001600182028036833780820191505090505b509050600082602001820190505b600115612612578080600190039150507f3031323334353637383961626364656600000000000000000000000000000000600a86061a8153600a85816125fc576125fb61395a565b5b049450600085141561260d57612612565b6125b3565b819350505050919050565b600073ffffffffffffffffffffffffffffffffffffffff168273ffffffffffffffffffffffffffffffffffffffff16141561268d576040517f08c379a00000000000000000000000000000000000000000000000000000000081526004016126849061353f565b60405180910390fd5b61269681612306565b156126d6576040517f08c379a00000000000000000000000000000000000000000000000000000000081526004016126cd9061347f565b60405180910390fd5b6126e4600083836001612347565b6126ed81612306565b1561272d576040517f08c379a00000000000000000000000000000000000000000000000000000000081526004016127249061347f565b60405180910390fd5b6001600360008473ffffffffffffffffffffffffffffffffffffffff1673ffffffffffffffffffffffffffffffffffffffff16815260200190815260200160002060008282540192505081905550816002600083815260200190815260200160002060006101000a81548173ffffffffffffffffffffffffffffffffffffffff021916908373ffffffffffffffffffffffffffffffffffffffff160217905550808273ffffffffffffffffffffffffffffffffffffffff16600073ffffffffffffffffffffffffffffffffffffffff167fddf252ad1be2c89b69c2b068fc378daa952ba7f163c4a11628f55a4df523b3ef60405160405180910390a461283760008383600161234d565b5050565b6000808273ffffffffffffffffffffffffffffffffffffffff163b119050919050565b600080600090507a184f03e93ff9f4daa797ed6e38ed64bf6a1f01000000000000000083106128bc577a184f03e93ff9f4daa797ed6e38ed64bf6a1f01000000000000000083816128b2576128b161395a565b5b0492506040810190505b6d04ee2d6d415b85acef810000000083106128f9576d04ee2d6d415b85acef810000000083816128ef576128ee61395a565b5b0492506020810190505b662386f26fc10000831061292857662386f26fc10000838161291e5761291d61395a565b5b0492506010810190505b6305f5e1008310612951576305f5e10083816129475761294661395a565b5b0492506008810190505b612710831061297657612710838161296c5761296b61395a565b5b0492506004810190505b60648310612999576064838161298f5761298e61395a565b5b0492506002810190505b600a83106129a8576001810190505b80915050919050565b6040518060a0016040528060008152602001600073ffffffffffffffffffffffffffffffffffffffff168152602001600073ffffffffffffffffffffffffffffffffffffffff168152602001600081526020016000151581525090565b828054612a1a9061387f565b90600052602060002090601f016020900481019282612a3c5760008555612a83565b82601f10612a5557805160ff1916838001178555612a83565b82800160010185558215612a83579182015b82811115612a82578251825591602001919060010190612a67565b5b509050612a909190612a94565b5090565b5b80821115612aad576000816000905550600101612a95565b5090565b6000612ac4612abf84613683565b61365e565b905082815260208101848484011115612ae057612adf613a1b565b5b612aeb84828561383d565b509392505050565b6000612b06612b01846136b4565b61365e565b905082815260208101848484011115612b2257612b21613a1b565b5b612b2d84828561383d565b509392505050565b600081359050612b4481613e44565b92915050565b600081359050612b5981613e5b565b92915050565b600081359050612b6e81613e72565b92915050565b600081519050612b8381613e72565b92915050565b600082601f830112612b9e57612b9d613a16565b5b8135612bae848260208601612ab1565b91505092915050565b600082601f830112612bcc57612bcb613a16565b5b8135612bdc848260208601612af3565b91505092915050565b600081359050612bf481613e89565b92915050565b600060208284031215612c1057612c0f613a25565b5b6000612c1e84828501612b35565b91505092915050565b60008060408385031215612c3e57612c3d613a25565b5b6000612c4c85828601612b35565b9250506020612c5d85828601612b35565b9150509250929050565b600080600060608486031215612c8057612c7f613a25565b5b6000612c8e86828701612b35565b9350506020612c9f86828701612b35565b9250506040612cb086828701612be5565b9150509250925092565b60008060008060808587031215612cd457612cd3613a25565b5b6000612ce287828801612b35565b9450506020612cf387828801612b35565b9350506040612d0487828801612be5565b925050606085013567ffffffffffffffff811115612d2557612d24613a20565b5b612d3187828801612b89565b91505092959194509250565b60008060408385031215612d5457612d53613a25565b5b6000612d6285828601612b35565b9250506020612d7385828601612b4a565b9150509250929050565b60008060408385031215612d9457612d93613a25565b5b6000612da285828601612b35565b9250506020612db385828601612be5565b9150509250929050565b600060208284031215612dd357612dd2613a25565b5b6000612de184828501612b5f565b91505092915050565b600060208284031215612e0057612dff613a25565b5b6000612e0e84828501612b74565b91505092915050565b60008060408385031215612e2e57612e2d613a25565b5b600083013567ffffffffffffffff811115612e4c57612e4b613a20565b5b612e5885828601612bb7565b9250506020612e6985828601612be5565b9150509250929050565b600060208284031215612e8957612e88613a25565b5b6000612e9784828501612be5565b91505092915050565b6000612eac8383613202565b60a08301905092915050565b612ec1816137c9565b82525050565b612ed0816137b7565b82525050565b6000612ee1826136f5565b612eeb8185613723565b9350612ef6836136e5565b8060005b83811015612f27578151612f0e8882612ea0565b9750612f1983613716565b925050600181019050612efa565b5085935050505092915050565b612f3d816137db565b82525050565b612f4c816137db565b82525050565b6000612f5d82613700565b612f678185613734565b9350612f7781856020860161384c565b612f8081613a2a565b840191505092915050565b6000612f968261370b565b612fa08185613745565b9350612fb081856020860161384c565b612fb981613a2a565b840191505092915050565b6000612fcf8261370b565b612fd98185613756565b9350612fe981856020860161384c565b80840191505092915050565b6000613002602d83613745565b915061300d82613a3b565b604082019050919050565b6000613025603283613745565b915061303082613a8a565b604082019050919050565b6000613048602583613745565b915061305382613ad9565b604082019050919050565b600061306b601c83613745565b915061307682613b28565b602082019050919050565b600061308e602483613745565b915061309982613b51565b604082019050919050565b60006130b1601983613745565b91506130bc82613ba0565b602082019050919050565b60006130d4602983613745565b91506130df82613bc9565b604082019050919050565b60006130f7602e83613745565b915061310282613c18565b604082019050919050565b600061311a604083613745565b915061312582613c67565b604082019050919050565b600061313d602083613745565b915061314882613cb6565b602082019050919050565b6000613160602383613745565b915061316b82613cdf565b604082019050919050565b6000613183601883613745565b915061318e82613d2e565b602082019050919050565b60006131a6602183613745565b91506131b182613d57565b604082019050919050565b60006131c9603d83613745565b91506131d482613da6565b604082019050919050565b60006131ec602283613745565b91506131f782613df5565b604082019050919050565b60a08201600082015161321860008501826132d2565b50602082015161322b6020850182612eb8565b50604082015161323e6040850182612eb8565b50606082015161325160608501826132d2565b5060808201516132646080850182612f34565b50505050565b60a08201600082015161328060008501826132d2565b5060208201516132936020850182612eb8565b5060408201516132a66040850182612eb8565b5060608201516132b960608501826132d2565b5060808201516132cc6080850182612f34565b50505050565b6132db81613833565b82525050565b6132ea81613833565b82525050565b60006132fc8285612fc4565b91506133088284612fc4565b91508190509392505050565b60006020820190506133296000830184612ec7565b92915050565b60006080820190506133446000830187612ec7565b6133516020830186612ec7565b61335e60408301856132e1565b61336b6060830184612f43565b95945050505050565b60006080820190506133896000830187612ec7565b6133966020830186612ec7565b6133a360408301856132e1565b81810360608301526133b58184612f52565b905095945050505050565b600060208201905081810360008301526133da8184612ed6565b905092915050565b60006020820190506133f76000830184612f43565b92915050565b600060208201905081810360008301526134178184612f8b565b905092915050565b6000602082019050818103600083015261343881612ff5565b9050919050565b6000602082019050818103600083015261345881613018565b9050919050565b600060208201905081810360008301526134788161303b565b9050919050565b600060208201905081810360008301526134988161305e565b9050919050565b600060208201905081810360008301526134b881613081565b9050919050565b600060208201905081810360008301526134d8816130a4565b9050919050565b600060208201905081810360008301526134f8816130c7565b9050919050565b60006020820190508181036000830152613518816130ea565b9050919050565b600060208201905081810360008301526135388161310d565b9050919050565b6000602082019050818103600083015261355881613130565b9050919050565b6000602082019050818103600083015261357881613153565b9050919050565b6000602082019050818103600083015261359881613176565b9050919050565b600060208201905081810360008301526135b881613199565b9050919050565b600060208201905081810360008301526135d8816131bc565b9050919050565b600060208201905081810360008301526135f8816131df565b9050919050565b600060a082019050613614600083018461326a565b92915050565b600060208201905061362f60008301846132e1565b92915050565b600060408201905061364a60008301856132e1565b61365760208301846132e1565b9392505050565b6000613668613679565b905061367482826138b1565b919050565b6000604051905090565b600067ffffffffffffffff82111561369e5761369d6139e7565b5b6136a782613a2a565b9050602081019050919050565b600067ffffffffffffffff8211156136cf576136ce6139e7565b5b6136d882613a2a565b9050602081019050919050565b6000819050602082019050919050565b600081519050919050565b600081519050919050565b600081519050919050565b6000602082019050919050565b600082825260208201905092915050565b600082825260208201905092915050565b600082825260208201905092915050565b600081905092915050565b600061376c82613833565b915061377783613833565b9250827fffffffffffffffffffffffffffffffffffffffffffffffffffffffffffffffff038211156137ac576137ab61392b565b5b828201905092915050565b60006137c282613813565b9050919050565b60006137d482613813565b9050919050565b60008115159050919050565b60007fffffffff0000000000000000000000000000000000000000000000000000000082169050919050565b600073ffffffffffffffffffffffffffffffffffffffff82169050919050565b6000819050919050565b82818337600083830152505050565b60005b8381101561386a57808201518184015260208101905061384f565b83811115613879576000848401525b50505050565b6000600282049050600182168061389757607f821691505b602082108114156138ab576138aa613989565b5b50919050565b6138ba82613a2a565b810181811067ffffffffffffffff821117156138d9576138d86139e7565b5b80604052505050565b60006138ed82613833565b91507fffffffffffffffffffffffffffffffffffffffffffffffffffffffffffffffff8214156139205761391f61392b565b5b600182019050919050565b7f4e487b7100000000000000000000000000000000000000000000000000000000600052601160045260246000fd5b7f4e487b7100000000000000000000000000000000000000000000000000000000600052601260045260246000fd5b7f4e487b7100000000000000000000000000000000000000000000000000000000600052602260045260246000fd5b7f4e487b7100000000000000000000000000000000000000000000000000000000600052603260045260246000fd5b7f4e487b7100000000000000000000000000000000000000000000000000000000600052604160045260246000fd5b600080fd5b600080fd5b600080fd5b600080fd5b6000601f19601f8301169050919050565b7f4552433732313a2063616c6c6572206973206e6f7420746f6b656e206f776e6560008201527f72206f7220617070726f76656400000000000000000000000000000000000000602082015250565b7f4552433732313a207472616e7366657220746f206e6f6e20455243373231526560008201527f63656976657220696d706c656d656e7465720000000000000000000000000000602082015250565b7f4552433732313a207472616e736665722066726f6d20696e636f72726563742060008201527f6f776e6572000000000000000000000000000000000000000000000000000000602082015250565b7f4552433732313a20746f6b656e20616c7265616479206d696e74656400000000600082015250565b7f4552433732313a207472616e7366657220746f20746865207a65726f2061646460008201527f7265737300000000000000000000000000000000000000000000000000000000602082015250565b7f4552433732313a20617070726f766520746f2063616c6c657200000000000000600082015250565b7f4552433732313a2061646472657373207a65726f206973206e6f74206120766160008201527f6c6964206f776e65720000000000000000000000000000000000000000000000602082015250565b7f45524337323155524953746f726167653a2055524920736574206f66206e6f6e60008201527f6578697374656e7420746f6b656e000000000000000000000000000000000000602082015250565b7f506c65617365207375626d6974207468652061736b696e67207072696365206960008201527f6e206f7264657220746f20636f6d706c65746520746865207075726368617365602082015250565b7f4552433732313a206d696e7420746f20746865207a65726f2061646472657373600082015250565b7f486f706566756c6c792073656e64696e672074686520636f727265637420707260008201527f6963650000000000000000000000000000000000000000000000000000000000602082015250565b7f4552433732313a20696e76616c696420746f6b656e2049440000000000000000600082015250565b7f4552433732313a20617070726f76616c20746f2063757272656e74206f776e6560008201527f7200000000000000000000000000000000000000000000000000000000000000602082015250565b7f4552433732313a20617070726f76652063616c6c6572206973206e6f7420746f60008201527f6b656e206f776e6572206f7220617070726f76656420666f7220616c6c000000602082015250565b7f4d616b652073757265207468652070726963652069736e2774206e656761746960008201527f7665000000000000000000000000000000000000000000000000000000000000602082015250565b613e4d816137b7565b8114613e5857600080fd5b50565b613e64816137db565b8114613e6f57600080fd5b50565b613e7b816137e7565b8114613e8657600080fd5b50565b613e9281613833565b8114613e9d57600080fd5b5056fea264697066735822122045b2e1e58dc9f2cd3f5a87bcde57cedefb2e5effb50054e8fdbbc472e9b4053064736f6c63430008070033","opcodes":"PUSH1 0x80 PUSH1 0x40 MSTORE PUSH6 0x5AF3107A4000 PUSH1 0xA SSTORE CALLVALUE DUP1 ISZERO PUSH3 0x1B JUMPI PUSH1 0x0 DUP1 REVERT JUMPDEST POP PUSH1 0x40 MLOAD DUP1 PUSH1 0x40 ADD PUSH1 0x40 MSTORE DUP1 PUSH1 0xE DUP2 MSTORE PUSH1 0x20 ADD PUSH32 0x4E46544D61726B6574706C616365000000000000000000000000000000000000 DUP2 MSTORE POP PUSH1 0x40 MLOAD DUP1 PUSH1 0x40 ADD PUSH1 0x40 MSTORE DUP1 PUSH1 0x4 DUP2 MSTORE PUSH1 0x20 ADD PUSH32 0x4E46544D00000000000000000000000000000000000000000000000000000000 DUP2 MSTORE POP DUP2 PUSH1 0x0 SWAP1 DUP1 MLOAD SWAP1 PUSH1 0x20 ADD SWAP1 PUSH3 0xA0 SWAP3 SWAP2 SWAP1 PUSH3 0x21A JUMP JUMPDEST POP DUP1 PUSH1 0x1 SWAP1 DUP1 MLOAD SWAP1 PUSH1 0x20 ADD SWAP1 PUSH3 0xB9 SWAP3 SWAP2 SWAP1 PUSH3 0x21A JUMP JUMPDEST POP POP POP PUSH3 0x107 PUSH1 0x40 MLOAD DUP1 PUSH1 0x40 ADD PUSH1 0x40 MSTORE DUP1 PUSH1 0x4 DUP2 MSTORE PUSH1 0x20 ADD PUSH32 0x6865726500000000000000000000000000000000000000000000000000000000 DUP2 MSTORE POP PUSH3 0x14E PUSH1 0x20 SHL PUSH3 0x1657 OR PUSH1 0x20 SHR JUMP JUMPDEST CALLER PUSH1 0x9 PUSH1 0x0 PUSH2 0x100 EXP DUP2 SLOAD DUP2 PUSH20 0xFFFFFFFFFFFFFFFFFFFFFFFFFFFFFFFFFFFFFFFF MUL NOT AND SWAP1 DUP4 PUSH20 0xFFFFFFFFFFFFFFFFFFFFFFFFFFFFFFFFFFFFFFFF AND MUL OR SWAP1 SSTORE POP PUSH3 0x3F7 JUMP JUMPDEST PUSH3 0x1EE DUP2 PUSH1 0x40 MLOAD PUSH1 0x24 ADD PUSH3 0x165 SWAP2 SWAP1 PUSH3 0x30B JUMP JUMPDEST PUSH1 0x40 MLOAD PUSH1 0x20 DUP2 DUP4 SUB SUB DUP2 MSTORE SWAP1 PUSH1 0x40 MSTORE PUSH32 0x41304FAC00000000000000000000000000000000000000000000000000000000 PUSH28 0xFFFFFFFFFFFFFFFFFFFFFFFFFFFFFFFFFFFFFFFFFFFFFFFFFFFFFFFF NOT AND PUSH1 0x20 DUP3 ADD DUP1 MLOAD PUSH28 0xFFFFFFFFFFFFFFFFFFFFFFFFFFFFFFFFFFFFFFFFFFFFFFFFFFFFFFFF DUP4 DUP2 DUP4 AND OR DUP4 MSTORE POP POP POP POP PUSH3 0x1F1 PUSH1 0x20 SHL PUSH1 0x20 SHR JUMP JUMPDEST POP JUMP JUMPDEST PUSH1 0x0 DUP2 MLOAD SWAP1 POP PUSH1 0x0 PUSH11 0x636F6E736F6C652E6C6F67 SWAP1 POP PUSH1 0x20 DUP4 ADD PUSH1 0x0 DUP1 DUP5 DUP4 DUP6 GAS STATICCALL POP POP POP POP POP JUMP JUMPDEST DUP3 DUP1 SLOAD PUSH3 0x228 SWAP1 PUSH3 0x381 JUMP JUMPDEST SWAP1 PUSH1 0x0 MSTORE PUSH1 0x20 PUSH1 0x0 KECCAK256 SWAP1 PUSH1 0x1F ADD PUSH1 0x20 SWAP1 DIV DUP2 ADD SWAP3 DUP3 PUSH3 0x24C JUMPI PUSH1 0x0 DUP6 SSTORE PUSH3 0x298 JUMP JUMPDEST DUP3 PUSH1 0x1F LT PUSH3 0x267 JUMPI DUP1 MLOAD PUSH1 0xFF NOT AND DUP4 DUP1 ADD OR DUP6 SSTORE PUSH3 0x298 JUMP JUMPDEST DUP3 DUP1 ADD PUSH1 0x1 ADD DUP6 SSTORE DUP3 ISZERO PUSH3 0x298 JUMPI SWAP2 DUP3 ADD JUMPDEST DUP3 DUP2 GT ISZERO PUSH3 0x297 JUMPI DUP3 MLOAD DUP3 SSTORE SWAP2 PUSH1 0x20 ADD SWAP2 SWAP1 PUSH1 0x1 ADD SWAP1 PUSH3 0x27A JUMP JUMPDEST JUMPDEST POP SWAP1 POP PUSH3 0x2A7 SWAP2 SWAP1 PUSH3 0x2AB JUMP JUMPDEST POP SWAP1 JUMP JUMPDEST JUMPDEST DUP1 DUP3 GT ISZERO PUSH3 0x2C6 JUMPI PUSH1 0x0 DUP2 PUSH1 0x0 SWAP1 SSTORE POP PUSH1 0x1 ADD PUSH3 0x2AC JUMP JUMPDEST POP SWAP1 JUMP JUMPDEST PUSH1 0x0 PUSH3 0x2D7 DUP3 PUSH3 0x32F JUMP JUMPDEST PUSH3 0x2E3 DUP2 DUP6 PUSH3 0x33A JUMP JUMPDEST SWAP4 POP PUSH3 0x2F5 DUP2 DUP6 PUSH1 0x20 DUP7 ADD PUSH3 0x34B JUMP JUMPDEST PUSH3 0x300 DUP2 PUSH3 0x3E6 JUMP JUMPDEST DUP5 ADD SWAP2 POP POP SWAP3 SWAP2 POP POP JUMP JUMPDEST PUSH1 0x0 PUSH1 0x20 DUP3 ADD SWAP1 POP DUP2 DUP2 SUB PUSH1 0x0 DUP4 ADD MSTORE PUSH3 0x327 DUP2 DUP5 PUSH3 0x2CA JUMP JUMPDEST SWAP1 POP SWAP3 SWAP2 POP POP JUMP JUMPDEST PUSH1 0x0 DUP2 MLOAD SWAP1 POP SWAP2 SWAP1 POP JUMP JUMPDEST PUSH1 0x0 DUP3 DUP3 MSTORE PUSH1 0x20 DUP3 ADD SWAP1 POP SWAP3 SWAP2 POP POP JUMP JUMPDEST PUSH1 0x0 JUMPDEST DUP4 DUP2 LT ISZERO PUSH3 0x36B JUMPI DUP1 DUP3 ADD MLOAD DUP2 DUP5 ADD MSTORE PUSH1 0x20 DUP2 ADD SWAP1 POP PUSH3 0x34E JUMP JUMPDEST DUP4 DUP2 GT ISZERO PUSH3 0x37B JUMPI PUSH1 0x0 DUP5 DUP5 ADD MSTORE JUMPDEST POP POP POP POP JUMP JUMPDEST PUSH1 0x0 PUSH1 0x2 DUP3 DIV SWAP1 POP PUSH1 0x1 DUP3 AND DUP1 PUSH3 0x39A JUMPI PUSH1 0x7F DUP3 AND SWAP2 POP JUMPDEST PUSH1 0x20 DUP3 LT DUP2 EQ ISZERO PUSH3 0x3B1 JUMPI PUSH3 0x3B0 PUSH3 0x3B7 JUMP JUMPDEST JUMPDEST POP SWAP2 SWAP1 POP JUMP JUMPDEST PUSH32 0x4E487B7100000000000000000000000000000000000000000000000000000000 PUSH1 0x0 MSTORE PUSH1 0x22 PUSH1 0x4 MSTORE PUSH1 0x24 PUSH1 0x0 REVERT JUMPDEST PUSH1 0x0 PUSH1 0x1F NOT PUSH1 0x1F DUP4 ADD AND SWAP1 POP SWAP2 SWAP1 POP JUMP JUMPDEST PUSH2 0x3ED6 DUP1 PUSH3 0x407 PUSH1 0x0 CODECOPY PUSH1 0x0 RETURN INVALID PUSH1 0x80 PUSH1 0x40 MSTORE PUSH1 0x4 CALLDATASIZE LT PUSH2 0x12A JUMPI PUSH1 0x0 CALLDATALOAD PUSH1 0xE0 SHR DUP1 PUSH4 0x8E264590 GT PUSH2 0xAB JUMPI DUP1 PUSH4 0xC87B56DD GT PUSH2 0x6F JUMPI DUP1 PUSH4 0xC87B56DD EQ PUSH2 0x3FA JUMPI DUP1 PUSH4 0xD1A88AE5 EQ PUSH2 0x437 JUMPI DUP1 PUSH4 0xE0391B09 EQ PUSH2 0x462 JUMPI DUP1 PUSH4 0xE921EE6E EQ PUSH2 0x48D JUMPI DUP1 PUSH4 0xE985E9C5 EQ PUSH2 0x4CA JUMPI DUP1 PUSH4 0xEF2D1746 EQ PUSH2 0x507 JUMPI PUSH2 0x12A JUMP JUMPDEST DUP1 PUSH4 0x8E264590 EQ PUSH2 0x324 JUMPI DUP1 PUSH4 0x95D89B41 EQ PUSH2 0x361 JUMPI DUP1 PUSH4 0x9B1225C4 EQ PUSH2 0x38C JUMPI DUP1 PUSH4 0xA22CB465 EQ PUSH2 0x3A8 JUMPI DUP1 PUSH4 0xB88D4FDE EQ PUSH2 0x3D1 JUMPI PUSH2 0x12A JUMP JUMPDEST DUP1 PUSH4 0x42842E0E GT PUSH2 0xF2 JUMPI DUP1 PUSH4 0x42842E0E EQ PUSH2 0x226 JUMPI DUP1 PUSH4 0x6352211E EQ PUSH2 0x24F JUMPI DUP1 PUSH4 0x68F1945F EQ PUSH2 0x28C JUMPI DUP1 PUSH4 0x70A08231 EQ PUSH2 0x2B7 JUMPI DUP1 PUSH4 0x72B3B620 EQ PUSH2 0x2F4 JUMPI PUSH2 0x12A JUMP JUMPDEST DUP1 PUSH4 0x1FFC9A7 EQ PUSH2 0x12F JUMPI DUP1 PUSH4 0x6FDDE03 EQ PUSH2 0x16C JUMPI DUP1 PUSH4 0x81812FC EQ PUSH2 0x197 JUMPI DUP1 PUSH4 0x95EA7B3 EQ PUSH2 0x1D4 JUMPI DUP1 PUSH4 0x23B872DD EQ PUSH2 0x1FD JUMPI JUMPDEST PUSH1 0x0 DUP1 REVERT JUMPDEST CALLVALUE DUP1 ISZERO PUSH2 0x13B JUMPI PUSH1 0x0 DUP1 REVERT JUMPDEST POP PUSH2 0x156 PUSH1 0x4 DUP1 CALLDATASIZE SUB DUP2 ADD SWAP1 PUSH2 0x151 SWAP2 SWAP1 PUSH2 0x2DBD JUMP JUMPDEST PUSH2 0x532 JUMP JUMPDEST PUSH1 0x40 MLOAD PUSH2 0x163 SWAP2 SWAP1 PUSH2 0x33E2 JUMP JUMPDEST PUSH1 0x40 MLOAD DUP1 SWAP2 SUB SWAP1 RETURN JUMPDEST CALLVALUE DUP1 ISZERO PUSH2 0x178 JUMPI PUSH1 0x0 DUP1 REVERT JUMPDEST POP PUSH2 0x181 PUSH2 0x593 JUMP JUMPDEST PUSH1 0x40 MLOAD PUSH2 0x18E SWAP2 SWAP1 PUSH2 0x33FD JUMP JUMPDEST PUSH1 0x40 MLOAD DUP1 SWAP2 SUB SWAP1 RETURN JUMPDEST CALLVALUE DUP1 ISZERO PUSH2 0x1A3 JUMPI PUSH1 0x0 DUP1 REVERT JUMPDEST POP PUSH2 0x1BE PUSH1 0x4 DUP1 CALLDATASIZE SUB DUP2 ADD SWAP1 PUSH2 0x1B9 SWAP2 SWAP1 PUSH2 0x2E73 JUMP JUMPDEST PUSH2 0x625 JUMP JUMPDEST PUSH1 0x40 MLOAD PUSH2 0x1CB SWAP2 SWAP1 PUSH2 0x3314 JUMP JUMPDEST PUSH1 0x40 MLOAD DUP1 SWAP2 SUB SWAP1 RETURN JUMPDEST CALLVALUE DUP1 ISZERO PUSH2 0x1E0 JUMPI PUSH1 0x0 DUP1 REVERT JUMPDEST POP PUSH2 0x1FB PUSH1 0x4 DUP1 CALLDATASIZE SUB DUP2 ADD SWAP1 PUSH2 0x1F6 SWAP2 SWAP1 PUSH2 0x2D7D JUMP JUMPDEST PUSH2 0x66B JUMP JUMPDEST STOP JUMPDEST CALLVALUE DUP1 ISZERO PUSH2 0x209 JUMPI PUSH1 0x0 DUP1 REVERT JUMPDEST POP PUSH2 0x224 PUSH1 0x4 DUP1 CALLDATASIZE SUB DUP2 ADD SWAP1 PUSH2 0x21F SWAP2 SWAP1 PUSH2 0x2C67 JUMP JUMPDEST PUSH2 0x783 JUMP JUMPDEST STOP JUMPDEST CALLVALUE DUP1 ISZERO PUSH2 0x232 JUMPI PUSH1 0x0 DUP1 REVERT JUMPDEST POP PUSH2 0x24D PUSH1 0x4 DUP1 CALLDATASIZE SUB DUP2 ADD SWAP1 PUSH2 0x248 SWAP2 SWAP1 PUSH2 0x2C67 JUMP JUMPDEST PUSH2 0x7E3 JUMP JUMPDEST STOP JUMPDEST CALLVALUE DUP1 ISZERO PUSH2 0x25B JUMPI PUSH1 0x0 DUP1 REVERT JUMPDEST POP PUSH2 0x276 PUSH1 0x4 DUP1 CALLDATASIZE SUB DUP2 ADD SWAP1 PUSH2 0x271 SWAP2 SWAP1 PUSH2 0x2E73 JUMP JUMPDEST PUSH2 0x803 JUMP JUMPDEST PUSH1 0x40 MLOAD PUSH2 0x283 SWAP2 SWAP1 PUSH2 0x3314 JUMP JUMPDEST PUSH1 0x40 MLOAD DUP1 SWAP2 SUB SWAP1 RETURN JUMPDEST CALLVALUE DUP1 ISZERO PUSH2 0x298 JUMPI PUSH1 0x0 DUP1 REVERT JUMPDEST POP PUSH2 0x2A1 PUSH2 0x88A JUMP JUMPDEST PUSH1 0x40 MLOAD PUSH2 0x2AE SWAP2 SWAP1 PUSH2 0x361A JUMP JUMPDEST PUSH1 0x40 MLOAD DUP1 SWAP2 SUB SWAP1 RETURN JUMPDEST CALLVALUE DUP1 ISZERO PUSH2 0x2C3 JUMPI PUSH1 0x0 DUP1 REVERT JUMPDEST POP PUSH2 0x2DE PUSH1 0x4 DUP1 CALLDATASIZE SUB DUP2 ADD SWAP1 PUSH2 0x2D9 SWAP2 SWAP1 PUSH2 0x2BFA JUMP JUMPDEST PUSH2 0x894 JUMP JUMPDEST PUSH1 0x40 MLOAD PUSH2 0x2EB SWAP2 SWAP1 PUSH2 0x361A JUMP JUMPDEST PUSH1 0x40 MLOAD DUP1 SWAP2 SUB SWAP1 RETURN JUMPDEST PUSH2 0x30E PUSH1 0x4 DUP1 CALLDATASIZE SUB DUP2 ADD SWAP1 PUSH2 0x309 SWAP2 SWAP1 PUSH2 0x2E17 JUMP JUMPDEST PUSH2 0x94C JUMP JUMPDEST PUSH1 0x40 MLOAD PUSH2 0x31B SWAP2 SWAP1 PUSH2 0x361A JUMP JUMPDEST PUSH1 0x40 MLOAD DUP1 SWAP2 SUB SWAP1 RETURN JUMPDEST CALLVALUE DUP1 ISZERO PUSH2 0x330 JUMPI PUSH1 0x0 DUP1 REVERT JUMPDEST POP PUSH2 0x34B PUSH1 0x4 DUP1 CALLDATASIZE SUB DUP2 ADD SWAP1 PUSH2 0x346 SWAP2 SWAP1 PUSH2 0x2E73 JUMP JUMPDEST PUSH2 0x9D1 JUMP JUMPDEST PUSH1 0x40 MLOAD PUSH2 0x358 SWAP2 SWAP1 PUSH2 0x35FF JUMP JUMPDEST PUSH1 0x40 MLOAD DUP1 SWAP2 SUB SWAP1 RETURN JUMPDEST CALLVALUE DUP1 ISZERO PUSH2 0x36D JUMPI PUSH1 0x0 DUP1 REVERT JUMPDEST POP PUSH2 0x376 PUSH2 0xAD9 JUMP JUMPDEST PUSH1 0x40 MLOAD PUSH2 0x383 SWAP2 SWAP1 PUSH2 0x33FD JUMP JUMPDEST PUSH1 0x40 MLOAD DUP1 SWAP2 SUB SWAP1 RETURN JUMPDEST PUSH2 0x3A6 PUSH1 0x4 DUP1 CALLDATASIZE SUB DUP2 ADD SWAP1 PUSH2 0x3A1 SWAP2 SWAP1 PUSH2 0x2E73 JUMP JUMPDEST PUSH2 0xB6B JUMP JUMPDEST STOP JUMPDEST CALLVALUE DUP1 ISZERO PUSH2 0x3B4 JUMPI PUSH1 0x0 DUP1 REVERT JUMPDEST POP PUSH2 0x3CF PUSH1 0x4 DUP1 CALLDATASIZE SUB DUP2 ADD SWAP1 PUSH2 0x3CA SWAP2 SWAP1 PUSH2 0x2D3D JUMP JUMPDEST PUSH2 0xD5D JUMP JUMPDEST STOP JUMPDEST CALLVALUE DUP1 ISZERO PUSH2 0x3DD JUMPI PUSH1 0x0 DUP1 REVERT JUMPDEST POP PUSH2 0x3F8 PUSH1 0x4 DUP1 CALLDATASIZE SUB DUP2 ADD SWAP1 PUSH2 0x3F3 SWAP2 SWAP1 PUSH2 0x2CBA JUMP JUMPDEST PUSH2 0xD73 JUMP JUMPDEST STOP JUMPDEST CALLVALUE DUP1 ISZERO PUSH2 0x406 JUMPI PUSH1 0x0 DUP1 REVERT JUMPDEST POP PUSH2 0x421 PUSH1 0x4 DUP1 CALLDATASIZE SUB DUP2 ADD SWAP1 PUSH2 0x41C SWAP2 SWAP1 PUSH2 0x2E73 JUMP JUMPDEST PUSH2 0xDD5 JUMP JUMPDEST PUSH1 0x40 MLOAD PUSH2 0x42E SWAP2 SWAP1 PUSH2 0x33FD JUMP JUMPDEST PUSH1 0x40 MLOAD DUP1 SWAP2 SUB SWAP1 RETURN JUMPDEST CALLVALUE DUP1 ISZERO PUSH2 0x443 JUMPI PUSH1 0x0 DUP1 REVERT JUMPDEST POP PUSH2 0x44C PUSH2 0xEE8 JUMP JUMPDEST PUSH1 0x40 MLOAD PUSH2 0x459 SWAP2 SWAP1 PUSH2 0x35FF JUMP JUMPDEST PUSH1 0x40 MLOAD DUP1 SWAP2 SUB SWAP1 RETURN JUMPDEST CALLVALUE DUP1 ISZERO PUSH2 0x46E JUMPI PUSH1 0x0 DUP1 REVERT JUMPDEST POP PUSH2 0x477 PUSH2 0xFFD JUMP JUMPDEST PUSH1 0x40 MLOAD PUSH2 0x484 SWAP2 SWAP1 PUSH2 0x33C0 JUMP JUMPDEST PUSH1 0x40 MLOAD DUP1 SWAP2 SUB SWAP1 RETURN JUMPDEST CALLVALUE DUP1 ISZERO PUSH2 0x499 JUMPI PUSH1 0x0 DUP1 REVERT JUMPDEST POP PUSH2 0x4B4 PUSH1 0x4 DUP1 CALLDATASIZE SUB DUP2 ADD SWAP1 PUSH2 0x4AF SWAP2 SWAP1 PUSH2 0x2BFA JUMP JUMPDEST PUSH2 0x11CF JUMP JUMPDEST PUSH1 0x40 MLOAD PUSH2 0x4C1 SWAP2 SWAP1 PUSH2 0x33C0 JUMP JUMPDEST PUSH1 0x40 MLOAD DUP1 SWAP2 SUB SWAP1 RETURN JUMPDEST CALLVALUE DUP1 ISZERO PUSH2 0x4D6 JUMPI PUSH1 0x0 DUP1 REVERT JUMPDEST POP PUSH2 0x4F1 PUSH1 0x4 DUP1 CALLDATASIZE SUB DUP2 ADD SWAP1 PUSH2 0x4EC SWAP2 SWAP1 PUSH2 0x2C27 JUMP JUMPDEST PUSH2 0x15B2 JUMP JUMPDEST PUSH1 0x40 MLOAD PUSH2 0x4FE SWAP2 SWAP1 PUSH2 0x33E2 JUMP JUMPDEST PUSH1 0x40 MLOAD DUP1 SWAP2 SUB SWAP1 RETURN JUMPDEST CALLVALUE DUP1 ISZERO PUSH2 0x513 JUMPI PUSH1 0x0 DUP1 REVERT JUMPDEST POP PUSH2 0x51C PUSH2 0x1646 JUMP JUMPDEST PUSH1 0x40 MLOAD PUSH2 0x529 SWAP2 SWAP1 PUSH2 0x361A JUMP JUMPDEST PUSH1 0x40 MLOAD DUP1 SWAP2 SUB SWAP1 RETURN JUMPDEST PUSH1 0x0 PUSH4 0x49064906 PUSH1 0xE0 SHL PUSH28 0xFFFFFFFFFFFFFFFFFFFFFFFFFFFFFFFFFFFFFFFFFFFFFFFFFFFFFFFF NOT AND DUP3 PUSH28 0xFFFFFFFFFFFFFFFFFFFFFFFFFFFFFFFFFFFFFFFFFFFFFFFFFFFFFFFF NOT AND EQ DUP1 PUSH2 0x58C JUMPI POP PUSH2 0x58B DUP3 PUSH2 0x16F0 JUMP JUMPDEST JUMPDEST SWAP1 POP SWAP2 SWAP1 POP JUMP JUMPDEST PUSH1 0x60 PUSH1 0x0 DUP1 SLOAD PUSH2 0x5A2 SWAP1 PUSH2 0x387F JUMP JUMPDEST DUP1 PUSH1 0x1F ADD PUSH1 0x20 DUP1 SWAP2 DIV MUL PUSH1 0x20 ADD PUSH1 0x40 MLOAD SWAP1 DUP2 ADD PUSH1 0x40 MSTORE DUP1 SWAP3 SWAP2 SWAP1 DUP2 DUP2 MSTORE PUSH1 0x20 ADD DUP3 DUP1 SLOAD PUSH2 0x5CE SWAP1 PUSH2 0x387F JUMP JUMPDEST DUP1 ISZERO PUSH2 0x61B JUMPI DUP1 PUSH1 0x1F LT PUSH2 0x5F0 JUMPI PUSH2 0x100 DUP1 DUP4 SLOAD DIV MUL DUP4 MSTORE SWAP2 PUSH1 0x20 ADD SWAP2 PUSH2 0x61B JUMP JUMPDEST DUP3 ADD SWAP2 SWAP1 PUSH1 0x0 MSTORE PUSH1 0x20 PUSH1 0x0 KECCAK256 SWAP1 JUMPDEST DUP2 SLOAD DUP2 MSTORE SWAP1 PUSH1 0x1 ADD SWAP1 PUSH1 0x20 ADD DUP1 DUP4 GT PUSH2 0x5FE JUMPI DUP3 SWAP1 SUB PUSH1 0x1F AND DUP3 ADD SWAP2 JUMPDEST POP POP POP POP POP SWAP1 POP SWAP1 JUMP JUMPDEST PUSH1 0x0 PUSH2 0x630 DUP3 PUSH2 0x17D2 JUMP JUMPDEST PUSH1 0x4 PUSH1 0x0 DUP4 DUP2 MSTORE PUSH1 0x20 ADD SWAP1 DUP2 MSTORE PUSH1 0x20 ADD PUSH1 0x0 KECCAK256 PUSH1 0x0 SWAP1 SLOAD SWAP1 PUSH2 0x100 EXP SWAP1 DIV PUSH20 0xFFFFFFFFFFFFFFFFFFFFFFFFFFFFFFFFFFFFFFFF AND SWAP1 POP SWAP2 SWAP1 POP JUMP JUMPDEST PUSH1 0x0 PUSH2 0x676 DUP3 PUSH2 0x803 JUMP JUMPDEST SWAP1 POP DUP1 PUSH20 0xFFFFFFFFFFFFFFFFFFFFFFFFFFFFFFFFFFFFFFFF AND DUP4 PUSH20 0xFFFFFFFFFFFFFFFFFFFFFFFFFFFFFFFFFFFFFFFF AND EQ ISZERO PUSH2 0x6E7 JUMPI PUSH1 0x40 MLOAD PUSH32 0x8C379A000000000000000000000000000000000000000000000000000000000 DUP2 MSTORE PUSH1 0x4 ADD PUSH2 0x6DE SWAP1 PUSH2 0x359F JUMP JUMPDEST PUSH1 0x40 MLOAD DUP1 SWAP2 SUB SWAP1 REVERT JUMPDEST DUP1 PUSH20 0xFFFFFFFFFFFFFFFFFFFFFFFFFFFFFFFFFFFFFFFF AND PUSH2 0x706 PUSH2 0x181D JUMP JUMPDEST PUSH20 0xFFFFFFFFFFFFFFFFFFFFFFFFFFFFFFFFFFFFFFFF AND EQ DUP1 PUSH2 0x735 JUMPI POP PUSH2 0x734 DUP2 PUSH2 0x72F PUSH2 0x181D JUMP JUMPDEST PUSH2 0x15B2 JUMP JUMPDEST JUMPDEST PUSH2 0x774 JUMPI PUSH1 0x40 MLOAD PUSH32 0x8C379A000000000000000000000000000000000000000000000000000000000 DUP2 MSTORE PUSH1 0x4 ADD PUSH2 0x76B SWAP1 PUSH2 0x35BF JUMP JUMPDEST PUSH1 0x40 MLOAD DUP1 SWAP2 SUB SWAP1 REVERT JUMPDEST PUSH2 0x77E DUP4 DUP4 PUSH2 0x1825 JUMP JUMPDEST POP POP POP JUMP JUMPDEST PUSH2 0x794 PUSH2 0x78E PUSH2 0x181D JUMP JUMPDEST DUP3 PUSH2 0x18DE JUMP JUMPDEST PUSH2 0x7D3 JUMPI PUSH1 0x40 MLOAD PUSH32 0x8C379A000000000000000000000000000000000000000000000000000000000 DUP2 MSTORE PUSH1 0x4 ADD PUSH2 0x7CA SWAP1 PUSH2 0x341F JUMP JUMPDEST PUSH1 0x40 MLOAD DUP1 SWAP2 SUB SWAP1 REVERT JUMPDEST PUSH2 0x7DE DUP4 DUP4 DUP4 PUSH2 0x1973 JUMP JUMPDEST POP POP POP JUMP JUMPDEST PUSH2 0x7FE DUP4 DUP4 DUP4 PUSH1 0x40 MLOAD DUP1 PUSH1 0x20 ADD PUSH1 0x40 MSTORE DUP1 PUSH1 0x0 DUP2 MSTORE POP PUSH2 0xD73 JUMP JUMPDEST POP POP POP JUMP JUMPDEST PUSH1 0x0 DUP1 PUSH2 0x80F DUP4 PUSH2 0x1C6D JUMP JUMPDEST SWAP1 POP PUSH1 0x0 PUSH20 0xFFFFFFFFFFFFFFFFFFFFFFFFFFFFFFFFFFFFFFFF AND DUP2 PUSH20 0xFFFFFFFFFFFFFFFFFFFFFFFFFFFFFFFFFFFFFFFF AND EQ ISZERO PUSH2 0x881 JUMPI PUSH1 0x40 MLOAD PUSH32 0x8C379A000000000000000000000000000000000000000000000000000000000 DUP2 MSTORE PUSH1 0x4 ADD PUSH2 0x878 SWAP1 PUSH2 0x357F JUMP JUMPDEST PUSH1 0x40 MLOAD DUP1 SWAP2 SUB SWAP1 REVERT JUMPDEST DUP1 SWAP2 POP POP SWAP2 SWAP1 POP JUMP JUMPDEST PUSH1 0x0 PUSH1 0xA SLOAD SWAP1 POP SWAP1 JUMP JUMPDEST PUSH1 0x0 DUP1 PUSH20 0xFFFFFFFFFFFFFFFFFFFFFFFFFFFFFFFFFFFFFFFF AND DUP3 PUSH20 0xFFFFFFFFFFFFFFFFFFFFFFFFFFFFFFFFFFFFFFFF AND EQ ISZERO PUSH2 0x905 JUMPI PUSH1 0x40 MLOAD PUSH32 0x8C379A000000000000000000000000000000000000000000000000000000000 DUP2 MSTORE PUSH1 0x4 ADD PUSH2 0x8FC SWAP1 PUSH2 0x34DF JUMP JUMPDEST PUSH1 0x40 MLOAD DUP1 SWAP2 SUB SWAP1 REVERT JUMPDEST PUSH1 0x3 PUSH1 0x0 DUP4 PUSH20 0xFFFFFFFFFFFFFFFFFFFFFFFFFFFFFFFFFFFFFFFF AND PUSH20 0xFFFFFFFFFFFFFFFFFFFFFFFFFFFFFFFFFFFFFFFF AND DUP2 MSTORE PUSH1 0x20 ADD SWAP1 DUP2 MSTORE PUSH1 0x20 ADD PUSH1 0x0 KECCAK256 SLOAD SWAP1 POP SWAP2 SWAP1 POP JUMP JUMPDEST PUSH1 0x0 PUSH2 0x95A CALLVALUE PUSH1 0xA SLOAD PUSH2 0x1CAA JUMP JUMPDEST PUSH2 0x964 PUSH1 0x7 PUSH2 0x1D46 JUMP JUMPDEST PUSH1 0x0 PUSH2 0x970 PUSH1 0x7 PUSH2 0x1D5C JUMP JUMPDEST SWAP1 POP PUSH2 0x97C CALLER DUP3 PUSH2 0x1D6A JUMP JUMPDEST PUSH2 0x986 DUP2 DUP6 PUSH2 0x1D88 JUMP JUMPDEST PUSH2 0x990 DUP2 DUP5 PUSH2 0x1E33 JUMP JUMPDEST PUSH32 0x8A1767404395CFCD1267C6537E872277DDE277A29AC6DEA742A111469F324A58 DUP2 PUSH1 0x40 MLOAD PUSH2 0x9BF SWAP2 SWAP1 PUSH2 0x361A JUMP JUMPDEST PUSH1 0x40 MLOAD DUP1 SWAP2 SUB SWAP1 LOG1 DUP1 SWAP2 POP POP SWAP3 SWAP2 POP POP JUMP JUMPDEST PUSH2 0x9D9 PUSH2 0x29B1 JUMP JUMPDEST PUSH1 0xB PUSH1 0x0 DUP4 DUP2 MSTORE PUSH1 0x20 ADD SWAP1 DUP2 MSTORE PUSH1 0x20 ADD PUSH1 0x0 KECCAK256 PUSH1 0x40 MLOAD DUP1 PUSH1 0xA0 ADD PUSH1 0x40 MSTORE SWAP1 DUP2 PUSH1 0x0 DUP3 ADD SLOAD DUP2 MSTORE PUSH1 0x20 ADD PUSH1 0x1 DUP3 ADD PUSH1 0x0 SWAP1 SLOAD SWAP1 PUSH2 0x100 EXP SWAP1 DIV PUSH20 0xFFFFFFFFFFFFFFFFFFFFFFFFFFFFFFFFFFFFFFFF AND PUSH20 0xFFFFFFFFFFFFFFFFFFFFFFFFFFFFFFFFFFFFFFFF AND PUSH20 0xFFFFFFFFFFFFFFFFFFFFFFFFFFFFFFFFFFFFFFFF AND DUP2 MSTORE PUSH1 0x20 ADD PUSH1 0x2 DUP3 ADD PUSH1 0x0 SWAP1 SLOAD SWAP1 PUSH2 0x100 EXP SWAP1 DIV PUSH20 0xFFFFFFFFFFFFFFFFFFFFFFFFFFFFFFFFFFFFFFFF AND PUSH20 0xFFFFFFFFFFFFFFFFFFFFFFFFFFFFFFFFFFFFFFFF AND PUSH20 0xFFFFFFFFFFFFFFFFFFFFFFFFFFFFFFFFFFFFFFFF AND DUP2 MSTORE PUSH1 0x20 ADD PUSH1 0x3 DUP3 ADD SLOAD DUP2 MSTORE PUSH1 0x20 ADD PUSH1 0x4 DUP3 ADD PUSH1 0x0 SWAP1 SLOAD SWAP1 PUSH2 0x100 EXP SWAP1 DIV PUSH1 0xFF AND ISZERO ISZERO ISZERO ISZERO DUP2 MSTORE POP POP SWAP1 POP SWAP2 SWAP1 POP JUMP JUMPDEST PUSH1 0x60 PUSH1 0x1 DUP1 SLOAD PUSH2 0xAE8 SWAP1 PUSH2 0x387F JUMP JUMPDEST DUP1 PUSH1 0x1F ADD PUSH1 0x20 DUP1 SWAP2 DIV MUL PUSH1 0x20 ADD PUSH1 0x40 MLOAD SWAP1 DUP2 ADD PUSH1 0x40 MSTORE DUP1 SWAP3 SWAP2 SWAP1 DUP2 DUP2 MSTORE PUSH1 0x20 ADD DUP3 DUP1 SLOAD PUSH2 0xB14 SWAP1 PUSH2 0x387F JUMP JUMPDEST DUP1 ISZERO PUSH2 0xB61 JUMPI DUP1 PUSH1 0x1F LT PUSH2 0xB36 JUMPI PUSH2 0x100 DUP1 DUP4 SLOAD DIV MUL DUP4 MSTORE SWAP2 PUSH1 0x20 ADD SWAP2 PUSH2 0xB61 JUMP JUMPDEST DUP3 ADD SWAP2 SWAP1 PUSH1 0x0 MSTORE PUSH1 0x20 PUSH1 0x0 KECCAK256 SWAP1 JUMPDEST DUP2 SLOAD DUP2 MSTORE SWAP1 PUSH1 0x1 ADD SWAP1 PUSH1 0x20 ADD DUP1 DUP4 GT PUSH2 0xB44 JUMPI DUP3 SWAP1 SUB PUSH1 0x1F AND DUP3 ADD SWAP2 JUMPDEST POP POP POP POP POP SWAP1 POP SWAP1 JUMP JUMPDEST PUSH1 0x0 PUSH1 0xB PUSH1 0x0 DUP4 DUP2 MSTORE PUSH1 0x20 ADD SWAP1 DUP2 MSTORE PUSH1 0x20 ADD PUSH1 0x0 KECCAK256 PUSH1 0x3 ADD SLOAD SWAP1 POP PUSH1 0x0 PUSH1 0xB PUSH1 0x0 DUP5 DUP2 MSTORE PUSH1 0x20 ADD SWAP1 DUP2 MSTORE PUSH1 0x20 ADD PUSH1 0x0 KECCAK256 PUSH1 0x2 ADD PUSH1 0x0 SWAP1 SLOAD SWAP1 PUSH2 0x100 EXP SWAP1 DIV PUSH20 0xFFFFFFFFFFFFFFFFFFFFFFFFFFFFFFFFFFFFFFFF AND SWAP1 POP DUP2 CALLVALUE EQ PUSH2 0xC03 JUMPI PUSH1 0x40 MLOAD PUSH32 0x8C379A000000000000000000000000000000000000000000000000000000000 DUP2 MSTORE PUSH1 0x4 ADD PUSH2 0xBFA SWAP1 PUSH2 0x351F JUMP JUMPDEST PUSH1 0x40 MLOAD DUP1 SWAP2 SUB SWAP1 REVERT JUMPDEST PUSH1 0x1 PUSH1 0xB PUSH1 0x0 DUP6 DUP2 MSTORE PUSH1 0x20 ADD SWAP1 DUP2 MSTORE PUSH1 0x20 ADD PUSH1 0x0 KECCAK256 PUSH1 0x4 ADD PUSH1 0x0 PUSH2 0x100 EXP DUP2 SLOAD DUP2 PUSH1 0xFF MUL NOT AND SWAP1 DUP4 ISZERO ISZERO MUL OR SWAP1 SSTORE POP CALLER PUSH1 0xB PUSH1 0x0 DUP6 DUP2 MSTORE PUSH1 0x20 ADD SWAP1 DUP2 MSTORE PUSH1 0x20 ADD PUSH1 0x0 KECCAK256 PUSH1 0x2 ADD PUSH1 0x0 PUSH2 0x100 EXP DUP2 SLOAD DUP2 PUSH20 0xFFFFFFFFFFFFFFFFFFFFFFFFFFFFFFFFFFFFFFFF MUL NOT AND SWAP1 DUP4 PUSH20 0xFFFFFFFFFFFFFFFFFFFFFFFFFFFFFFFFFFFFFFFF AND MUL OR SWAP1 SSTORE POP PUSH2 0xC91 PUSH1 0x8 PUSH2 0x1D46 JUMP JUMPDEST PUSH2 0xC9C ADDRESS CALLER DUP6 PUSH2 0x1973 JUMP JUMPDEST PUSH2 0xCA6 ADDRESS DUP5 PUSH2 0x66B JUMP JUMPDEST PUSH1 0x9 PUSH1 0x0 SWAP1 SLOAD SWAP1 PUSH2 0x100 EXP SWAP1 DIV PUSH20 0xFFFFFFFFFFFFFFFFFFFFFFFFFFFFFFFFFFFFFFFF AND PUSH20 0xFFFFFFFFFFFFFFFFFFFFFFFFFFFFFFFFFFFFFFFF AND PUSH2 0x8FC PUSH1 0xA SLOAD SWAP1 DUP2 ISZERO MUL SWAP1 PUSH1 0x40 MLOAD PUSH1 0x0 PUSH1 0x40 MLOAD DUP1 DUP4 SUB DUP2 DUP6 DUP9 DUP9 CALL SWAP4 POP POP POP POP ISZERO DUP1 ISZERO PUSH2 0xD10 JUMPI RETURNDATASIZE PUSH1 0x0 DUP1 RETURNDATACOPY RETURNDATASIZE PUSH1 0x0 REVERT JUMPDEST POP DUP1 PUSH20 0xFFFFFFFFFFFFFFFFFFFFFFFFFFFFFFFFFFFFFFFF AND PUSH2 0x8FC CALLVALUE SWAP1 DUP2 ISZERO MUL SWAP1 PUSH1 0x40 MLOAD PUSH1 0x0 PUSH1 0x40 MLOAD DUP1 DUP4 SUB DUP2 DUP6 DUP9 DUP9 CALL SWAP4 POP POP POP POP ISZERO DUP1 ISZERO PUSH2 0xD57 JUMPI RETURNDATASIZE PUSH1 0x0 DUP1 RETURNDATACOPY RETURNDATASIZE PUSH1 0x0 REVERT JUMPDEST POP POP POP POP JUMP JUMPDEST PUSH2 0xD6F PUSH2 0xD68 PUSH2 0x181D JUMP JUMPDEST DUP4 DUP4 PUSH2 0x202B JUMP JUMPDEST POP POP JUMP JUMPDEST PUSH2 0xD84 PUSH2 0xD7E PUSH2 0x181D JUMP JUMPDEST DUP4 PUSH2 0x18DE JUMP JUMPDEST PUSH2 0xDC3 JUMPI PUSH1 0x40 MLOAD PUSH32 0x8C379A000000000000000000000000000000000000000000000000000000000 DUP2 MSTORE PUSH1 0x4 ADD PUSH2 0xDBA SWAP1 PUSH2 0x341F JUMP JUMPDEST PUSH1 0x40 MLOAD DUP1 SWAP2 SUB SWAP1 REVERT JUMPDEST PUSH2 0xDCF DUP5 DUP5 DUP5 DUP5 PUSH2 0x2198 JUMP JUMPDEST POP POP POP POP JUMP JUMPDEST PUSH1 0x60 PUSH2 0xDE0 DUP3 PUSH2 0x17D2 JUMP JUMPDEST PUSH1 0x0 PUSH1 0x6 PUSH1 0x0 DUP5 DUP2 MSTORE PUSH1 0x20 ADD SWAP1 DUP2 MSTORE PUSH1 0x20 ADD PUSH1 0x0 KECCAK256 DUP1 SLOAD PUSH2 0xE00 SWAP1 PUSH2 0x387F JUMP JUMPDEST DUP1 PUSH1 0x1F ADD PUSH1 0x20 DUP1 SWAP2 DIV MUL PUSH1 0x20 ADD PUSH1 0x40 MLOAD SWAP1 DUP2 ADD PUSH1 0x40 MSTORE DUP1 SWAP3 SWAP2 SWAP1 DUP2 DUP2 MSTORE PUSH1 0x20 ADD DUP3 DUP1 SLOAD PUSH2 0xE2C SWAP1 PUSH2 0x387F JUMP JUMPDEST DUP1 ISZERO PUSH2 0xE79 JUMPI DUP1 PUSH1 0x1F LT PUSH2 0xE4E JUMPI PUSH2 0x100 DUP1 DUP4 SLOAD DIV MUL DUP4 MSTORE SWAP2 PUSH1 0x20 ADD SWAP2 PUSH2 0xE79 JUMP JUMPDEST DUP3 ADD SWAP2 SWAP1 PUSH1 0x0 MSTORE PUSH1 0x20 PUSH1 0x0 KECCAK256 SWAP1 JUMPDEST DUP2 SLOAD DUP2 MSTORE SWAP1 PUSH1 0x1 ADD SWAP1 PUSH1 0x20 ADD DUP1 DUP4 GT PUSH2 0xE5C JUMPI DUP3 SWAP1 SUB PUSH1 0x1F AND DUP3 ADD SWAP2 JUMPDEST POP POP POP POP POP SWAP1 POP PUSH1 0x0 PUSH2 0xE8A PUSH2 0x21F4 JUMP JUMPDEST SWAP1 POP PUSH1 0x0 DUP2 MLOAD EQ ISZERO PUSH2 0xEA0 JUMPI DUP2 SWAP3 POP POP POP PUSH2 0xEE3 JUMP JUMPDEST PUSH1 0x0 DUP3 MLOAD GT ISZERO PUSH2 0xED5 JUMPI DUP1 DUP3 PUSH1 0x40 MLOAD PUSH1 0x20 ADD PUSH2 0xEBD SWAP3 SWAP2 SWAP1 PUSH2 0x32F0 JUMP JUMPDEST PUSH1 0x40 MLOAD PUSH1 0x20 DUP2 DUP4 SUB SUB DUP2 MSTORE SWAP1 PUSH1 0x40 MSTORE SWAP3 POP POP POP PUSH2 0xEE3 JUMP JUMPDEST PUSH2 0xEDE DUP5 PUSH2 0x220B JUMP JUMPDEST SWAP3 POP POP POP JUMPDEST SWAP2 SWAP1 POP JUMP JUMPDEST PUSH2 0xEF0 PUSH2 0x29B1 JUMP JUMPDEST PUSH1 0x0 PUSH2 0xEFC PUSH1 0x7 PUSH2 0x1D5C JUMP JUMPDEST SWAP1 POP PUSH1 0xB PUSH1 0x0 DUP3 DUP2 MSTORE PUSH1 0x20 ADD SWAP1 DUP2 MSTORE PUSH1 0x20 ADD PUSH1 0x0 KECCAK256 PUSH1 0x40 MLOAD DUP1 PUSH1 0xA0 ADD PUSH1 0x40 MSTORE SWAP1 DUP2 PUSH1 0x0 DUP3 ADD SLOAD DUP2 MSTORE PUSH1 0x20 ADD PUSH1 0x1 DUP3 ADD PUSH1 0x0 SWAP1 SLOAD SWAP1 PUSH2 0x100 EXP SWAP1 DIV PUSH20 0xFFFFFFFFFFFFFFFFFFFFFFFFFFFFFFFFFFFFFFFF AND PUSH20 0xFFFFFFFFFFFFFFFFFFFFFFFFFFFFFFFFFFFFFFFF AND PUSH20 0xFFFFFFFFFFFFFFFFFFFFFFFFFFFFFFFFFFFFFFFF AND DUP2 MSTORE PUSH1 0x20 ADD PUSH1 0x2 DUP3 ADD PUSH1 0x0 SWAP1 SLOAD SWAP1 PUSH2 0x100 EXP SWAP1 DIV PUSH20 0xFFFFFFFFFFFFFFFFFFFFFFFFFFFFFFFFFFFFFFFF AND PUSH20 0xFFFFFFFFFFFFFFFFFFFFFFFFFFFFFFFFFFFFFFFF AND PUSH20 0xFFFFFFFFFFFFFFFFFFFFFFFFFFFFFFFFFFFFFFFF AND DUP2 MSTORE PUSH1 0x20 ADD PUSH1 0x3 DUP3 ADD SLOAD DUP2 MSTORE PUSH1 0x20 ADD PUSH1 0x4 DUP3 ADD PUSH1 0x0 SWAP1 SLOAD SWAP1 PUSH2 0x100 EXP SWAP1 DIV PUSH1 0xFF AND ISZERO ISZERO ISZERO ISZERO DUP2 MSTORE POP POP SWAP2 POP POP SWAP1 JUMP JUMPDEST PUSH1 0x60 PUSH1 0x0 PUSH2 0x100B PUSH1 0x7 PUSH2 0x1D5C JUMP JUMPDEST SWAP1 POP PUSH1 0x0 DUP2 PUSH8 0xFFFFFFFFFFFFFFFF DUP2 GT ISZERO PUSH2 0x1029 JUMPI PUSH2 0x1028 PUSH2 0x39E7 JUMP JUMPDEST JUMPDEST PUSH1 0x40 MLOAD SWAP1 DUP1 DUP3 MSTORE DUP1 PUSH1 0x20 MUL PUSH1 0x20 ADD DUP3 ADD PUSH1 0x40 MSTORE DUP1 ISZERO PUSH2 0x1062 JUMPI DUP2 PUSH1 0x20 ADD JUMPDEST PUSH2 0x104F PUSH2 0x29B1 JUMP JUMPDEST DUP2 MSTORE PUSH1 0x20 ADD SWAP1 PUSH1 0x1 SWAP1 SUB SWAP1 DUP2 PUSH2 0x1047 JUMPI SWAP1 POP JUMPDEST POP SWAP1 POP PUSH1 0x0 DUP1 DUP1 PUSH1 0x0 SWAP1 POP JUMPDEST DUP5 DUP2 LT ISZERO PUSH2 0x11C4 JUMPI PUSH1 0x1 DUP2 PUSH2 0x1083 SWAP2 SWAP1 PUSH2 0x3761 JUMP JUMPDEST SWAP2 POP PUSH1 0x0 PUSH1 0xB PUSH1 0x0 DUP5 DUP2 MSTORE PUSH1 0x20 ADD SWAP1 DUP2 MSTORE PUSH1 0x20 ADD PUSH1 0x0 KECCAK256 SWAP1 POP DUP1 PUSH1 0x40 MLOAD DUP1 PUSH1 0xA0 ADD PUSH1 0x40 MSTORE SWAP1 DUP2 PUSH1 0x0 DUP3 ADD SLOAD DUP2 MSTORE PUSH1 0x20 ADD PUSH1 0x1 DUP3 ADD PUSH1 0x0 SWAP1 SLOAD SWAP1 PUSH2 0x100 EXP SWAP1 DIV PUSH20 0xFFFFFFFFFFFFFFFFFFFFFFFFFFFFFFFFFFFFFFFF AND PUSH20 0xFFFFFFFFFFFFFFFFFFFFFFFFFFFFFFFFFFFFFFFF AND PUSH20 0xFFFFFFFFFFFFFFFFFFFFFFFFFFFFFFFFFFFFFFFF AND DUP2 MSTORE PUSH1 0x20 ADD PUSH1 0x2 DUP3 ADD PUSH1 0x0 SWAP1 SLOAD SWAP1 PUSH2 0x100 EXP SWAP1 DIV PUSH20 0xFFFFFFFFFFFFFFFFFFFFFFFFFFFFFFFFFFFFFFFF AND PUSH20 0xFFFFFFFFFFFFFFFFFFFFFFFFFFFFFFFFFFFFFFFF AND PUSH20 0xFFFFFFFFFFFFFFFFFFFFFFFFFFFFFFFFFFFFFFFF AND DUP2 MSTORE PUSH1 0x20 ADD PUSH1 0x3 DUP3 ADD SLOAD DUP2 MSTORE PUSH1 0x20 ADD PUSH1 0x4 DUP3 ADD PUSH1 0x0 SWAP1 SLOAD SWAP1 PUSH2 0x100 EXP SWAP1 DIV PUSH1 0xFF AND ISZERO ISZERO ISZERO ISZERO DUP2 MSTORE POP POP DUP6 DUP6 DUP2 MLOAD DUP2 LT PUSH2 0x1196 JUMPI PUSH2 0x1195 PUSH2 0x39B8 JUMP JUMPDEST JUMPDEST PUSH1 0x20 MUL PUSH1 0x20 ADD ADD DUP2 SWAP1 MSTORE POP PUSH1 0x1 DUP5 PUSH2 0x11AE SWAP2 SWAP1 PUSH2 0x3761 JUMP JUMPDEST SWAP4 POP POP DUP1 DUP1 PUSH2 0x11BC SWAP1 PUSH2 0x38E2 JUMP JUMPDEST SWAP2 POP POP PUSH2 0x106E JUMP JUMPDEST POP DUP3 SWAP5 POP POP POP POP POP SWAP1 JUMP JUMPDEST PUSH1 0x60 PUSH1 0x0 PUSH2 0x11DD PUSH1 0x7 PUSH2 0x1D5C JUMP JUMPDEST SWAP1 POP PUSH1 0x0 DUP1 PUSH1 0x0 DUP1 PUSH1 0x0 SWAP1 POP JUMPDEST DUP5 DUP2 LT ISZERO PUSH2 0x1303 JUMPI DUP7 PUSH20 0xFFFFFFFFFFFFFFFFFFFFFFFFFFFFFFFFFFFFFFFF AND PUSH1 0xB PUSH1 0x0 PUSH1 0x1 DUP5 PUSH2 0x121A SWAP2 SWAP1 PUSH2 0x3761 JUMP JUMPDEST DUP2 MSTORE PUSH1 0x20 ADD SWAP1 DUP2 MSTORE PUSH1 0x20 ADD PUSH1 0x0 KECCAK256 PUSH1 0x1 ADD PUSH1 0x0 SWAP1 SLOAD SWAP1 PUSH2 0x100 EXP SWAP1 DIV PUSH20 0xFFFFFFFFFFFFFFFFFFFFFFFFFFFFFFFFFFFFFFFF AND PUSH20 0xFFFFFFFFFFFFFFFFFFFFFFFFFFFFFFFFFFFFFFFF AND EQ DUP1 PUSH2 0x12DB JUMPI POP DUP7 PUSH20 0xFFFFFFFFFFFFFFFFFFFFFFFFFFFFFFFFFFFFFFFF AND PUSH1 0xB PUSH1 0x0 PUSH1 0x1 DUP5 PUSH2 0x1291 SWAP2 SWAP1 PUSH2 0x3761 JUMP JUMPDEST DUP2 MSTORE PUSH1 0x20 ADD SWAP1 DUP2 MSTORE PUSH1 0x20 ADD PUSH1 0x0 KECCAK256 PUSH1 0x2 ADD PUSH1 0x0 SWAP1 SLOAD SWAP1 PUSH2 0x100 EXP SWAP1 DIV PUSH20 0xFFFFFFFFFFFFFFFFFFFFFFFFFFFFFFFFFFFFFFFF AND PUSH20 0xFFFFFFFFFFFFFFFFFFFFFFFFFFFFFFFFFFFFFFFF AND EQ JUMPDEST ISZERO PUSH2 0x12F0 JUMPI PUSH1 0x1 DUP5 PUSH2 0x12ED SWAP2 SWAP1 PUSH2 0x3761 JUMP JUMPDEST SWAP4 POP JUMPDEST DUP1 DUP1 PUSH2 0x12FB SWAP1 PUSH2 0x38E2 JUMP JUMPDEST SWAP2 POP POP PUSH2 0x11EA JUMP JUMPDEST POP PUSH1 0x0 DUP4 PUSH8 0xFFFFFFFFFFFFFFFF DUP2 GT ISZERO PUSH2 0x1320 JUMPI PUSH2 0x131F PUSH2 0x39E7 JUMP JUMPDEST JUMPDEST PUSH1 0x40 MLOAD SWAP1 DUP1 DUP3 MSTORE DUP1 PUSH1 0x20 MUL PUSH1 0x20 ADD DUP3 ADD PUSH1 0x40 MSTORE DUP1 ISZERO PUSH2 0x1359 JUMPI DUP2 PUSH1 0x20 ADD JUMPDEST PUSH2 0x1346 PUSH2 0x29B1 JUMP JUMPDEST DUP2 MSTORE PUSH1 0x20 ADD SWAP1 PUSH1 0x1 SWAP1 SUB SWAP1 DUP2 PUSH2 0x133E JUMPI SWAP1 POP JUMPDEST POP SWAP1 POP PUSH1 0x0 JUMPDEST DUP6 DUP2 LT ISZERO PUSH2 0x15A4 JUMPI DUP8 PUSH20 0xFFFFFFFFFFFFFFFFFFFFFFFFFFFFFFFFFFFFFFFF AND PUSH1 0xB PUSH1 0x0 PUSH1 0x1 DUP5 PUSH2 0x138F SWAP2 SWAP1 PUSH2 0x3761 JUMP JUMPDEST DUP2 MSTORE PUSH1 0x20 ADD SWAP1 DUP2 MSTORE PUSH1 0x20 ADD PUSH1 0x0 KECCAK256 PUSH1 0x1 ADD PUSH1 0x0 SWAP1 SLOAD SWAP1 PUSH2 0x100 EXP SWAP1 DIV PUSH20 0xFFFFFFFFFFFFFFFFFFFFFFFFFFFFFFFFFFFFFFFF AND PUSH20 0xFFFFFFFFFFFFFFFFFFFFFFFFFFFFFFFFFFFFFFFF AND EQ DUP1 PUSH2 0x1450 JUMPI POP DUP8 PUSH20 0xFFFFFFFFFFFFFFFFFFFFFFFFFFFFFFFFFFFFFFFF AND PUSH1 0xB PUSH1 0x0 PUSH1 0x1 DUP5 PUSH2 0x1406 SWAP2 SWAP1 PUSH2 0x3761 JUMP JUMPDEST DUP2 MSTORE PUSH1 0x20 ADD SWAP1 DUP2 MSTORE PUSH1 0x20 ADD PUSH1 0x0 KECCAK256 PUSH1 0x2 ADD PUSH1 0x0 SWAP1 SLOAD SWAP1 PUSH2 0x100 EXP SWAP1 DIV PUSH20 0xFFFFFFFFFFFFFFFFFFFFFFFFFFFFFFFFFFFFFFFF AND PUSH20 0xFFFFFFFFFFFFFFFFFFFFFFFFFFFFFFFFFFFFFFFF AND EQ JUMPDEST ISZERO PUSH2 0x1591 JUMPI PUSH1 0x1 DUP2 PUSH2 0x1462 SWAP2 SWAP1 PUSH2 0x3761 JUMP JUMPDEST SWAP3 POP PUSH1 0x0 PUSH1 0xB PUSH1 0x0 DUP6 DUP2 MSTORE PUSH1 0x20 ADD SWAP1 DUP2 MSTORE PUSH1 0x20 ADD PUSH1 0x0 KECCAK256 SWAP1 POP DUP1 PUSH1 0x40 MLOAD DUP1 PUSH1 0xA0 ADD PUSH1 0x40 MSTORE SWAP1 DUP2 PUSH1 0x0 DUP3 ADD SLOAD DUP2 MSTORE PUSH1 0x20 ADD PUSH1 0x1 DUP3 ADD PUSH1 0x0 SWAP1 SLOAD SWAP1 PUSH2 0x100 EXP SWAP1 DIV PUSH20 0xFFFFFFFFFFFFFFFFFFFFFFFFFFFFFFFFFFFFFFFF AND PUSH20 0xFFFFFFFFFFFFFFFFFFFFFFFFFFFFFFFFFFFFFFFF AND PUSH20 0xFFFFFFFFFFFFFFFFFFFFFFFFFFFFFFFFFFFFFFFF AND DUP2 MSTORE PUSH1 0x20 ADD PUSH1 0x2 DUP3 ADD PUSH1 0x0 SWAP1 SLOAD SWAP1 PUSH2 0x100 EXP SWAP1 DIV PUSH20 0xFFFFFFFFFFFFFFFFFFFFFFFFFFFFFFFFFFFFFFFF AND PUSH20 0xFFFFFFFFFFFFFFFFFFFFFFFFFFFFFFFFFFFFFFFF AND PUSH20 0xFFFFFFFFFFFFFFFFFFFFFFFFFFFFFFFFFFFFFFFF AND DUP2 MSTORE PUSH1 0x20 ADD PUSH1 0x3 DUP3 ADD SLOAD DUP2 MSTORE PUSH1 0x20 ADD PUSH1 0x4 DUP3 ADD PUSH1 0x0 SWAP1 SLOAD SWAP1 PUSH2 0x100 EXP SWAP1 DIV PUSH1 0xFF AND ISZERO ISZERO ISZERO ISZERO DUP2 MSTORE POP POP DUP4 DUP7 DUP2 MLOAD DUP2 LT PUSH2 0x1575 JUMPI PUSH2 0x1574 PUSH2 0x39B8 JUMP JUMPDEST JUMPDEST PUSH1 0x20 MUL PUSH1 0x20 ADD ADD DUP2 SWAP1 MSTORE POP PUSH1 0x1 DUP6 PUSH2 0x158D SWAP2 SWAP1 PUSH2 0x3761 JUMP JUMPDEST SWAP5 POP POP JUMPDEST DUP1 DUP1 PUSH2 0x159C SWAP1 PUSH2 0x38E2 JUMP JUMPDEST SWAP2 POP POP PUSH2 0x135F JUMP JUMPDEST POP DUP1 SWAP6 POP POP POP POP POP POP SWAP2 SWAP1 POP JUMP JUMPDEST PUSH1 0x0 PUSH1 0x5 PUSH1 0x0 DUP5 PUSH20 0xFFFFFFFFFFFFFFFFFFFFFFFFFFFFFFFFFFFFFFFF AND PUSH20 0xFFFFFFFFFFFFFFFFFFFFFFFFFFFFFFFFFFFFFFFF AND DUP2 MSTORE PUSH1 0x20 ADD SWAP1 DUP2 MSTORE PUSH1 0x20 ADD PUSH1 0x0 KECCAK256 PUSH1 0x0 DUP4 PUSH20 0xFFFFFFFFFFFFFFFFFFFFFFFFFFFFFFFFFFFFFFFF AND PUSH20 0xFFFFFFFFFFFFFFFFFFFFFFFFFFFFFFFFFFFFFFFF AND DUP2 MSTORE PUSH1 0x20 ADD SWAP1 DUP2 MSTORE PUSH1 0x20 ADD PUSH1 0x0 KECCAK256 PUSH1 0x0 SWAP1 SLOAD SWAP1 PUSH2 0x100 EXP SWAP1 DIV PUSH1 0xFF AND SWAP1 POP SWAP3 SWAP2 POP POP JUMP JUMPDEST PUSH1 0x0 PUSH2 0x1652 PUSH1 0x7 PUSH2 0x1D5C JUMP JUMPDEST SWAP1 POP SWAP1 JUMP JUMPDEST PUSH2 0x16ED DUP2 PUSH1 0x40 MLOAD PUSH1 0x24 ADD PUSH2 0x166B SWAP2 SWAP1 PUSH2 0x33FD JUMP JUMPDEST PUSH1 0x40 MLOAD PUSH1 0x20 DUP2 DUP4 SUB SUB DUP2 MSTORE SWAP1 PUSH1 0x40 MSTORE PUSH32 0x41304FAC00000000000000000000000000000000000000000000000000000000 PUSH28 0xFFFFFFFFFFFFFFFFFFFFFFFFFFFFFFFFFFFFFFFFFFFFFFFFFFFFFFFF NOT AND PUSH1 0x20 DUP3 ADD DUP1 MLOAD PUSH28 0xFFFFFFFFFFFFFFFFFFFFFFFFFFFFFFFFFFFFFFFFFFFFFFFFFFFFFFFF DUP4 DUP2 DUP4 AND OR DUP4 MSTORE POP POP POP POP PUSH2 0x2273 JUMP JUMPDEST POP JUMP JUMPDEST PUSH1 0x0 PUSH32 0x80AC58CD00000000000000000000000000000000000000000000000000000000 PUSH28 0xFFFFFFFFFFFFFFFFFFFFFFFFFFFFFFFFFFFFFFFFFFFFFFFFFFFFFFFF NOT AND DUP3 PUSH28 0xFFFFFFFFFFFFFFFFFFFFFFFFFFFFFFFFFFFFFFFFFFFFFFFFFFFFFFFF NOT AND EQ DUP1 PUSH2 0x17BB JUMPI POP PUSH32 0x5B5E139F00000000000000000000000000000000000000000000000000000000 PUSH28 0xFFFFFFFFFFFFFFFFFFFFFFFFFFFFFFFFFFFFFFFFFFFFFFFFFFFFFFFF NOT AND DUP3 PUSH28 0xFFFFFFFFFFFFFFFFFFFFFFFFFFFFFFFFFFFFFFFFFFFFFFFFFFFFFFFF NOT AND EQ JUMPDEST DUP1 PUSH2 0x17CB JUMPI POP PUSH2 0x17CA DUP3 PUSH2 0x229C JUMP JUMPDEST JUMPDEST SWAP1 POP SWAP2 SWAP1 POP JUMP JUMPDEST PUSH2 0x17DB DUP2 PUSH2 0x2306 JUMP JUMPDEST PUSH2 0x181A JUMPI PUSH1 0x40 MLOAD PUSH32 0x8C379A000000000000000000000000000000000000000000000000000000000 DUP2 MSTORE PUSH1 0x4 ADD PUSH2 0x1811 SWAP1 PUSH2 0x357F JUMP JUMPDEST PUSH1 0x40 MLOAD DUP1 SWAP2 SUB SWAP1 REVERT JUMPDEST POP JUMP JUMPDEST PUSH1 0x0 CALLER SWAP1 POP SWAP1 JUMP JUMPDEST DUP2 PUSH1 0x4 PUSH1 0x0 DUP4 DUP2 MSTORE PUSH1 0x20 ADD SWAP1 DUP2 MSTORE PUSH1 0x20 ADD PUSH1 0x0 KECCAK256 PUSH1 0x0 PUSH2 0x100 EXP DUP2 SLOAD DUP2 PUSH20 0xFFFFFFFFFFFFFFFFFFFFFFFFFFFFFFFFFFFFFFFF MUL NOT AND SWAP1 DUP4 PUSH20 0xFFFFFFFFFFFFFFFFFFFFFFFFFFFFFFFFFFFFFFFF AND MUL OR SWAP1 SSTORE POP DUP1 DUP3 PUSH20 0xFFFFFFFFFFFFFFFFFFFFFFFFFFFFFFFFFFFFFFFF AND PUSH2 0x1898 DUP4 PUSH2 0x803 JUMP JUMPDEST PUSH20 0xFFFFFFFFFFFFFFFFFFFFFFFFFFFFFFFFFFFFFFFF AND PUSH32 0x8C5BE1E5EBEC7D5BD14F71427D1E84F3DD0314C0F7B2291E5B200AC8C7C3B925 PUSH1 0x40 MLOAD PUSH1 0x40 MLOAD DUP1 SWAP2 SUB SWAP1 LOG4 POP POP JUMP JUMPDEST PUSH1 0x0 DUP1 PUSH2 0x18EA DUP4 PUSH2 0x803 JUMP JUMPDEST SWAP1 POP DUP1 PUSH20 0xFFFFFFFFFFFFFFFFFFFFFFFFFFFFFFFFFFFFFFFF AND DUP5 PUSH20 0xFFFFFFFFFFFFFFFFFFFFFFFFFFFFFFFFFFFFFFFF AND EQ DUP1 PUSH2 0x192C JUMPI POP PUSH2 0x192B DUP2 DUP6 PUSH2 0x15B2 JUMP JUMPDEST JUMPDEST DUP1 PUSH2 0x196A JUMPI POP DUP4 PUSH20 0xFFFFFFFFFFFFFFFFFFFFFFFFFFFFFFFFFFFFFFFF AND PUSH2 0x1952 DUP5 PUSH2 0x625 JUMP JUMPDEST PUSH20 0xFFFFFFFFFFFFFFFFFFFFFFFFFFFFFFFFFFFFFFFF AND EQ JUMPDEST SWAP2 POP POP SWAP3 SWAP2 POP POP JUMP JUMPDEST DUP3 PUSH20 0xFFFFFFFFFFFFFFFFFFFFFFFFFFFFFFFFFFFFFFFF AND PUSH2 0x1993 DUP3 PUSH2 0x803 JUMP JUMPDEST PUSH20 0xFFFFFFFFFFFFFFFFFFFFFFFFFFFFFFFFFFFFFFFF AND EQ PUSH2 0x19E9 JUMPI PUSH1 0x40 MLOAD PUSH32 0x8C379A000000000000000000000000000000000000000000000000000000000 DUP2 MSTORE PUSH1 0x4 ADD PUSH2 0x19E0 SWAP1 PUSH2 0x345F JUMP JUMPDEST PUSH1 0x40 MLOAD DUP1 SWAP2 SUB SWAP1 REVERT JUMPDEST PUSH1 0x0 PUSH20 0xFFFFFFFFFFFFFFFFFFFFFFFFFFFFFFFFFFFFFFFF AND DUP3 PUSH20 0xFFFFFFFFFFFFFFFFFFFFFFFFFFFFFFFFFFFFFFFF AND EQ ISZERO PUSH2 0x1A59 JUMPI PUSH1 0x40 MLOAD PUSH32 0x8C379A000000000000000000000000000000000000000000000000000000000 DUP2 MSTORE PUSH1 0x4 ADD PUSH2 0x1A50 SWAP1 PUSH2 0x349F JUMP JUMPDEST PUSH1 0x40 MLOAD DUP1 SWAP2 SUB SWAP1 REVERT JUMPDEST PUSH2 0x1A66 DUP4 DUP4 DUP4 PUSH1 0x1 PUSH2 0x2347 JUMP JUMPDEST DUP3 PUSH20 0xFFFFFFFFFFFFFFFFFFFFFFFFFFFFFFFFFFFFFFFF AND PUSH2 0x1A86 DUP3 PUSH2 0x803 JUMP JUMPDEST PUSH20 0xFFFFFFFFFFFFFFFFFFFFFFFFFFFFFFFFFFFFFFFF AND EQ PUSH2 0x1ADC JUMPI PUSH1 0x40 MLOAD PUSH32 0x8C379A000000000000000000000000000000000000000000000000000000000 DUP2 MSTORE PUSH1 0x4 ADD PUSH2 0x1AD3 SWAP1 PUSH2 0x345F JUMP JUMPDEST PUSH1 0x40 MLOAD DUP1 SWAP2 SUB SWAP1 REVERT JUMPDEST PUSH1 0x4 PUSH1 0x0 DUP3 DUP2 MSTORE PUSH1 0x20 ADD SWAP1 DUP2 MSTORE PUSH1 0x20 ADD PUSH1 0x0 KECCAK256 PUSH1 0x0 PUSH2 0x100 EXP DUP2 SLOAD SWAP1 PUSH20 0xFFFFFFFFFFFFFFFFFFFFFFFFFFFFFFFFFFFFFFFF MUL NOT AND SWAP1 SSTORE PUSH1 0x1 PUSH1 0x3 PUSH1 0x0 DUP6 PUSH20 0xFFFFFFFFFFFFFFFFFFFFFFFFFFFFFFFFFFFFFFFF AND PUSH20 0xFFFFFFFFFFFFFFFFFFFFFFFFFFFFFFFFFFFFFFFF AND DUP2 MSTORE PUSH1 0x20 ADD SWAP1 DUP2 MSTORE PUSH1 0x20 ADD PUSH1 0x0 KECCAK256 PUSH1 0x0 DUP3 DUP3 SLOAD SUB SWAP3 POP POP DUP2 SWAP1 SSTORE POP PUSH1 0x1 PUSH1 0x3 PUSH1 0x0 DUP5 PUSH20 0xFFFFFFFFFFFFFFFFFFFFFFFFFFFFFFFFFFFFFFFF AND PUSH20 0xFFFFFFFFFFFFFFFFFFFFFFFFFFFFFFFFFFFFFFFF AND DUP2 MSTORE PUSH1 0x20 ADD SWAP1 DUP2 MSTORE PUSH1 0x20 ADD PUSH1 0x0 KECCAK256 PUSH1 0x0 DUP3 DUP3 SLOAD ADD SWAP3 POP POP DUP2 SWAP1 SSTORE POP DUP2 PUSH1 0x2 PUSH1 0x0 DUP4 DUP2 MSTORE PUSH1 0x20 ADD SWAP1 DUP2 MSTORE PUSH1 0x20 ADD PUSH1 0x0 KECCAK256 PUSH1 0x0 PUSH2 0x100 EXP DUP2 SLOAD DUP2 PUSH20 0xFFFFFFFFFFFFFFFFFFFFFFFFFFFFFFFFFFFFFFFF MUL NOT AND SWAP1 DUP4 PUSH20 0xFFFFFFFFFFFFFFFFFFFFFFFFFFFFFFFFFFFFFFFF AND MUL OR SWAP1 SSTORE POP DUP1 DUP3 PUSH20 0xFFFFFFFFFFFFFFFFFFFFFFFFFFFFFFFFFFFFFFFF AND DUP5 PUSH20 0xFFFFFFFFFFFFFFFFFFFFFFFFFFFFFFFFFFFFFFFF AND PUSH32 0xDDF252AD1BE2C89B69C2B068FC378DAA952BA7F163C4A11628F55A4DF523B3EF PUSH1 0x40 MLOAD PUSH1 0x40 MLOAD DUP1 SWAP2 SUB SWAP1 LOG4 PUSH2 0x1C68 DUP4 DUP4 DUP4 PUSH1 0x1 PUSH2 0x234D JUMP JUMPDEST POP POP POP JUMP JUMPDEST PUSH1 0x0 PUSH1 0x2 PUSH1 0x0 DUP4 DUP2 MSTORE PUSH1 0x20 ADD SWAP1 DUP2 MSTORE PUSH1 0x20 ADD PUSH1 0x0 KECCAK256 PUSH1 0x0 SWAP1 SLOAD SWAP1 PUSH2 0x100 EXP SWAP1 DIV PUSH20 0xFFFFFFFFFFFFFFFFFFFFFFFFFFFFFFFFFFFFFFFF AND SWAP1 POP SWAP2 SWAP1 POP JUMP JUMPDEST PUSH2 0x1D42 DUP3 DUP3 PUSH1 0x40 MLOAD PUSH1 0x24 ADD PUSH2 0x1CC0 SWAP3 SWAP2 SWAP1 PUSH2 0x3635 JUMP JUMPDEST PUSH1 0x40 MLOAD PUSH1 0x20 DUP2 DUP4 SUB SUB DUP2 MSTORE SWAP1 PUSH1 0x40 MSTORE PUSH32 0xF666715A00000000000000000000000000000000000000000000000000000000 PUSH28 0xFFFFFFFFFFFFFFFFFFFFFFFFFFFFFFFFFFFFFFFFFFFFFFFFFFFFFFFF NOT AND PUSH1 0x20 DUP3 ADD DUP1 MLOAD PUSH28 0xFFFFFFFFFFFFFFFFFFFFFFFFFFFFFFFFFFFFFFFFFFFFFFFFFFFFFFFF DUP4 DUP2 DUP4 AND OR DUP4 MSTORE POP POP POP POP PUSH2 0x2273 JUMP JUMPDEST POP POP JUMP JUMPDEST PUSH1 0x1 DUP2 PUSH1 0x0 ADD PUSH1 0x0 DUP3 DUP3 SLOAD ADD SWAP3 POP POP DUP2 SWAP1 SSTORE POP POP JUMP JUMPDEST PUSH1 0x0 DUP2 PUSH1 0x0 ADD SLOAD SWAP1 POP SWAP2 SWAP1 POP JUMP JUMPDEST PUSH2 0x1D84 DUP3 DUP3 PUSH1 0x40 MLOAD DUP1 PUSH1 0x20 ADD PUSH1 0x40 MSTORE DUP1 PUSH1 0x0 DUP2 MSTORE POP PUSH2 0x2353 JUMP JUMPDEST POP POP JUMP JUMPDEST PUSH2 0x1D91 DUP3 PUSH2 0x2306 JUMP JUMPDEST PUSH2 0x1DD0 JUMPI PUSH1 0x40 MLOAD PUSH32 0x8C379A000000000000000000000000000000000000000000000000000000000 DUP2 MSTORE PUSH1 0x4 ADD PUSH2 0x1DC7 SWAP1 PUSH2 0x34FF JUMP JUMPDEST PUSH1 0x40 MLOAD DUP1 SWAP2 SUB SWAP1 REVERT JUMPDEST DUP1 PUSH1 0x6 PUSH1 0x0 DUP5 DUP2 MSTORE PUSH1 0x20 ADD SWAP1 DUP2 MSTORE PUSH1 0x20 ADD PUSH1 0x0 KECCAK256 SWAP1 DUP1 MLOAD SWAP1 PUSH1 0x20 ADD SWAP1 PUSH2 0x1DF7 SWAP3 SWAP2 SWAP1 PUSH2 0x2A0E JUMP JUMPDEST POP PUSH32 0xF8E1A15ABA9398E019F0B49DF1A4FDE98EE17AE345CB5F6B5E2C27F5033E8CE7 DUP3 PUSH1 0x40 MLOAD PUSH2 0x1E27 SWAP2 SWAP1 PUSH2 0x361A JUMP JUMPDEST PUSH1 0x40 MLOAD DUP1 SWAP2 SUB SWAP1 LOG1 POP POP JUMP JUMPDEST PUSH1 0xA SLOAD CALLVALUE EQ PUSH2 0x1E77 JUMPI PUSH1 0x40 MLOAD PUSH32 0x8C379A000000000000000000000000000000000000000000000000000000000 DUP2 MSTORE PUSH1 0x4 ADD PUSH2 0x1E6E SWAP1 PUSH2 0x355F JUMP JUMPDEST PUSH1 0x40 MLOAD DUP1 SWAP2 SUB SWAP1 REVERT JUMPDEST PUSH1 0x0 DUP2 GT PUSH2 0x1EBA JUMPI PUSH1 0x40 MLOAD PUSH32 0x8C379A000000000000000000000000000000000000000000000000000000000 DUP2 MSTORE PUSH1 0x4 ADD PUSH2 0x1EB1 SWAP1 PUSH2 0x35DF JUMP JUMPDEST PUSH1 0x40 MLOAD DUP1 SWAP2 SUB SWAP1 REVERT JUMPDEST PUSH1 0x40 MLOAD DUP1 PUSH1 0xA0 ADD PUSH1 0x40 MSTORE DUP1 DUP4 DUP2 MSTORE PUSH1 0x20 ADD ADDRESS PUSH20 0xFFFFFFFFFFFFFFFFFFFFFFFFFFFFFFFFFFFFFFFF AND DUP2 MSTORE PUSH1 0x20 ADD CALLER PUSH20 0xFFFFFFFFFFFFFFFFFFFFFFFFFFFFFFFFFFFFFFFF AND DUP2 MSTORE PUSH1 0x20 ADD DUP3 DUP2 MSTORE PUSH1 0x20 ADD PUSH1 0x1 ISZERO ISZERO DUP2 MSTORE POP PUSH1 0xB PUSH1 0x0 DUP5 DUP2 MSTORE PUSH1 0x20 ADD SWAP1 DUP2 MSTORE PUSH1 0x20 ADD PUSH1 0x0 KECCAK256 PUSH1 0x0 DUP3 ADD MLOAD DUP2 PUSH1 0x0 ADD SSTORE PUSH1 0x20 DUP3 ADD MLOAD DUP2 PUSH1 0x1 ADD PUSH1 0x0 PUSH2 0x100 EXP DUP2 SLOAD DUP2 PUSH20 0xFFFFFFFFFFFFFFFFFFFFFFFFFFFFFFFFFFFFFFFF MUL NOT AND SWAP1 DUP4 PUSH20 0xFFFFFFFFFFFFFFFFFFFFFFFFFFFFFFFFFFFFFFFF AND MUL OR SWAP1 SSTORE POP PUSH1 0x40 DUP3 ADD MLOAD DUP2 PUSH1 0x2 ADD PUSH1 0x0 PUSH2 0x100 EXP DUP2 SLOAD DUP2 PUSH20 0xFFFFFFFFFFFFFFFFFFFFFFFFFFFFFFFFFFFFFFFF MUL NOT AND SWAP1 DUP4 PUSH20 0xFFFFFFFFFFFFFFFFFFFFFFFFFFFFFFFFFFFFFFFF AND MUL OR SWAP1 SSTORE POP PUSH1 0x60 DUP3 ADD MLOAD DUP2 PUSH1 0x3 ADD SSTORE PUSH1 0x80 DUP3 ADD MLOAD DUP2 PUSH1 0x4 ADD PUSH1 0x0 PUSH2 0x100 EXP DUP2 SLOAD DUP2 PUSH1 0xFF MUL NOT AND SWAP1 DUP4 ISZERO ISZERO MUL OR SWAP1 SSTORE POP SWAP1 POP POP DUP2 PUSH32 0x9339409317FD01FABFF48B703019016F49159BACC801AE872D2CA637D226E4C0 ADDRESS CALLER DUP5 PUSH1 0x1 PUSH1 0x40 MLOAD PUSH2 0x201F SWAP5 SWAP4 SWAP3 SWAP2 SWAP1 PUSH2 0x332F JUMP JUMPDEST PUSH1 0x40 MLOAD DUP1 SWAP2 SUB SWAP1 LOG2 POP POP JUMP JUMPDEST DUP2 PUSH20 0xFFFFFFFFFFFFFFFFFFFFFFFFFFFFFFFFFFFFFFFF AND DUP4 PUSH20 0xFFFFFFFFFFFFFFFFFFFFFFFFFFFFFFFFFFFFFFFF AND EQ ISZERO PUSH2 0x209A JUMPI PUSH1 0x40 MLOAD PUSH32 0x8C379A000000000000000000000000000000000000000000000000000000000 DUP2 MSTORE PUSH1 0x4 ADD PUSH2 0x2091 SWAP1 PUSH2 0x34BF JUMP JUMPDEST PUSH1 0x40 MLOAD DUP1 SWAP2 SUB SWAP1 REVERT JUMPDEST DUP1 PUSH1 0x5 PUSH1 0x0 DUP6 PUSH20 0xFFFFFFFFFFFFFFFFFFFFFFFFFFFFFFFFFFFFFFFF AND PUSH20 0xFFFFFFFFFFFFFFFFFFFFFFFFFFFFFFFFFFFFFFFF AND DUP2 MSTORE PUSH1 0x20 ADD SWAP1 DUP2 MSTORE PUSH1 0x20 ADD PUSH1 0x0 KECCAK256 PUSH1 0x0 DUP5 PUSH20 0xFFFFFFFFFFFFFFFFFFFFFFFFFFFFFFFFFFFFFFFF AND PUSH20 0xFFFFFFFFFFFFFFFFFFFFFFFFFFFFFFFFFFFFFFFF AND DUP2 MSTORE PUSH1 0x20 ADD SWAP1 DUP2 MSTORE PUSH1 0x20 ADD PUSH1 0x0 KECCAK256 PUSH1 0x0 PUSH2 0x100 EXP DUP2 SLOAD DUP2 PUSH1 0xFF MUL NOT AND SWAP1 DUP4 ISZERO ISZERO MUL OR SWAP1 SSTORE POP DUP2 PUSH20 0xFFFFFFFFFFFFFFFFFFFFFFFFFFFFFFFFFFFFFFFF AND DUP4 PUSH20 0xFFFFFFFFFFFFFFFFFFFFFFFFFFFFFFFFFFFFFFFF AND PUSH32 0x17307EAB39AB6107E8899845AD3D59BD9653F200F220920489CA2B5937696C31 DUP4 PUSH1 0x40 MLOAD PUSH2 0x218B SWAP2 SWAP1 PUSH2 0x33E2 JUMP JUMPDEST PUSH1 0x40 MLOAD DUP1 SWAP2 SUB SWAP1 LOG3 POP POP POP JUMP JUMPDEST PUSH2 0x21A3 DUP5 DUP5 DUP5 PUSH2 0x1973 JUMP JUMPDEST PUSH2 0x21AF DUP5 DUP5 DUP5 DUP5 PUSH2 0x23AE JUMP JUMPDEST PUSH2 0x21EE JUMPI PUSH1 0x40 MLOAD PUSH32 0x8C379A000000000000000000000000000000000000000000000000000000000 DUP2 MSTORE PUSH1 0x4 ADD PUSH2 0x21E5 SWAP1 PUSH2 0x343F JUMP JUMPDEST PUSH1 0x40 MLOAD DUP1 SWAP2 SUB SWAP1 REVERT JUMPDEST POP POP POP POP JUMP JUMPDEST PUSH1 0x60 PUSH1 0x40 MLOAD DUP1 PUSH1 0x20 ADD PUSH1 0x40 MSTORE DUP1 PUSH1 0x0 DUP2 MSTORE POP SWAP1 POP SWAP1 JUMP JUMPDEST PUSH1 0x60 PUSH2 0x2216 DUP3 PUSH2 0x17D2 JUMP JUMPDEST PUSH1 0x0 PUSH2 0x2220 PUSH2 0x21F4 JUMP JUMPDEST SWAP1 POP PUSH1 0x0 DUP2 MLOAD GT PUSH2 0x2240 JUMPI PUSH1 0x40 MLOAD DUP1 PUSH1 0x20 ADD PUSH1 0x40 MSTORE DUP1 PUSH1 0x0 DUP2 MSTORE POP PUSH2 0x226B JUMP JUMPDEST DUP1 PUSH2 0x224A DUP5 PUSH2 0x2545 JUMP JUMPDEST PUSH1 0x40 MLOAD PUSH1 0x20 ADD PUSH2 0x225B SWAP3 SWAP2 SWAP1 PUSH2 0x32F0 JUMP JUMPDEST PUSH1 0x40 MLOAD PUSH1 0x20 DUP2 DUP4 SUB SUB DUP2 MSTORE SWAP1 PUSH1 0x40 MSTORE JUMPDEST SWAP2 POP POP SWAP2 SWAP1 POP JUMP JUMPDEST PUSH1 0x0 DUP2 MLOAD SWAP1 POP PUSH1 0x0 PUSH11 0x636F6E736F6C652E6C6F67 SWAP1 POP PUSH1 0x20 DUP4 ADD PUSH1 0x0 DUP1 DUP5 DUP4 DUP6 GAS STATICCALL POP POP POP POP POP JUMP JUMPDEST PUSH1 0x0 PUSH32 0x1FFC9A700000000000000000000000000000000000000000000000000000000 PUSH28 0xFFFFFFFFFFFFFFFFFFFFFFFFFFFFFFFFFFFFFFFFFFFFFFFFFFFFFFFF NOT AND DUP3 PUSH28 0xFFFFFFFFFFFFFFFFFFFFFFFFFFFFFFFFFFFFFFFFFFFFFFFFFFFFFFFF NOT AND EQ SWAP1 POP SWAP2 SWAP1 POP JUMP JUMPDEST PUSH1 0x0 DUP1 PUSH20 0xFFFFFFFFFFFFFFFFFFFFFFFFFFFFFFFFFFFFFFFF AND PUSH2 0x2328 DUP4 PUSH2 0x1C6D JUMP JUMPDEST PUSH20 0xFFFFFFFFFFFFFFFFFFFFFFFFFFFFFFFFFFFFFFFF AND EQ ISZERO SWAP1 POP SWAP2 SWAP1 POP JUMP JUMPDEST POP POP POP POP JUMP JUMPDEST POP POP POP POP JUMP JUMPDEST PUSH2 0x235D DUP4 DUP4 PUSH2 0x261D JUMP JUMPDEST PUSH2 0x236A PUSH1 0x0 DUP5 DUP5 DUP5 PUSH2 0x23AE JUMP JUMPDEST PUSH2 0x23A9 JUMPI PUSH1 0x40 MLOAD PUSH32 0x8C379A000000000000000000000000000000000000000000000000000000000 DUP2 MSTORE PUSH1 0x4 ADD PUSH2 0x23A0 SWAP1 PUSH2 0x343F JUMP JUMPDEST PUSH1 0x40 MLOAD DUP1 SWAP2 SUB SWAP1 REVERT JUMPDEST POP POP POP JUMP JUMPDEST PUSH1 0x0 PUSH2 0x23CF DUP5 PUSH20 0xFFFFFFFFFFFFFFFFFFFFFFFFFFFFFFFFFFFFFFFF AND PUSH2 0x283B JUMP JUMPDEST ISZERO PUSH2 0x2538 JUMPI DUP4 PUSH20 0xFFFFFFFFFFFFFFFFFFFFFFFFFFFFFFFFFFFFFFFF AND PUSH4 0x150B7A02 PUSH2 0x23F8 PUSH2 0x181D JUMP JUMPDEST DUP8 DUP7 DUP7 PUSH1 0x40 MLOAD DUP6 PUSH4 0xFFFFFFFF AND PUSH1 0xE0 SHL DUP2 MSTORE PUSH1 0x4 ADD PUSH2 0x241A SWAP5 SWAP4 SWAP3 SWAP2 SWAP1 PUSH2 0x3374 JUMP JUMPDEST PUSH1 0x20 PUSH1 0x40 MLOAD DUP1 DUP4 SUB DUP2 PUSH1 0x0 DUP8 DUP1 EXTCODESIZE ISZERO DUP1 ISZERO PUSH2 0x2434 JUMPI PUSH1 0x0 DUP1 REVERT JUMPDEST POP GAS CALL SWAP3 POP POP POP DUP1 ISZERO PUSH2 0x2465 JUMPI POP PUSH1 0x40 MLOAD RETURNDATASIZE PUSH1 0x1F NOT PUSH1 0x1F DUP3 ADD AND DUP3 ADD DUP1 PUSH1 0x40 MSTORE POP DUP2 ADD SWAP1 PUSH2 0x2462 SWAP2 SWAP1 PUSH2 0x2DEA JUMP JUMPDEST PUSH1 0x1 JUMPDEST PUSH2 0x24E8 JUMPI RETURNDATASIZE DUP1 PUSH1 0x0 DUP2 EQ PUSH2 0x2495 JUMPI PUSH1 0x40 MLOAD SWAP2 POP PUSH1 0x1F NOT PUSH1 0x3F RETURNDATASIZE ADD AND DUP3 ADD PUSH1 0x40 MSTORE RETURNDATASIZE DUP3 MSTORE RETURNDATASIZE PUSH1 0x0 PUSH1 0x20 DUP5 ADD RETURNDATACOPY PUSH2 0x249A JUMP JUMPDEST PUSH1 0x60 SWAP2 POP JUMPDEST POP PUSH1 0x0 DUP2 MLOAD EQ ISZERO PUSH2 0x24E0 JUMPI PUSH1 0x40 MLOAD PUSH32 0x8C379A000000000000000000000000000000000000000000000000000000000 DUP2 MSTORE PUSH1 0x4 ADD PUSH2 0x24D7 SWAP1 PUSH2 0x343F JUMP JUMPDEST PUSH1 0x40 MLOAD DUP1 SWAP2 SUB SWAP1 REVERT JUMPDEST DUP1 MLOAD DUP2 PUSH1 0x20 ADD REVERT JUMPDEST PUSH4 0x150B7A02 PUSH1 0xE0 SHL PUSH28 0xFFFFFFFFFFFFFFFFFFFFFFFFFFFFFFFFFFFFFFFFFFFFFFFFFFFFFFFF NOT AND DUP2 PUSH28 0xFFFFFFFFFFFFFFFFFFFFFFFFFFFFFFFFFFFFFFFFFFFFFFFFFFFFFFFF NOT AND EQ SWAP2 POP POP PUSH2 0x253D JUMP JUMPDEST PUSH1 0x1 SWAP1 POP JUMPDEST SWAP5 SWAP4 POP POP POP POP JUMP JUMPDEST PUSH1 0x60 PUSH1 0x0 PUSH1 0x1 PUSH2 0x2554 DUP5 PUSH2 0x285E JUMP JUMPDEST ADD SWAP1 POP PUSH1 0x0 DUP2 PUSH8 0xFFFFFFFFFFFFFFFF DUP2 GT ISZERO PUSH2 0x2573 JUMPI PUSH2 0x2572 PUSH2 0x39E7 JUMP JUMPDEST JUMPDEST PUSH1 0x40 MLOAD SWAP1 DUP1 DUP3 MSTORE DUP1 PUSH1 0x1F ADD PUSH1 0x1F NOT AND PUSH1 0x20 ADD DUP3 ADD PUSH1 0x40 MSTORE DUP1 ISZERO PUSH2 0x25A5 JUMPI DUP2 PUSH1 0x20 ADD PUSH1 0x1 DUP3 MUL DUP1 CALLDATASIZE DUP4 CALLDATACOPY DUP1 DUP3 ADD SWAP2 POP POP SWAP1 POP JUMPDEST POP SWAP1 POP PUSH1 0x0 DUP3 PUSH1 0x20 ADD DUP3 ADD SWAP1 POP JUMPDEST PUSH1 0x1 ISZERO PUSH2 0x2612 JUMPI DUP1 DUP1 PUSH1 0x1 SWAP1 SUB SWAP2 POP POP PUSH32 0x3031323334353637383961626364656600000000000000000000000000000000 PUSH1 0xA DUP7 MOD BYTE DUP2 MSTORE8 PUSH1 0xA DUP6 DUP2 PUSH2 0x25FC JUMPI PUSH2 0x25FB PUSH2 0x395A JUMP JUMPDEST JUMPDEST DIV SWAP5 POP PUSH1 0x0 DUP6 EQ ISZERO PUSH2 0x260D JUMPI PUSH2 0x2612 JUMP JUMPDEST PUSH2 0x25B3 JUMP JUMPDEST DUP2 SWAP4 POP POP POP POP SWAP2 SWAP1 POP JUMP JUMPDEST PUSH1 0x0 PUSH20 0xFFFFFFFFFFFFFFFFFFFFFFFFFFFFFFFFFFFFFFFF AND DUP3 PUSH20 0xFFFFFFFFFFFFFFFFFFFFFFFFFFFFFFFFFFFFFFFF AND EQ ISZERO PUSH2 0x268D JUMPI PUSH1 0x40 MLOAD PUSH32 0x8C379A000000000000000000000000000000000000000000000000000000000 DUP2 MSTORE PUSH1 0x4 ADD PUSH2 0x2684 SWAP1 PUSH2 0x353F JUMP JUMPDEST PUSH1 0x40 MLOAD DUP1 SWAP2 SUB SWAP1 REVERT JUMPDEST PUSH2 0x2696 DUP2 PUSH2 0x2306 JUMP JUMPDEST ISZERO PUSH2 0x26D6 JUMPI PUSH1 0x40 MLOAD PUSH32 0x8C379A000000000000000000000000000000000000000000000000000000000 DUP2 MSTORE PUSH1 0x4 ADD PUSH2 0x26CD SWAP1 PUSH2 0x347F JUMP JUMPDEST PUSH1 0x40 MLOAD DUP1 SWAP2 SUB SWAP1 REVERT JUMPDEST PUSH2 0x26E4 PUSH1 0x0 DUP4 DUP4 PUSH1 0x1 PUSH2 0x2347 JUMP JUMPDEST PUSH2 0x26ED DUP2 PUSH2 0x2306 JUMP JUMPDEST ISZERO PUSH2 0x272D JUMPI PUSH1 0x40 MLOAD PUSH32 0x8C379A000000000000000000000000000000000000000000000000000000000 DUP2 MSTORE PUSH1 0x4 ADD PUSH2 0x2724 SWAP1 PUSH2 0x347F JUMP JUMPDEST PUSH1 0x40 MLOAD DUP1 SWAP2 SUB SWAP1 REVERT JUMPDEST PUSH1 0x1 PUSH1 0x3 PUSH1 0x0 DUP5 PUSH20 0xFFFFFFFFFFFFFFFFFFFFFFFFFFFFFFFFFFFFFFFF AND PUSH20 0xFFFFFFFFFFFFFFFFFFFFFFFFFFFFFFFFFFFFFFFF AND DUP2 MSTORE PUSH1 0x20 ADD SWAP1 DUP2 MSTORE PUSH1 0x20 ADD PUSH1 0x0 KECCAK256 PUSH1 0x0 DUP3 DUP3 SLOAD ADD SWAP3 POP POP DUP2 SWAP1 SSTORE POP DUP2 PUSH1 0x2 PUSH1 0x0 DUP4 DUP2 MSTORE PUSH1 0x20 ADD SWAP1 DUP2 MSTORE PUSH1 0x20 ADD PUSH1 0x0 KECCAK256 PUSH1 0x0 PUSH2 0x100 EXP DUP2 SLOAD DUP2 PUSH20 0xFFFFFFFFFFFFFFFFFFFFFFFFFFFFFFFFFFFFFFFF MUL NOT AND SWAP1 DUP4 PUSH20 0xFFFFFFFFFFFFFFFFFFFFFFFFFFFFFFFFFFFFFFFF AND MUL OR SWAP1 SSTORE POP DUP1 DUP3 PUSH20 0xFFFFFFFFFFFFFFFFFFFFFFFFFFFFFFFFFFFFFFFF AND PUSH1 0x0 PUSH20 0xFFFFFFFFFFFFFFFFFFFFFFFFFFFFFFFFFFFFFFFF AND PUSH32 0xDDF252AD1BE2C89B69C2B068FC378DAA952BA7F163C4A11628F55A4DF523B3EF PUSH1 0x40 MLOAD PUSH1 0x40 MLOAD DUP1 SWAP2 SUB SWAP1 LOG4 PUSH2 0x2837 PUSH1 0x0 DUP4 DUP4 PUSH1 0x1 PUSH2 0x234D JUMP JUMPDEST POP POP JUMP JUMPDEST PUSH1 0x0 DUP1 DUP3 PUSH20 0xFFFFFFFFFFFFFFFFFFFFFFFFFFFFFFFFFFFFFFFF AND EXTCODESIZE GT SWAP1 POP SWAP2 SWAP1 POP JUMP JUMPDEST PUSH1 0x0 DUP1 PUSH1 0x0 SWAP1 POP PUSH27 0x184F03E93FF9F4DAA797ED6E38ED64BF6A1F010000000000000000 DUP4 LT PUSH2 0x28BC JUMPI PUSH27 0x184F03E93FF9F4DAA797ED6E38ED64BF6A1F010000000000000000 DUP4 DUP2 PUSH2 0x28B2 JUMPI PUSH2 0x28B1 PUSH2 0x395A JUMP JUMPDEST JUMPDEST DIV SWAP3 POP PUSH1 0x40 DUP2 ADD SWAP1 POP JUMPDEST PUSH14 0x4EE2D6D415B85ACEF8100000000 DUP4 LT PUSH2 0x28F9 JUMPI PUSH14 0x4EE2D6D415B85ACEF8100000000 DUP4 DUP2 PUSH2 0x28EF JUMPI PUSH2 0x28EE PUSH2 0x395A JUMP JUMPDEST JUMPDEST DIV SWAP3 POP PUSH1 0x20 DUP2 ADD SWAP1 POP JUMPDEST PUSH7 0x2386F26FC10000 DUP4 LT PUSH2 0x2928 JUMPI PUSH7 0x2386F26FC10000 DUP4 DUP2 PUSH2 0x291E JUMPI PUSH2 0x291D PUSH2 0x395A JUMP JUMPDEST JUMPDEST DIV SWAP3 POP PUSH1 0x10 DUP2 ADD SWAP1 POP JUMPDEST PUSH4 0x5F5E100 DUP4 LT PUSH2 0x2951 JUMPI PUSH4 0x5F5E100 DUP4 DUP2 PUSH2 0x2947 JUMPI PUSH2 0x2946 PUSH2 0x395A JUMP JUMPDEST JUMPDEST DIV SWAP3 POP PUSH1 0x8 DUP2 ADD SWAP1 POP JUMPDEST PUSH2 0x2710 DUP4 LT PUSH2 0x2976 JUMPI PUSH2 0x2710 DUP4 DUP2 PUSH2 0x296C JUMPI PUSH2 0x296B PUSH2 0x395A JUMP JUMPDEST JUMPDEST DIV SWAP3 POP PUSH1 0x4 DUP2 ADD SWAP1 POP JUMPDEST PUSH1 0x64 DUP4 LT PUSH2 0x2999 JUMPI PUSH1 0x64 DUP4 DUP2 PUSH2 0x298F JUMPI PUSH2 0x298E PUSH2 0x395A JUMP JUMPDEST JUMPDEST DIV SWAP3 POP PUSH1 0x2 DUP2 ADD SWAP1 POP JUMPDEST PUSH1 0xA DUP4 LT PUSH2 0x29A8 JUMPI PUSH1 0x1 DUP2 ADD SWAP1 POP JUMPDEST DUP1 SWAP2 POP POP SWAP2 SWAP1 POP JUMP JUMPDEST PUSH1 0x40 MLOAD DUP1 PUSH1 0xA0 ADD PUSH1 0x40 MSTORE DUP1 PUSH1 0x0 DUP2 MSTORE PUSH1 0x20 ADD PUSH1 0x0 PUSH20 0xFFFFFFFFFFFFFFFFFFFFFFFFFFFFFFFFFFFFFFFF AND DUP2 MSTORE PUSH1 0x20 ADD PUSH1 0x0 PUSH20 0xFFFFFFFFFFFFFFFFFFFFFFFFFFFFFFFFFFFFFFFF AND DUP2 MSTORE PUSH1 0x20 ADD PUSH1 0x0 DUP2 MSTORE PUSH1 0x20 ADD PUSH1 0x0 ISZERO ISZERO DUP2 MSTORE POP SWAP1 JUMP JUMPDEST DUP3 DUP1 SLOAD PUSH2 0x2A1A SWAP1 PUSH2 0x387F JUMP JUMPDEST SWAP1 PUSH1 0x0 MSTORE PUSH1 0x20 PUSH1 0x0 KECCAK256 SWAP1 PUSH1 0x1F ADD PUSH1 0x20 SWAP1 DIV DUP2 ADD SWAP3 DUP3 PUSH2 0x2A3C JUMPI PUSH1 0x0 DUP6 SSTORE PUSH2 0x2A83 JUMP JUMPDEST DUP3 PUSH1 0x1F LT PUSH2 0x2A55 JUMPI DUP1 MLOAD PUSH1 0xFF NOT AND DUP4 DUP1 ADD OR DUP6 SSTORE PUSH2 0x2A83 JUMP JUMPDEST DUP3 DUP1 ADD PUSH1 0x1 ADD DUP6 SSTORE DUP3 ISZERO PUSH2 0x2A83 JUMPI SWAP2 DUP3 ADD JUMPDEST DUP3 DUP2 GT ISZERO PUSH2 0x2A82 JUMPI DUP3 MLOAD DUP3 SSTORE SWAP2 PUSH1 0x20 ADD SWAP2 SWAP1 PUSH1 0x1 ADD SWAP1 PUSH2 0x2A67 JUMP JUMPDEST JUMPDEST POP SWAP1 POP PUSH2 0x2A90 SWAP2 SWAP1 PUSH2 0x2A94 JUMP JUMPDEST POP SWAP1 JUMP JUMPDEST JUMPDEST DUP1 DUP3 GT ISZERO PUSH2 0x2AAD JUMPI PUSH1 0x0 DUP2 PUSH1 0x0 SWAP1 SSTORE POP PUSH1 0x1 ADD PUSH2 0x2A95 JUMP JUMPDEST POP SWAP1 JUMP JUMPDEST PUSH1 0x0 PUSH2 0x2AC4 PUSH2 0x2ABF DUP5 PUSH2 0x3683 JUMP JUMPDEST PUSH2 0x365E JUMP JUMPDEST SWAP1 POP DUP3 DUP2 MSTORE PUSH1 0x20 DUP2 ADD DUP5 DUP5 DUP5 ADD GT ISZERO PUSH2 0x2AE0 JUMPI PUSH2 0x2ADF PUSH2 0x3A1B JUMP JUMPDEST JUMPDEST PUSH2 0x2AEB DUP5 DUP3 DUP6 PUSH2 0x383D JUMP JUMPDEST POP SWAP4 SWAP3 POP POP POP JUMP JUMPDEST PUSH1 0x0 PUSH2 0x2B06 PUSH2 0x2B01 DUP5 PUSH2 0x36B4 JUMP JUMPDEST PUSH2 0x365E JUMP JUMPDEST SWAP1 POP DUP3 DUP2 MSTORE PUSH1 0x20 DUP2 ADD DUP5 DUP5 DUP5 ADD GT ISZERO PUSH2 0x2B22 JUMPI PUSH2 0x2B21 PUSH2 0x3A1B JUMP JUMPDEST JUMPDEST PUSH2 0x2B2D DUP5 DUP3 DUP6 PUSH2 0x383D JUMP JUMPDEST POP SWAP4 SWAP3 POP POP POP JUMP JUMPDEST PUSH1 0x0 DUP2 CALLDATALOAD SWAP1 POP PUSH2 0x2B44 DUP2 PUSH2 0x3E44 JUMP JUMPDEST SWAP3 SWAP2 POP POP JUMP JUMPDEST PUSH1 0x0 DUP2 CALLDATALOAD SWAP1 POP PUSH2 0x2B59 DUP2 PUSH2 0x3E5B JUMP JUMPDEST SWAP3 SWAP2 POP POP JUMP JUMPDEST PUSH1 0x0 DUP2 CALLDATALOAD SWAP1 POP PUSH2 0x2B6E DUP2 PUSH2 0x3E72 JUMP JUMPDEST SWAP3 SWAP2 POP POP JUMP JUMPDEST PUSH1 0x0 DUP2 MLOAD SWAP1 POP PUSH2 0x2B83 DUP2 PUSH2 0x3E72 JUMP JUMPDEST SWAP3 SWAP2 POP POP JUMP JUMPDEST PUSH1 0x0 DUP3 PUSH1 0x1F DUP4 ADD SLT PUSH2 0x2B9E JUMPI PUSH2 0x2B9D PUSH2 0x3A16 JUMP JUMPDEST JUMPDEST DUP2 CALLDATALOAD PUSH2 0x2BAE DUP5 DUP3 PUSH1 0x20 DUP7 ADD PUSH2 0x2AB1 JUMP JUMPDEST SWAP2 POP POP SWAP3 SWAP2 POP POP JUMP JUMPDEST PUSH1 0x0 DUP3 PUSH1 0x1F DUP4 ADD SLT PUSH2 0x2BCC JUMPI PUSH2 0x2BCB PUSH2 0x3A16 JUMP JUMPDEST JUMPDEST DUP2 CALLDATALOAD PUSH2 0x2BDC DUP5 DUP3 PUSH1 0x20 DUP7 ADD PUSH2 0x2AF3 JUMP JUMPDEST SWAP2 POP POP SWAP3 SWAP2 POP POP JUMP JUMPDEST PUSH1 0x0 DUP2 CALLDATALOAD SWAP1 POP PUSH2 0x2BF4 DUP2 PUSH2 0x3E89 JUMP JUMPDEST SWAP3 SWAP2 POP POP JUMP JUMPDEST PUSH1 0x0 PUSH1 0x20 DUP3 DUP5 SUB SLT ISZERO PUSH2 0x2C10 JUMPI PUSH2 0x2C0F PUSH2 0x3A25 JUMP JUMPDEST JUMPDEST PUSH1 0x0 PUSH2 0x2C1E DUP5 DUP3 DUP6 ADD PUSH2 0x2B35 JUMP JUMPDEST SWAP2 POP POP SWAP3 SWAP2 POP POP JUMP JUMPDEST PUSH1 0x0 DUP1 PUSH1 0x40 DUP4 DUP6 SUB SLT ISZERO PUSH2 0x2C3E JUMPI PUSH2 0x2C3D PUSH2 0x3A25 JUMP JUMPDEST JUMPDEST PUSH1 0x0 PUSH2 0x2C4C DUP6 DUP3 DUP7 ADD PUSH2 0x2B35 JUMP JUMPDEST SWAP3 POP POP PUSH1 0x20 PUSH2 0x2C5D DUP6 DUP3 DUP7 ADD PUSH2 0x2B35 JUMP JUMPDEST SWAP2 POP POP SWAP3 POP SWAP3 SWAP1 POP JUMP JUMPDEST PUSH1 0x0 DUP1 PUSH1 0x0 PUSH1 0x60 DUP5 DUP7 SUB SLT ISZERO PUSH2 0x2C80 JUMPI PUSH2 0x2C7F PUSH2 0x3A25 JUMP JUMPDEST JUMPDEST PUSH1 0x0 PUSH2 0x2C8E DUP7 DUP3 DUP8 ADD PUSH2 0x2B35 JUMP JUMPDEST SWAP4 POP POP PUSH1 0x20 PUSH2 0x2C9F DUP7 DUP3 DUP8 ADD PUSH2 0x2B35 JUMP JUMPDEST SWAP3 POP POP PUSH1 0x40 PUSH2 0x2CB0 DUP7 DUP3 DUP8 ADD PUSH2 0x2BE5 JUMP JUMPDEST SWAP2 POP POP SWAP3 POP SWAP3 POP SWAP3 JUMP JUMPDEST PUSH1 0x0 DUP1 PUSH1 0x0 DUP1 PUSH1 0x80 DUP6 DUP8 SUB SLT ISZERO PUSH2 0x2CD4 JUMPI PUSH2 0x2CD3 PUSH2 0x3A25 JUMP JUMPDEST JUMPDEST PUSH1 0x0 PUSH2 0x2CE2 DUP8 DUP3 DUP9 ADD PUSH2 0x2B35 JUMP JUMPDEST SWAP5 POP POP PUSH1 0x20 PUSH2 0x2CF3 DUP8 DUP3 DUP9 ADD PUSH2 0x2B35 JUMP JUMPDEST SWAP4 POP POP PUSH1 0x40 PUSH2 0x2D04 DUP8 DUP3 DUP9 ADD PUSH2 0x2BE5 JUMP JUMPDEST SWAP3 POP POP PUSH1 0x60 DUP6 ADD CALLDATALOAD PUSH8 0xFFFFFFFFFFFFFFFF DUP2 GT ISZERO PUSH2 0x2D25 JUMPI PUSH2 0x2D24 PUSH2 0x3A20 JUMP JUMPDEST JUMPDEST PUSH2 0x2D31 DUP8 DUP3 DUP9 ADD PUSH2 0x2B89 JUMP JUMPDEST SWAP2 POP POP SWAP3 SWAP6 SWAP2 SWAP5 POP SWAP3 POP JUMP JUMPDEST PUSH1 0x0 DUP1 PUSH1 0x40 DUP4 DUP6 SUB SLT ISZERO PUSH2 0x2D54 JUMPI PUSH2 0x2D53 PUSH2 0x3A25 JUMP JUMPDEST JUMPDEST PUSH1 0x0 PUSH2 0x2D62 DUP6 DUP3 DUP7 ADD PUSH2 0x2B35 JUMP JUMPDEST SWAP3 POP POP PUSH1 0x20 PUSH2 0x2D73 DUP6 DUP3 DUP7 ADD PUSH2 0x2B4A JUMP JUMPDEST SWAP2 POP POP SWAP3 POP SWAP3 SWAP1 POP JUMP JUMPDEST PUSH1 0x0 DUP1 PUSH1 0x40 DUP4 DUP6 SUB SLT ISZERO PUSH2 0x2D94 JUMPI PUSH2 0x2D93 PUSH2 0x3A25 JUMP JUMPDEST JUMPDEST PUSH1 0x0 PUSH2 0x2DA2 DUP6 DUP3 DUP7 ADD PUSH2 0x2B35 JUMP JUMPDEST SWAP3 POP POP PUSH1 0x20 PUSH2 0x2DB3 DUP6 DUP3 DUP7 ADD PUSH2 0x2BE5 JUMP JUMPDEST SWAP2 POP POP SWAP3 POP SWAP3 SWAP1 POP JUMP JUMPDEST PUSH1 0x0 PUSH1 0x20 DUP3 DUP5 SUB SLT ISZERO PUSH2 0x2DD3 JUMPI PUSH2 0x2DD2 PUSH2 0x3A25 JUMP JUMPDEST JUMPDEST PUSH1 0x0 PUSH2 0x2DE1 DUP5 DUP3 DUP6 ADD PUSH2 0x2B5F JUMP JUMPDEST SWAP2 POP POP SWAP3 SWAP2 POP POP JUMP JUMPDEST PUSH1 0x0 PUSH1 0x20 DUP3 DUP5 SUB SLT ISZERO PUSH2 0x2E00 JUMPI PUSH2 0x2DFF PUSH2 0x3A25 JUMP JUMPDEST JUMPDEST PUSH1 0x0 PUSH2 0x2E0E DUP5 DUP3 DUP6 ADD PUSH2 0x2B74 JUMP JUMPDEST SWAP2 POP POP SWAP3 SWAP2 POP POP JUMP JUMPDEST PUSH1 0x0 DUP1 PUSH1 0x40 DUP4 DUP6 SUB SLT ISZERO PUSH2 0x2E2E JUMPI PUSH2 0x2E2D PUSH2 0x3A25 JUMP JUMPDEST JUMPDEST PUSH1 0x0 DUP4 ADD CALLDATALOAD PUSH8 0xFFFFFFFFFFFFFFFF DUP2 GT ISZERO PUSH2 0x2E4C JUMPI PUSH2 0x2E4B PUSH2 0x3A20 JUMP JUMPDEST JUMPDEST PUSH2 0x2E58 DUP6 DUP3 DUP7 ADD PUSH2 0x2BB7 JUMP JUMPDEST SWAP3 POP POP PUSH1 0x20 PUSH2 0x2E69 DUP6 DUP3 DUP7 ADD PUSH2 0x2BE5 JUMP JUMPDEST SWAP2 POP POP SWAP3 POP SWAP3 SWAP1 POP JUMP JUMPDEST PUSH1 0x0 PUSH1 0x20 DUP3 DUP5 SUB SLT ISZERO PUSH2 0x2E89 JUMPI PUSH2 0x2E88 PUSH2 0x3A25 JUMP JUMPDEST JUMPDEST PUSH1 0x0 PUSH2 0x2E97 DUP5 DUP3 DUP6 ADD PUSH2 0x2BE5 JUMP JUMPDEST SWAP2 POP POP SWAP3 SWAP2 POP POP JUMP JUMPDEST PUSH1 0x0 PUSH2 0x2EAC DUP4 DUP4 PUSH2 0x3202 JUMP JUMPDEST PUSH1 0xA0 DUP4 ADD SWAP1 POP SWAP3 SWAP2 POP POP JUMP JUMPDEST PUSH2 0x2EC1 DUP2 PUSH2 0x37C9 JUMP JUMPDEST DUP3 MSTORE POP POP JUMP JUMPDEST PUSH2 0x2ED0 DUP2 PUSH2 0x37B7 JUMP JUMPDEST DUP3 MSTORE POP POP JUMP JUMPDEST PUSH1 0x0 PUSH2 0x2EE1 DUP3 PUSH2 0x36F5 JUMP JUMPDEST PUSH2 0x2EEB DUP2 DUP6 PUSH2 0x3723 JUMP JUMPDEST SWAP4 POP PUSH2 0x2EF6 DUP4 PUSH2 0x36E5 JUMP JUMPDEST DUP1 PUSH1 0x0 JUMPDEST DUP4 DUP2 LT ISZERO PUSH2 0x2F27 JUMPI DUP2 MLOAD PUSH2 0x2F0E DUP9 DUP3 PUSH2 0x2EA0 JUMP JUMPDEST SWAP8 POP PUSH2 0x2F19 DUP4 PUSH2 0x3716 JUMP JUMPDEST SWAP3 POP POP PUSH1 0x1 DUP2 ADD SWAP1 POP PUSH2 0x2EFA JUMP JUMPDEST POP DUP6 SWAP4 POP POP POP POP SWAP3 SWAP2 POP POP JUMP JUMPDEST PUSH2 0x2F3D DUP2 PUSH2 0x37DB JUMP JUMPDEST DUP3 MSTORE POP POP JUMP JUMPDEST PUSH2 0x2F4C DUP2 PUSH2 0x37DB JUMP JUMPDEST DUP3 MSTORE POP POP JUMP JUMPDEST PUSH1 0x0 PUSH2 0x2F5D DUP3 PUSH2 0x3700 JUMP JUMPDEST PUSH2 0x2F67 DUP2 DUP6 PUSH2 0x3734 JUMP JUMPDEST SWAP4 POP PUSH2 0x2F77 DUP2 DUP6 PUSH1 0x20 DUP7 ADD PUSH2 0x384C JUMP JUMPDEST PUSH2 0x2F80 DUP2 PUSH2 0x3A2A JUMP JUMPDEST DUP5 ADD SWAP2 POP POP SWAP3 SWAP2 POP POP JUMP JUMPDEST PUSH1 0x0 PUSH2 0x2F96 DUP3 PUSH2 0x370B JUMP JUMPDEST PUSH2 0x2FA0 DUP2 DUP6 PUSH2 0x3745 JUMP JUMPDEST SWAP4 POP PUSH2 0x2FB0 DUP2 DUP6 PUSH1 0x20 DUP7 ADD PUSH2 0x384C JUMP JUMPDEST PUSH2 0x2FB9 DUP2 PUSH2 0x3A2A JUMP JUMPDEST DUP5 ADD SWAP2 POP POP SWAP3 SWAP2 POP POP JUMP JUMPDEST PUSH1 0x0 PUSH2 0x2FCF DUP3 PUSH2 0x370B JUMP JUMPDEST PUSH2 0x2FD9 DUP2 DUP6 PUSH2 0x3756 JUMP JUMPDEST SWAP4 POP PUSH2 0x2FE9 DUP2 DUP6 PUSH1 0x20 DUP7 ADD PUSH2 0x384C JUMP JUMPDEST DUP1 DUP5 ADD SWAP2 POP POP SWAP3 SWAP2 POP POP JUMP JUMPDEST PUSH1 0x0 PUSH2 0x3002 PUSH1 0x2D DUP4 PUSH2 0x3745 JUMP JUMPDEST SWAP2 POP PUSH2 0x300D DUP3 PUSH2 0x3A3B JUMP JUMPDEST PUSH1 0x40 DUP3 ADD SWAP1 POP SWAP2 SWAP1 POP JUMP JUMPDEST PUSH1 0x0 PUSH2 0x3025 PUSH1 0x32 DUP4 PUSH2 0x3745 JUMP JUMPDEST SWAP2 POP PUSH2 0x3030 DUP3 PUSH2 0x3A8A JUMP JUMPDEST PUSH1 0x40 DUP3 ADD SWAP1 POP SWAP2 SWAP1 POP JUMP JUMPDEST PUSH1 0x0 PUSH2 0x3048 PUSH1 0x25 DUP4 PUSH2 0x3745 JUMP JUMPDEST SWAP2 POP PUSH2 0x3053 DUP3 PUSH2 0x3AD9 JUMP JUMPDEST PUSH1 0x40 DUP3 ADD SWAP1 POP SWAP2 SWAP1 POP JUMP JUMPDEST PUSH1 0x0 PUSH2 0x306B PUSH1 0x1C DUP4 PUSH2 0x3745 JUMP JUMPDEST SWAP2 POP PUSH2 0x3076 DUP3 PUSH2 0x3B28 JUMP JUMPDEST PUSH1 0x20 DUP3 ADD SWAP1 POP SWAP2 SWAP1 POP JUMP JUMPDEST PUSH1 0x0 PUSH2 0x308E PUSH1 0x24 DUP4 PUSH2 0x3745 JUMP JUMPDEST SWAP2 POP PUSH2 0x3099 DUP3 PUSH2 0x3B51 JUMP JUMPDEST PUSH1 0x40 DUP3 ADD SWAP1 POP SWAP2 SWAP1 POP JUMP JUMPDEST PUSH1 0x0 PUSH2 0x30B1 PUSH1 0x19 DUP4 PUSH2 0x3745 JUMP JUMPDEST SWAP2 POP PUSH2 0x30BC DUP3 PUSH2 0x3BA0 JUMP JUMPDEST PUSH1 0x20 DUP3 ADD SWAP1 POP SWAP2 SWAP1 POP JUMP JUMPDEST PUSH1 0x0 PUSH2 0x30D4 PUSH1 0x29 DUP4 PUSH2 0x3745 JUMP JUMPDEST SWAP2 POP PUSH2 0x30DF DUP3 PUSH2 0x3BC9 JUMP JUMPDEST PUSH1 0x40 DUP3 ADD SWAP1 POP SWAP2 SWAP1 POP JUMP JUMPDEST PUSH1 0x0 PUSH2 0x30F7 PUSH1 0x2E DUP4 PUSH2 0x3745 JUMP JUMPDEST SWAP2 POP PUSH2 0x3102 DUP3 PUSH2 0x3C18 JUMP JUMPDEST PUSH1 0x40 DUP3 ADD SWAP1 POP SWAP2 SWAP1 POP JUMP JUMPDEST PUSH1 0x0 PUSH2 0x311A PUSH1 0x40 DUP4 PUSH2 0x3745 JUMP JUMPDEST SWAP2 POP PUSH2 0x3125 DUP3 PUSH2 0x3C67 JUMP JUMPDEST PUSH1 0x40 DUP3 ADD SWAP1 POP SWAP2 SWAP1 POP JUMP JUMPDEST PUSH1 0x0 PUSH2 0x313D PUSH1 0x20 DUP4 PUSH2 0x3745 JUMP JUMPDEST SWAP2 POP PUSH2 0x3148 DUP3 PUSH2 0x3CB6 JUMP JUMPDEST PUSH1 0x20 DUP3 ADD SWAP1 POP SWAP2 SWAP1 POP JUMP JUMPDEST PUSH1 0x0 PUSH2 0x3160 PUSH1 0x23 DUP4 PUSH2 0x3745 JUMP JUMPDEST SWAP2 POP PUSH2 0x316B DUP3 PUSH2 0x3CDF JUMP JUMPDEST PUSH1 0x40 DUP3 ADD SWAP1 POP SWAP2 SWAP1 POP JUMP JUMPDEST PUSH1 0x0 PUSH2 0x3183 PUSH1 0x18 DUP4 PUSH2 0x3745 JUMP JUMPDEST SWAP2 POP PUSH2 0x318E DUP3 PUSH2 0x3D2E JUMP JUMPDEST PUSH1 0x20 DUP3 ADD SWAP1 POP SWAP2 SWAP1 POP JUMP JUMPDEST PUSH1 0x0 PUSH2 0x31A6 PUSH1 0x21 DUP4 PUSH2 0x3745 JUMP JUMPDEST SWAP2 POP PUSH2 0x31B1 DUP3 PUSH2 0x3D57 JUMP JUMPDEST PUSH1 0x40 DUP3 ADD SWAP1 POP SWAP2 SWAP1 POP JUMP JUMPDEST PUSH1 0x0 PUSH2 0x31C9 PUSH1 0x3D DUP4 PUSH2 0x3745 JUMP JUMPDEST SWAP2 POP PUSH2 0x31D4 DUP3 PUSH2 0x3DA6 JUMP JUMPDEST PUSH1 0x40 DUP3 ADD SWAP1 POP SWAP2 SWAP1 POP JUMP JUMPDEST PUSH1 0x0 PUSH2 0x31EC PUSH1 0x22 DUP4 PUSH2 0x3745 JUMP JUMPDEST SWAP2 POP PUSH2 0x31F7 DUP3 PUSH2 0x3DF5 JUMP JUMPDEST PUSH1 0x40 DUP3 ADD SWAP1 POP SWAP2 SWAP1 POP JUMP JUMPDEST PUSH1 0xA0 DUP3 ADD PUSH1 0x0 DUP3 ADD MLOAD PUSH2 0x3218 PUSH1 0x0 DUP6 ADD DUP3 PUSH2 0x32D2 JUMP JUMPDEST POP PUSH1 0x20 DUP3 ADD MLOAD PUSH2 0x322B PUSH1 0x20 DUP6 ADD DUP3 PUSH2 0x2EB8 JUMP JUMPDEST POP PUSH1 0x40 DUP3 ADD MLOAD PUSH2 0x323E PUSH1 0x40 DUP6 ADD DUP3 PUSH2 0x2EB8 JUMP JUMPDEST POP PUSH1 0x60 DUP3 ADD MLOAD PUSH2 0x3251 PUSH1 0x60 DUP6 ADD DUP3 PUSH2 0x32D2 JUMP JUMPDEST POP PUSH1 0x80 DUP3 ADD MLOAD PUSH2 0x3264 PUSH1 0x80 DUP6 ADD DUP3 PUSH2 0x2F34 JUMP JUMPDEST POP POP POP POP JUMP JUMPDEST PUSH1 0xA0 DUP3 ADD PUSH1 0x0 DUP3 ADD MLOAD PUSH2 0x3280 PUSH1 0x0 DUP6 ADD DUP3 PUSH2 0x32D2 JUMP JUMPDEST POP PUSH1 0x20 DUP3 ADD MLOAD PUSH2 0x3293 PUSH1 0x20 DUP6 ADD DUP3 PUSH2 0x2EB8 JUMP JUMPDEST POP PUSH1 0x40 DUP3 ADD MLOAD PUSH2 0x32A6 PUSH1 0x40 DUP6 ADD DUP3 PUSH2 0x2EB8 JUMP JUMPDEST POP PUSH1 0x60 DUP3 ADD MLOAD PUSH2 0x32B9 PUSH1 0x60 DUP6 ADD DUP3 PUSH2 0x32D2 JUMP JUMPDEST POP PUSH1 0x80 DUP3 ADD MLOAD PUSH2 0x32CC PUSH1 0x80 DUP6 ADD DUP3 PUSH2 0x2F34 JUMP JUMPDEST POP POP POP POP JUMP JUMPDEST PUSH2 0x32DB DUP2 PUSH2 0x3833 JUMP JUMPDEST DUP3 MSTORE POP POP JUMP JUMPDEST PUSH2 0x32EA DUP2 PUSH2 0x3833 JUMP JUMPDEST DUP3 MSTORE POP POP JUMP JUMPDEST PUSH1 0x0 PUSH2 0x32FC DUP3 DUP6 PUSH2 0x2FC4 JUMP JUMPDEST SWAP2 POP PUSH2 0x3308 DUP3 DUP5 PUSH2 0x2FC4 JUMP JUMPDEST SWAP2 POP DUP2 SWAP1 POP SWAP4 SWAP3 POP POP POP JUMP JUMPDEST PUSH1 0x0 PUSH1 0x20 DUP3 ADD SWAP1 POP PUSH2 0x3329 PUSH1 0x0 DUP4 ADD DUP5 PUSH2 0x2EC7 JUMP JUMPDEST SWAP3 SWAP2 POP POP JUMP JUMPDEST PUSH1 0x0 PUSH1 0x80 DUP3 ADD SWAP1 POP PUSH2 0x3344 PUSH1 0x0 DUP4 ADD DUP8 PUSH2 0x2EC7 JUMP JUMPDEST PUSH2 0x3351 PUSH1 0x20 DUP4 ADD DUP7 PUSH2 0x2EC7 JUMP JUMPDEST PUSH2 0x335E PUSH1 0x40 DUP4 ADD DUP6 PUSH2 0x32E1 JUMP JUMPDEST PUSH2 0x336B PUSH1 0x60 DUP4 ADD DUP5 PUSH2 0x2F43 JUMP JUMPDEST SWAP6 SWAP5 POP POP POP POP POP JUMP JUMPDEST PUSH1 0x0 PUSH1 0x80 DUP3 ADD SWAP1 POP PUSH2 0x3389 PUSH1 0x0 DUP4 ADD DUP8 PUSH2 0x2EC7 JUMP JUMPDEST PUSH2 0x3396 PUSH1 0x20 DUP4 ADD DUP7 PUSH2 0x2EC7 JUMP JUMPDEST PUSH2 0x33A3 PUSH1 0x40 DUP4 ADD DUP6 PUSH2 0x32E1 JUMP JUMPDEST DUP2 DUP2 SUB PUSH1 0x60 DUP4 ADD MSTORE PUSH2 0x33B5 DUP2 DUP5 PUSH2 0x2F52 JUMP JUMPDEST SWAP1 POP SWAP6 SWAP5 POP POP POP POP POP JUMP JUMPDEST PUSH1 0x0 PUSH1 0x20 DUP3 ADD SWAP1 POP DUP2 DUP2 SUB PUSH1 0x0 DUP4 ADD MSTORE PUSH2 0x33DA DUP2 DUP5 PUSH2 0x2ED6 JUMP JUMPDEST SWAP1 POP SWAP3 SWAP2 POP POP JUMP JUMPDEST PUSH1 0x0 PUSH1 0x20 DUP3 ADD SWAP1 POP PUSH2 0x33F7 PUSH1 0x0 DUP4 ADD DUP5 PUSH2 0x2F43 JUMP JUMPDEST SWAP3 SWAP2 POP POP JUMP JUMPDEST PUSH1 0x0 PUSH1 0x20 DUP3 ADD SWAP1 POP DUP2 DUP2 SUB PUSH1 0x0 DUP4 ADD MSTORE PUSH2 0x3417 DUP2 DUP5 PUSH2 0x2F8B JUMP JUMPDEST SWAP1 POP SWAP3 SWAP2 POP POP JUMP JUMPDEST PUSH1 0x0 PUSH1 0x20 DUP3 ADD SWAP1 POP DUP2 DUP2 SUB PUSH1 0x0 DUP4 ADD MSTORE PUSH2 0x3438 DUP2 PUSH2 0x2FF5 JUMP JUMPDEST SWAP1 POP SWAP2 SWAP1 POP JUMP JUMPDEST PUSH1 0x0 PUSH1 0x20 DUP3 ADD SWAP1 POP DUP2 DUP2 SUB PUSH1 0x0 DUP4 ADD MSTORE PUSH2 0x3458 DUP2 PUSH2 0x3018 JUMP JUMPDEST SWAP1 POP SWAP2 SWAP1 POP JUMP JUMPDEST PUSH1 0x0 PUSH1 0x20 DUP3 ADD SWAP1 POP DUP2 DUP2 SUB PUSH1 0x0 DUP4 ADD MSTORE PUSH2 0x3478 DUP2 PUSH2 0x303B JUMP JUMPDEST SWAP1 POP SWAP2 SWAP1 POP JUMP JUMPDEST PUSH1 0x0 PUSH1 0x20 DUP3 ADD SWAP1 POP DUP2 DUP2 SUB PUSH1 0x0 DUP4 ADD MSTORE PUSH2 0x3498 DUP2 PUSH2 0x305E JUMP JUMPDEST SWAP1 POP SWAP2 SWAP1 POP JUMP JUMPDEST PUSH1 0x0 PUSH1 0x20 DUP3 ADD SWAP1 POP DUP2 DUP2 SUB PUSH1 0x0 DUP4 ADD MSTORE PUSH2 0x34B8 DUP2 PUSH2 0x3081 JUMP JUMPDEST SWAP1 POP SWAP2 SWAP1 POP JUMP JUMPDEST PUSH1 0x0 PUSH1 0x20 DUP3 ADD SWAP1 POP DUP2 DUP2 SUB PUSH1 0x0 DUP4 ADD MSTORE PUSH2 0x34D8 DUP2 PUSH2 0x30A4 JUMP JUMPDEST SWAP1 POP SWAP2 SWAP1 POP JUMP JUMPDEST PUSH1 0x0 PUSH1 0x20 DUP3 ADD SWAP1 POP DUP2 DUP2 SUB PUSH1 0x0 DUP4 ADD MSTORE PUSH2 0x34F8 DUP2 PUSH2 0x30C7 JUMP JUMPDEST SWAP1 POP SWAP2 SWAP1 POP JUMP JUMPDEST PUSH1 0x0 PUSH1 0x20 DUP3 ADD SWAP1 POP DUP2 DUP2 SUB PUSH1 0x0 DUP4 ADD MSTORE PUSH2 0x3518 DUP2 PUSH2 0x30EA JUMP JUMPDEST SWAP1 POP SWAP2 SWAP1 POP JUMP JUMPDEST PUSH1 0x0 PUSH1 0x20 DUP3 ADD SWAP1 POP DUP2 DUP2 SUB PUSH1 0x0 DUP4 ADD MSTORE PUSH2 0x3538 DUP2 PUSH2 0x310D JUMP JUMPDEST SWAP1 POP SWAP2 SWAP1 POP JUMP JUMPDEST PUSH1 0x0 PUSH1 0x20 DUP3 ADD SWAP1 POP DUP2 DUP2 SUB PUSH1 0x0 DUP4 ADD MSTORE PUSH2 0x3558 DUP2 PUSH2 0x3130 JUMP JUMPDEST SWAP1 POP SWAP2 SWAP1 POP JUMP JUMPDEST PUSH1 0x0 PUSH1 0x20 DUP3 ADD SWAP1 POP DUP2 DUP2 SUB PUSH1 0x0 DUP4 ADD MSTORE PUSH2 0x3578 DUP2 PUSH2 0x3153 JUMP JUMPDEST SWAP1 POP SWAP2 SWAP1 POP JUMP JUMPDEST PUSH1 0x0 PUSH1 0x20 DUP3 ADD SWAP1 POP DUP2 DUP2 SUB PUSH1 0x0 DUP4 ADD MSTORE PUSH2 0x3598 DUP2 PUSH2 0x3176 JUMP JUMPDEST SWAP1 POP SWAP2 SWAP1 POP JUMP JUMPDEST PUSH1 0x0 PUSH1 0x20 DUP3 ADD SWAP1 POP DUP2 DUP2 SUB PUSH1 0x0 DUP4 ADD MSTORE PUSH2 0x35B8 DUP2 PUSH2 0x3199 JUMP JUMPDEST SWAP1 POP SWAP2 SWAP1 POP JUMP JUMPDEST PUSH1 0x0 PUSH1 0x20 DUP3 ADD SWAP1 POP DUP2 DUP2 SUB PUSH1 0x0 DUP4 ADD MSTORE PUSH2 0x35D8 DUP2 PUSH2 0x31BC JUMP JUMPDEST SWAP1 POP SWAP2 SWAP1 POP JUMP JUMPDEST PUSH1 0x0 PUSH1 0x20 DUP3 ADD SWAP1 POP DUP2 DUP2 SUB PUSH1 0x0 DUP4 ADD MSTORE PUSH2 0x35F8 DUP2 PUSH2 0x31DF JUMP JUMPDEST SWAP1 POP SWAP2 SWAP1 POP JUMP JUMPDEST PUSH1 0x0 PUSH1 0xA0 DUP3 ADD SWAP1 POP PUSH2 0x3614 PUSH1 0x0 DUP4 ADD DUP5 PUSH2 0x326A JUMP JUMPDEST SWAP3 SWAP2 POP POP JUMP JUMPDEST PUSH1 0x0 PUSH1 0x20 DUP3 ADD SWAP1 POP PUSH2 0x362F PUSH1 0x0 DUP4 ADD DUP5 PUSH2 0x32E1 JUMP JUMPDEST SWAP3 SWAP2 POP POP JUMP JUMPDEST PUSH1 0x0 PUSH1 0x40 DUP3 ADD SWAP1 POP PUSH2 0x364A PUSH1 0x0 DUP4 ADD DUP6 PUSH2 0x32E1 JUMP JUMPDEST PUSH2 0x3657 PUSH1 0x20 DUP4 ADD DUP5 PUSH2 0x32E1 JUMP JUMPDEST SWAP4 SWAP3 POP POP POP JUMP JUMPDEST PUSH1 0x0 PUSH2 0x3668 PUSH2 0x3679 JUMP JUMPDEST SWAP1 POP PUSH2 0x3674 DUP3 DUP3 PUSH2 0x38B1 JUMP JUMPDEST SWAP2 SWAP1 POP JUMP JUMPDEST PUSH1 0x0 PUSH1 0x40 MLOAD SWAP1 POP SWAP1 JUMP JUMPDEST PUSH1 0x0 PUSH8 0xFFFFFFFFFFFFFFFF DUP3 GT ISZERO PUSH2 0x369E JUMPI PUSH2 0x369D PUSH2 0x39E7 JUMP JUMPDEST JUMPDEST PUSH2 0x36A7 DUP3 PUSH2 0x3A2A JUMP JUMPDEST SWAP1 POP PUSH1 0x20 DUP2 ADD SWAP1 POP SWAP2 SWAP1 POP JUMP JUMPDEST PUSH1 0x0 PUSH8 0xFFFFFFFFFFFFFFFF DUP3 GT ISZERO PUSH2 0x36CF JUMPI PUSH2 0x36CE PUSH2 0x39E7 JUMP JUMPDEST JUMPDEST PUSH2 0x36D8 DUP3 PUSH2 0x3A2A JUMP JUMPDEST SWAP1 POP PUSH1 0x20 DUP2 ADD SWAP1 POP SWAP2 SWAP1 POP JUMP JUMPDEST PUSH1 0x0 DUP2 SWAP1 POP PUSH1 0x20 DUP3 ADD SWAP1 POP SWAP2 SWAP1 POP JUMP JUMPDEST PUSH1 0x0 DUP2 MLOAD SWAP1 POP SWAP2 SWAP1 POP JUMP JUMPDEST PUSH1 0x0 DUP2 MLOAD SWAP1 POP SWAP2 SWAP1 POP JUMP JUMPDEST PUSH1 0x0 DUP2 MLOAD SWAP1 POP SWAP2 SWAP1 POP JUMP JUMPDEST PUSH1 0x0 PUSH1 0x20 DUP3 ADD SWAP1 POP SWAP2 SWAP1 POP JUMP JUMPDEST PUSH1 0x0 DUP3 DUP3 MSTORE PUSH1 0x20 DUP3 ADD SWAP1 POP SWAP3 SWAP2 POP POP JUMP JUMPDEST PUSH1 0x0 DUP3 DUP3 MSTORE PUSH1 0x20 DUP3 ADD SWAP1 POP SWAP3 SWAP2 POP POP JUMP JUMPDEST PUSH1 0x0 DUP3 DUP3 MSTORE PUSH1 0x20 DUP3 ADD SWAP1 POP SWAP3 SWAP2 POP POP JUMP JUMPDEST PUSH1 0x0 DUP2 SWAP1 POP SWAP3 SWAP2 POP POP JUMP JUMPDEST PUSH1 0x0 PUSH2 0x376C DUP3 PUSH2 0x3833 JUMP JUMPDEST SWAP2 POP PUSH2 0x3777 DUP4 PUSH2 0x3833 JUMP JUMPDEST SWAP3 POP DUP3 PUSH32 0xFFFFFFFFFFFFFFFFFFFFFFFFFFFFFFFFFFFFFFFFFFFFFFFFFFFFFFFFFFFFFFFF SUB DUP3 GT ISZERO PUSH2 0x37AC JUMPI PUSH2 0x37AB PUSH2 0x392B JUMP JUMPDEST JUMPDEST DUP3 DUP3 ADD SWAP1 POP SWAP3 SWAP2 POP POP JUMP JUMPDEST PUSH1 0x0 PUSH2 0x37C2 DUP3 PUSH2 0x3813 JUMP JUMPDEST SWAP1 POP SWAP2 SWAP1 POP JUMP JUMPDEST PUSH1 0x0 PUSH2 0x37D4 DUP3 PUSH2 0x3813 JUMP JUMPDEST SWAP1 POP SWAP2 SWAP1 POP JUMP JUMPDEST PUSH1 0x0 DUP2 ISZERO ISZERO SWAP1 POP SWAP2 SWAP1 POP JUMP JUMPDEST PUSH1 0x0 PUSH32 0xFFFFFFFF00000000000000000000000000000000000000000000000000000000 DUP3 AND SWAP1 POP SWAP2 SWAP1 POP JUMP JUMPDEST PUSH1 0x0 PUSH20 0xFFFFFFFFFFFFFFFFFFFFFFFFFFFFFFFFFFFFFFFF DUP3 AND SWAP1 POP SWAP2 SWAP1 POP JUMP JUMPDEST PUSH1 0x0 DUP2 SWAP1 POP SWAP2 SWAP1 POP JUMP JUMPDEST DUP3 DUP2 DUP4 CALLDATACOPY PUSH1 0x0 DUP4 DUP4 ADD MSTORE POP POP POP JUMP JUMPDEST PUSH1 0x0 JUMPDEST DUP4 DUP2 LT ISZERO PUSH2 0x386A JUMPI DUP1 DUP3 ADD MLOAD DUP2 DUP5 ADD MSTORE PUSH1 0x20 DUP2 ADD SWAP1 POP PUSH2 0x384F JUMP JUMPDEST DUP4 DUP2 GT ISZERO PUSH2 0x3879 JUMPI PUSH1 0x0 DUP5 DUP5 ADD MSTORE JUMPDEST POP POP POP POP JUMP JUMPDEST PUSH1 0x0 PUSH1 0x2 DUP3 DIV SWAP1 POP PUSH1 0x1 DUP3 AND DUP1 PUSH2 0x3897 JUMPI PUSH1 0x7F DUP3 AND SWAP2 POP JUMPDEST PUSH1 0x20 DUP3 LT DUP2 EQ ISZERO PUSH2 0x38AB JUMPI PUSH2 0x38AA PUSH2 0x3989 JUMP JUMPDEST JUMPDEST POP SWAP2 SWAP1 POP JUMP JUMPDEST PUSH2 0x38BA DUP3 PUSH2 0x3A2A JUMP JUMPDEST DUP2 ADD DUP2 DUP2 LT PUSH8 0xFFFFFFFFFFFFFFFF DUP3 GT OR ISZERO PUSH2 0x38D9 JUMPI PUSH2 0x38D8 PUSH2 0x39E7 JUMP JUMPDEST JUMPDEST DUP1 PUSH1 0x40 MSTORE POP POP POP JUMP JUMPDEST PUSH1 0x0 PUSH2 0x38ED DUP3 PUSH2 0x3833 JUMP JUMPDEST SWAP2 POP PUSH32 0xFFFFFFFFFFFFFFFFFFFFFFFFFFFFFFFFFFFFFFFFFFFFFFFFFFFFFFFFFFFFFFFF DUP3 EQ ISZERO PUSH2 0x3920 JUMPI PUSH2 0x391F PUSH2 0x392B JUMP JUMPDEST JUMPDEST PUSH1 0x1 DUP3 ADD SWAP1 POP SWAP2 SWAP1 POP JUMP JUMPDEST PUSH32 0x4E487B7100000000000000000000000000000000000000000000000000000000 PUSH1 0x0 MSTORE PUSH1 0x11 PUSH1 0x4 MSTORE PUSH1 0x24 PUSH1 0x0 REVERT JUMPDEST PUSH32 0x4E487B7100000000000000000000000000000000000000000000000000000000 PUSH1 0x0 MSTORE PUSH1 0x12 PUSH1 0x4 MSTORE PUSH1 0x24 PUSH1 0x0 REVERT JUMPDEST PUSH32 0x4E487B7100000000000000000000000000000000000000000000000000000000 PUSH1 0x0 MSTORE PUSH1 0x22 PUSH1 0x4 MSTORE PUSH1 0x24 PUSH1 0x0 REVERT JUMPDEST PUSH32 0x4E487B7100000000000000000000000000000000000000000000000000000000 PUSH1 0x0 MSTORE PUSH1 0x32 PUSH1 0x4 MSTORE PUSH1 0x24 PUSH1 0x0 REVERT JUMPDEST PUSH32 0x4E487B7100000000000000000000000000000000000000000000000000000000 PUSH1 0x0 MSTORE PUSH1 0x41 PUSH1 0x4 MSTORE PUSH1 0x24 PUSH1 0x0 REVERT JUMPDEST PUSH1 0x0 DUP1 REVERT JUMPDEST PUSH1 0x0 DUP1 REVERT JUMPDEST PUSH1 0x0 DUP1 REVERT JUMPDEST PUSH1 0x0 DUP1 REVERT JUMPDEST PUSH1 0x0 PUSH1 0x1F NOT PUSH1 0x1F DUP4 ADD AND SWAP1 POP SWAP2 SWAP1 POP JUMP JUMPDEST PUSH32 0x4552433732313A2063616C6C6572206973206E6F7420746F6B656E206F776E65 PUSH1 0x0 DUP3 ADD MSTORE PUSH32 0x72206F7220617070726F76656400000000000000000000000000000000000000 PUSH1 0x20 DUP3 ADD MSTORE POP JUMP JUMPDEST PUSH32 0x4552433732313A207472616E7366657220746F206E6F6E204552433732315265 PUSH1 0x0 DUP3 ADD MSTORE PUSH32 0x63656976657220696D706C656D656E7465720000000000000000000000000000 PUSH1 0x20 DUP3 ADD MSTORE POP JUMP JUMPDEST PUSH32 0x4552433732313A207472616E736665722066726F6D20696E636F727265637420 PUSH1 0x0 DUP3 ADD MSTORE PUSH32 0x6F776E6572000000000000000000000000000000000000000000000000000000 PUSH1 0x20 DUP3 ADD MSTORE POP JUMP JUMPDEST PUSH32 0x4552433732313A20746F6B656E20616C7265616479206D696E74656400000000 PUSH1 0x0 DUP3 ADD MSTORE POP JUMP JUMPDEST PUSH32 0x4552433732313A207472616E7366657220746F20746865207A65726F20616464 PUSH1 0x0 DUP3 ADD MSTORE PUSH32 0x7265737300000000000000000000000000000000000000000000000000000000 PUSH1 0x20 DUP3 ADD MSTORE POP JUMP JUMPDEST PUSH32 0x4552433732313A20617070726F766520746F2063616C6C657200000000000000 PUSH1 0x0 DUP3 ADD MSTORE POP JUMP JUMPDEST PUSH32 0x4552433732313A2061646472657373207A65726F206973206E6F742061207661 PUSH1 0x0 DUP3 ADD MSTORE PUSH32 0x6C6964206F776E65720000000000000000000000000000000000000000000000 PUSH1 0x20 DUP3 ADD MSTORE POP JUMP JUMPDEST PUSH32 0x45524337323155524953746F726167653A2055524920736574206F66206E6F6E PUSH1 0x0 DUP3 ADD MSTORE PUSH32 0x6578697374656E7420746F6B656E000000000000000000000000000000000000 PUSH1 0x20 DUP3 ADD MSTORE POP JUMP JUMPDEST PUSH32 0x506C65617365207375626D6974207468652061736B696E672070726963652069 PUSH1 0x0 DUP3 ADD MSTORE PUSH32 0x6E206F7264657220746F20636F6D706C65746520746865207075726368617365 PUSH1 0x20 DUP3 ADD MSTORE POP JUMP JUMPDEST PUSH32 0x4552433732313A206D696E7420746F20746865207A65726F2061646472657373 PUSH1 0x0 DUP3 ADD MSTORE POP JUMP JUMPDEST PUSH32 0x486F706566756C6C792073656E64696E672074686520636F7272656374207072 PUSH1 0x0 DUP3 ADD MSTORE PUSH32 0x6963650000000000000000000000000000000000000000000000000000000000 PUSH1 0x20 DUP3 ADD MSTORE POP JUMP JUMPDEST PUSH32 0x4552433732313A20696E76616C696420746F6B656E2049440000000000000000 PUSH1 0x0 DUP3 ADD MSTORE POP JUMP JUMPDEST PUSH32 0x4552433732313A20617070726F76616C20746F2063757272656E74206F776E65 PUSH1 0x0 DUP3 ADD MSTORE PUSH32 0x7200000000000000000000000000000000000000000000000000000000000000 PUSH1 0x20 DUP3 ADD MSTORE POP JUMP JUMPDEST PUSH32 0x4552433732313A20617070726F76652063616C6C6572206973206E6F7420746F PUSH1 0x0 DUP3 ADD MSTORE PUSH32 0x6B656E206F776E6572206F7220617070726F76656420666F7220616C6C000000 PUSH1 0x20 DUP3 ADD MSTORE POP JUMP JUMPDEST PUSH32 0x4D616B652073757265207468652070726963652069736E2774206E6567617469 PUSH1 0x0 DUP3 ADD MSTORE PUSH32 0x7665000000000000000000000000000000000000000000000000000000000000 PUSH1 0x20 DUP3 ADD MSTORE POP JUMP JUMPDEST PUSH2 0x3E4D DUP2 PUSH2 0x37B7 JUMP JUMPDEST DUP2 EQ PUSH2 0x3E58 JUMPI PUSH1 0x0 DUP1 REVERT JUMPDEST POP JUMP JUMPDEST PUSH2 0x3E64 DUP2 PUSH2 0x37DB JUMP JUMPDEST DUP2 EQ PUSH2 0x3E6F JUMPI PUSH1 0x0 DUP1 REVERT JUMPDEST POP JUMP JUMPDEST PUSH2 0x3E7B DUP2 PUSH2 0x37E7 JUMP JUMPDEST DUP2 EQ PUSH2 0x3E86 JUMPI PUSH1 0x0 DUP1 REVERT JUMPDEST POP JUMP JUMPDEST PUSH2 0x3E92 DUP2 PUSH2 0x3833 JUMP JUMPDEST DUP2 EQ PUSH2 0x3E9D JUMPI PUSH1 0x0 DUP1 REVERT JUMPDEST POP JUMP INVALID LOG2 PUSH5 0x6970667358 0x22 SLT KECCAK256 GASLIMIT 0xB2 0xE1 0xE5 DUP14 0xC9 CALLCODE 0xCD EXTCODEHASH GAS DUP8 0xBC 0xDE JUMPI 0xCE 0xDE 0xFB 0x2E 0x5E SELFDESTRUCT 0xB5 STOP SLOAD 0xE8 REVERT 0xBB 0xC4 PUSH19 0xE9B4053064736F6C6343000807003300000000 "},"methodIdentifiers":{"approve(address,uint256)":"095ea7b3","balanceOf(address)":"70a08231","createToken(string,uint256)":"72b3b620","executeSale(uint256)":"9b1225c4","getAllNFTs()":"e0391b09","getApproved(uint256)":"081812fc","getCurrentToken()":"ef2d1746","getLatestIdToListedToken()":"d1a88ae5","getListPrice()":"68f1945f","getListedTokenForId(uint256)":"8e264590","getMyNFTs(address)":"e921ee6e","isApprovedForAll(address,address)":"e985e9c5","name()":"06fdde03","ownerOf(uint256)":"6352211e","safeTransferFrom(address,address,uint256)":"42842e0e","safeTransferFrom(address,address,uint256,bytes)":"b88d4fde","setApprovalForAll(address,bool)":"a22cb465","supportsInterface(bytes4)":"01ffc9a7","symbol()":"95d89b41","tokenURI(uint256)":"c87b56dd","transferFrom(address,address,uint256)":"23b872dd"}}}}}