{
  "_format": "hh-sol-artifact-1",
  "contractName": "NFTMarketplace",
  "sourceName": "contracts/openmartket2.sol",
  "abi": [
    {
      "inputs": [],
      "stateMutability": "nonpayable",
      "type": "constructor"
    },
    {
      "anonymous": false,
      "inputs": [
        {
          "indexed": true,
          "internalType": "address",
          "name": "owner",
          "type": "address"
        },
        {
          "indexed": true,
          "internalType": "address",
          "name": "approved",
          "type": "address"
        },
        {
          "indexed": true,
          "internalType": "uint256",
          "name": "tokenId",
          "type": "uint256"
        }
      ],
      "name": "Approval",
      "type": "event"
    },
    {
      "anonymous": false,
      "inputs": [
        {
          "indexed": true,
          "internalType": "address",
          "name": "owner",
          "type": "address"
        },
        {
          "indexed": true,
          "internalType": "address",
          "name": "operator",
          "type": "address"
        },
        {
          "indexed": false,
          "internalType": "bool",
          "name": "approved",
          "type": "bool"
        }
      ],
      "name": "ApprovalForAll",
      "type": "event"
    },
    {
      "anonymous": false,
      "inputs": [
        {
          "indexed": false,
          "internalType": "uint256",
          "name": "_fromTokenId",
          "type": "uint256"
        },
        {
          "indexed": false,
          "internalType": "uint256",
          "name": "_toTokenId",
          "type": "uint256"
        }
      ],
      "name": "BatchMetadataUpdate",
      "type": "event"
    },
    {
      "anonymous": false,
      "inputs": [
        {
          "indexed": false,
          "internalType": "uint256",
          "name": "_tokenId",
          "type": "uint256"
        }
      ],
      "name": "MetadataUpdate",
      "type": "event"
    },
    {
      "anonymous": false,
      "inputs": [
        {
          "indexed": false,
          "internalType": "uint256",
          "name": "tokenId",
          "type": "uint256"
        }
      ],
      "name": "NewTokenId",
      "type": "event"
    },
    {
      "anonymous": false,
      "inputs": [
        {
          "indexed": true,
          "internalType": "uint256",
          "name": "tokenId",
          "type": "uint256"
        },
        {
          "indexed": false,
          "internalType": "address",
          "name": "owner",
          "type": "address"
        },
        {
          "indexed": false,
          "internalType": "address",
          "name": "seller",
          "type": "address"
        },
        {
          "indexed": false,
          "internalType": "uint256",
          "name": "price",
          "type": "uint256"
        },
        {
          "indexed": false,
          "internalType": "bool",
          "name": "currentlyListed",
          "type": "bool"
        }
      ],
      "name": "TokenListedSuccess",
      "type": "event"
    },
    {
      "anonymous": false,
      "inputs": [
        {
          "indexed": true,
          "internalType": "address",
          "name": "from",
          "type": "address"
        },
        {
          "indexed": true,
          "internalType": "address",
          "name": "to",
          "type": "address"
        },
        {
          "indexed": true,
          "internalType": "uint256",
          "name": "tokenId",
          "type": "uint256"
        }
      ],
      "name": "Transfer",
      "type": "event"
    },
    {
      "inputs": [
        {
          "internalType": "address",
          "name": "to",
          "type": "address"
        },
        {
          "internalType": "uint256",
          "name": "tokenId",
          "type": "uint256"
        }
      ],
      "name": "approve",
      "outputs": [],
      "stateMutability": "nonpayable",
      "type": "function"
    },
    {
      "inputs": [
        {
          "internalType": "address",
          "name": "owner",
          "type": "address"
        }
      ],
      "name": "balanceOf",
      "outputs": [
        {
          "internalType": "uint256",
          "name": "",
          "type": "uint256"
        }
      ],
      "stateMutability": "view",
      "type": "function"
    },
    {
      "inputs": [
        {
          "internalType": "string",
          "name": "tokenURI",
          "type": "string"
        },
        {
          "internalType": "uint256",
          "name": "price",
          "type": "uint256"
        }
      ],
      "name": "createToken",
      "outputs": [
        {
          "internalType": "uint256",
          "name": "",
          "type": "uint256"
        }
      ],
      "stateMutability": "payable",
      "type": "function"
    },
    {
      "inputs": [
        {
          "internalType": "uint256",
          "name": "tokenId",
          "type": "uint256"
        }
      ],
      "name": "executeSale",
      "outputs": [],
      "stateMutability": "payable",
      "type": "function"
    },
    {
      "inputs": [],
      "name": "getAllNFTs",
      "outputs": [
        {
          "components": [
            {
              "internalType": "uint256",
              "name": "tokenId",
              "type": "uint256"
            },
            {
              "internalType": "address payable",
              "name": "owner",
              "type": "address"
            },
            {
              "internalType": "address payable",
              "name": "seller",
              "type": "address"
            },
            {
              "internalType": "uint256",
              "name": "price",
              "type": "uint256"
            },
            {
              "internalType": "bool",
              "name": "currentlyListed",
              "type": "bool"
            }
          ],
          "internalType": "struct NFTMarketplace.ListedToken[]",
          "name": "",
          "type": "tuple[]"
        }
      ],
      "stateMutability": "view",
      "type": "function"
    },
    {
      "inputs": [
        {
          "internalType": "uint256",
          "name": "tokenId",
          "type": "uint256"
        }
      ],
      "name": "getApproved",
      "outputs": [
        {
          "internalType": "address",
          "name": "",
          "type": "address"
        }
      ],
      "stateMutability": "view",
      "type": "function"
    },
    {
      "inputs": [],
      "name": "getCurrentToken",
      "outputs": [
        {
          "internalType": "uint256",
          "name": "",
          "type": "uint256"
        }
      ],
      "stateMutability": "view",
      "type": "function"
    },
    {
      "inputs": [],
      "name": "getLatestIdToListedToken",
      "outputs": [
        {
          "components": [
            {
              "internalType": "uint256",
              "name": "tokenId",
              "type": "uint256"
            },
            {
              "internalType": "address payable",
              "name": "owner",
              "type": "address"
            },
            {
              "internalType": "address payable",
              "name": "seller",
              "type": "address"
            },
            {
              "internalType": "uint256",
              "name": "price",
              "type": "uint256"
            },
            {
              "internalType": "bool",
              "name": "currentlyListed",
              "type": "bool"
            }
          ],
          "internalType": "struct NFTMarketplace.ListedToken",
          "name": "",
          "type": "tuple"
        }
      ],
      "stateMutability": "view",
      "type": "function"
    },
    {
      "inputs": [],
      "name": "getListPrice",
      "outputs": [
        {
          "internalType": "uint256",
          "name": "",
          "type": "uint256"
        }
      ],
      "stateMutability": "view",
      "type": "function"
    },
    {
      "inputs": [
        {
          "internalType": "uint256",
          "name": "tokenId",
          "type": "uint256"
        }
      ],
      "name": "getListedTokenForId",
      "outputs": [
        {
          "components": [
            {
              "internalType": "uint256",
              "name": "tokenId",
              "type": "uint256"
            },
            {
              "internalType": "address payable",
              "name": "owner",
              "type": "address"
            },
            {
              "internalType": "address payable",
              "name": "seller",
              "type": "address"
            },
            {
              "internalType": "uint256",
              "name": "price",
              "type": "uint256"
            },
            {
              "internalType": "bool",
              "name": "currentlyListed",
              "type": "bool"
            }
          ],
          "internalType": "struct NFTMarketplace.ListedToken",
          "name": "",
          "type": "tuple"
        }
      ],
      "stateMutability": "view",
      "type": "function"
    },
    {
      "inputs": [
        {
          "internalType": "address",
          "name": "owner",
          "type": "address"
        }
      ],
      "name": "getMyNFTs",
      "outputs": [
        {
          "components": [
            {
              "internalType": "uint256",
              "name": "tokenId",
              "type": "uint256"
            },
            {
              "internalType": "address payable",
              "name": "owner",
              "type": "address"
            },
            {
              "internalType": "address payable",
              "name": "seller",
              "type": "address"
            },
            {
              "internalType": "uint256",
              "name": "price",
              "type": "uint256"
            },
            {
              "internalType": "bool",
              "name": "currentlyListed",
              "type": "bool"
            }
          ],
          "internalType": "struct NFTMarketplace.ListedToken[]",
          "name": "",
          "type": "tuple[]"
        }
      ],
      "stateMutability": "view",
      "type": "function"
    },
    {
      "inputs": [
        {
          "internalType": "address",
          "name": "owner",
          "type": "address"
        },
        {
          "internalType": "address",
          "name": "operator",
          "type": "address"
        }
      ],
      "name": "isApprovedForAll",
      "outputs": [
        {
          "internalType": "bool",
          "name": "",
          "type": "bool"
        }
      ],
      "stateMutability": "view",
      "type": "function"
    },
    {
      "inputs": [],
      "name": "name",
      "outputs": [
        {
          "internalType": "string",
          "name": "",
          "type": "string"
        }
      ],
      "stateMutability": "view",
      "type": "function"
    },
    {
      "inputs": [
        {
          "internalType": "uint256",
          "name": "tokenId",
          "type": "uint256"
        }
      ],
      "name": "ownerOf",
      "outputs": [
        {
          "internalType": "address",
          "name": "",
          "type": "address"
        }
      ],
      "stateMutability": "view",
      "type": "function"
    },
    {
      "inputs": [
        {
          "internalType": "address",
          "name": "from",
          "type": "address"
        },
        {
          "internalType": "address",
          "name": "to",
          "type": "address"
        },
        {
          "internalType": "uint256",
          "name": "tokenId",
          "type": "uint256"
        }
      ],
      "name": "safeTransferFrom",
      "outputs": [],
      "stateMutability": "nonpayable",
      "type": "function"
    },
    {
      "inputs": [
        {
          "internalType": "address",
          "name": "from",
          "type": "address"
        },
        {
          "internalType": "address",
          "name": "to",
          "type": "address"
        },
        {
          "internalType": "uint256",
          "name": "tokenId",
          "type": "uint256"
        },
        {
          "internalType": "bytes",
          "name": "data",
          "type": "bytes"
        }
      ],
      "name": "safeTransferFrom",
      "outputs": [],
      "stateMutability": "nonpayable",
      "type": "function"
    },
    {
      "inputs": [
        {
          "internalType": "address",
          "name": "operator",
          "type": "address"
        },
        {
          "internalType": "bool",
          "name": "approved",
          "type": "bool"
        }
      ],
      "name": "setApprovalForAll",
      "outputs": [],
      "stateMutability": "nonpayable",
      "type": "function"
    },
    {
      "inputs": [
        {
          "internalType": "bytes4",
          "name": "interfaceId",
          "type": "bytes4"
        }
      ],
      "name": "supportsInterface",
      "outputs": [
        {
          "internalType": "bool",
          "name": "",
          "type": "bool"
        }
      ],
      "stateMutability": "view",
      "type": "function"
    },
    {
      "inputs": [],
      "name": "symbol",
      "outputs": [
        {
          "internalType": "string",
          "name": "",
          "type": "string"
        }
      ],
      "stateMutability": "view",
      "type": "function"
    },
    {
      "inputs": [
        {
          "internalType": "uint256",
          "name": "tokenId",
          "type": "uint256"
        }
      ],
      "name": "tokenURI",
      "outputs": [
        {
          "internalType": "string",
          "name": "",
          "type": "string"
        }
      ],
      "stateMutability": "view",
      "type": "function"
    },
    {
      "inputs": [
        {
          "internalType": "address",
          "name": "from",
          "type": "address"
        },
        {
          "internalType": "address",
          "name": "to",
          "type": "address"
        },
        {
          "internalType": "uint256",
          "name": "tokenId",
          "type": "uint256"
        }
      ],
      "name": "transferFrom",
      "outputs": [],
      "stateMutability": "nonpayable",
      "type": "function"
    }
  ],
  "bytecode": "0x6080604052655af3107a4000600a553480156200001b57600080fd5b506040518060400160405280600e81526020017f4e46544d61726b6574706c6163650000000000000000000000000000000000008152506040518060400160405280600481526020017f4e46544d000000000000000000000000000000000000000000000000000000008152508160009080519060200190620000a09291906200021a565b508060019080519060200190620000b99291906200021a565b505050620001076040518060400160405280600481526020017f68657265000000000000000000000000000000000000000000000000000000008152506200014e60201b620016571760201c565b33600960006101000a81548173ffffffffffffffffffffffffffffffffffffffff021916908373ffffffffffffffffffffffffffffffffffffffff160217905550620003f7565b620001ee816040516024016200016591906200030b565b6040516020818303038152906040527f41304fac000000000000000000000000000000000000000000000000000000007bffffffffffffffffffffffffffffffffffffffffffffffffffffffff19166020820180517bffffffffffffffffffffffffffffffffffffffffffffffffffffffff8381831617835250505050620001f160201b60201c565b50565b60008151905060006a636f6e736f6c652e6c6f679050602083016000808483855afa5050505050565b828054620002289062000381565b90600052602060002090601f0160209004810192826200024c576000855562000298565b82601f106200026757805160ff191683800117855562000298565b8280016001018555821562000298579182015b82811115620002975782518255916020019190600101906200027a565b5b509050620002a79190620002ab565b5090565b5b80821115620002c6576000816000905550600101620002ac565b5090565b6000620002d7826200032f565b620002e381856200033a565b9350620002f58185602086016200034b565b6200030081620003e6565b840191505092915050565b60006020820190508181036000830152620003278184620002ca565b905092915050565b600081519050919050565b600082825260208201905092915050565b60005b838110156200036b5780820151818401526020810190506200034e565b838111156200037b576000848401525b50505050565b600060028204905060018216806200039a57607f821691505b60208210811415620003b157620003b0620003b7565b5b50919050565b7f4e487b7100000000000000000000000000000000000000000000000000000000600052602260045260246000fd5b6000601f19601f8301169050919050565b613ed680620004076000396000f3fe60806040526004361061012a5760003560e01c80638e264590116100ab578063c87b56dd1161006f578063c87b56dd146103fa578063d1a88ae514610437578063e0391b0914610462578063e921ee6e1461048d578063e985e9c5146104ca578063ef2d1746146105075761012a565b80638e2645901461032457806395d89b41146103615780639b1225c41461038c578063a22cb465146103a8578063b88d4fde146103d15761012a565b806342842e0e116100f257806342842e0e146102265780636352211e1461024f57806368f1945f1461028c57806370a08231146102b757806372b3b620146102f45761012a565b806301ffc9a71461012f57806306fdde031461016c578063081812fc14610197578063095ea7b3146101d457806323b872dd146101fd575b600080fd5b34801561013b57600080fd5b5061015660048036038101906101519190612dbd565b610532565b60405161016391906133e2565b60405180910390f35b34801561017857600080fd5b50610181610593565b60405161018e91906133fd565b60405180910390f35b3480156101a357600080fd5b506101be60048036038101906101b99190612e73565b610625565b6040516101cb9190613314565b60405180910390f35b3480156101e057600080fd5b506101fb60048036038101906101f69190612d7d565b61066b565b005b34801561020957600080fd5b50610224600480360381019061021f9190612c67565b610783565b005b34801561023257600080fd5b5061024d60048036038101906102489190612c67565b6107e3565b005b34801561025b57600080fd5b5061027660048036038101906102719190612e73565b610803565b6040516102839190613314565b60405180910390f35b34801561029857600080fd5b506102a161088a565b6040516102ae919061361a565b60405180910390f35b3480156102c357600080fd5b506102de60048036038101906102d99190612bfa565b610894565b6040516102eb919061361a565b60405180910390f35b61030e60048036038101906103099190612e17565b61094c565b60405161031b919061361a565b60405180910390f35b34801561033057600080fd5b5061034b60048036038101906103469190612e73565b6109d1565b60405161035891906135ff565b60405180910390f35b34801561036d57600080fd5b50610376610ad9565b60405161038391906133fd565b60405180910390f35b6103a660048036038101906103a19190612e73565b610b6b565b005b3480156103b457600080fd5b506103cf60048036038101906103ca9190612d3d565b610d5d565b005b3480156103dd57600080fd5b506103f860048036038101906103f39190612cba565b610d73565b005b34801561040657600080fd5b50610421600480360381019061041c9190612e73565b610dd5565b60405161042e91906133fd565b60405180910390f35b34801561044357600080fd5b5061044c610ee8565b60405161045991906135ff565b60405180910390f35b34801561046e57600080fd5b50610477610ffd565b60405161048491906133c0565b60405180910390f35b34801561049957600080fd5b506104b460048036038101906104af9190612bfa565b6111cf565b6040516104c191906133c0565b60405180910390f35b3480156104d657600080fd5b506104f160048036038101906104ec9190612c27565b6115b2565b6040516104fe91906133e2565b60405180910390f35b34801561051357600080fd5b5061051c611646565b604051610529919061361a565b60405180910390f35b6000634906490660e01b7bffffffffffffffffffffffffffffffffffffffffffffffffffffffff1916827bffffffffffffffffffffffffffffffffffffffffffffffffffffffff1916148061058c575061058b826116f0565b5b9050919050565b6060600080546105a29061387f565b80601f01602080910402602001604051908101604052809291908181526020018280546105ce9061387f565b801561061b5780601f106105f05761010080835404028352916020019161061b565b820191906000526020600020905b8154815290600101906020018083116105fe57829003601f168201915b5050505050905090565b6000610630826117d2565b6004600083815260200190815260200160002060009054906101000a900473ffffffffffffffffffffffffffffffffffffffff169050919050565b600061067682610803565b90508073ffffffffffffffffffffffffffffffffffffffff168373ffffffffffffffffffffffffffffffffffffffff1614156106e7576040517f08c379a00000000000000000000000000000000000000000000000000000000081526004016106de9061359f565b60405180910390fd5b8073ffffffffffffffffffffffffffffffffffffffff1661070661181d565b73ffffffffffffffffffffffffffffffffffffffff16148061073557506107348161072f61181d565b6115b2565b5b610774576040517f08c379a000000000000000000000000000000000000000000000000000000000815260040161076b906135bf565b60405180910390fd5b61077e8383611825565b505050565b61079461078e61181d565b826118de565b6107d3576040517f08c379a00000000000000000000000000000000000000000000000000000000081526004016107ca9061341f565b60405180910390fd5b6107de838383611973565b505050565b6107fe83838360405180602001604052806000815250610d73565b505050565b60008061080f83611c6d565b9050600073ffffffffffffffffffffffffffffffffffffffff168173ffffffffffffffffffffffffffffffffffffffff161415610881576040517f08c379a00000000000000000000000000000000000000000000000000000000081526004016108789061357f565b60405180910390fd5b80915050919050565b6000600a54905090565b60008073ffffffffffffffffffffffffffffffffffffffff168273ffffffffffffffffffffffffffffffffffffffff161415610905576040517f08c379a00000000000000000000000000000000000000000000000000000000081526004016108fc906134df565b60405180910390fd5b600360008373ffffffffffffffffffffffffffffffffffffffff1673ffffffffffffffffffffffffffffffffffffffff168152602001908152602001600020549050919050565b600061095a34600a54611caa565b6109646007611d46565b60006109706007611d5c565b905061097c3382611d6a565b6109868185611d88565b6109908184611e33565b7f8a1767404395cfcd1267c6537e872277dde277a29ac6dea742a111469f324a58816040516109bf919061361a565b60405180910390a18091505092915050565b6109d96129b1565b600b60008381526020019081526020016000206040518060a0016040529081600082015481526020016001820160009054906101000a900473ffffffffffffffffffffffffffffffffffffffff1673ffffffffffffffffffffffffffffffffffffffff1673ffffffffffffffffffffffffffffffffffffffff1681526020016002820160009054906101000a900473ffffffffffffffffffffffffffffffffffffffff1673ffffffffffffffffffffffffffffffffffffffff1673ffffffffffffffffffffffffffffffffffffffff168152602001600382015481526020016004820160009054906101000a900460ff1615151515815250509050919050565b606060018054610ae89061387f565b80601f0160208091040260200160405190810160405280929190818152602001828054610b149061387f565b8015610b615780601f10610b3657610100808354040283529160200191610b61565b820191906000526020600020905b815481529060010190602001808311610b4457829003601f168201915b5050505050905090565b6000600b60008381526020019081526020016000206003015490506000600b600084815260200190815260200160002060020160009054906101000a900473ffffffffffffffffffffffffffffffffffffffff169050813414610c03576040517f08c379a0000000000000000000000000000000000000000000000000000000008152600401610bfa9061351f565b60405180910390fd5b6001600b600085815260200190815260200160002060040160006101000a81548160ff02191690831515021790555033600b600085815260200190815260200160002060020160006101000a81548173ffffffffffffffffffffffffffffffffffffffff021916908373ffffffffffffffffffffffffffffffffffffffff160217905550610c916008611d46565b610c9c303385611973565b610ca6308461066b565b600960009054906101000a900473ffffffffffffffffffffffffffffffffffffffff1673ffffffffffffffffffffffffffffffffffffffff166108fc600a549081150290604051600060405180830381858888f19350505050158015610d10573d6000803e3d6000fd5b508073ffffffffffffffffffffffffffffffffffffffff166108fc349081150290604051600060405180830381858888f19350505050158015610d57573d6000803e3d6000fd5b50505050565b610d6f610d6861181d565b838361202b565b5050565b610d84610d7e61181d565b836118de565b610dc3576040517f08c379a0000000000000000000000000000000000000000000000000000000008152600401610dba9061341f565b60405180910390fd5b610dcf84848484612198565b50505050565b6060610de0826117d2565b6000600660008481526020019081526020016000208054610e009061387f565b80601f0160208091040260200160405190810160405280929190818152602001828054610e2c9061387f565b8015610e795780601f10610e4e57610100808354040283529160200191610e79565b820191906000526020600020905b815481529060010190602001808311610e5c57829003601f168201915b505050505090506000610e8a6121f4565b9050600081511415610ea0578192505050610ee3565b600082511115610ed5578082604051602001610ebd9291906132f0565b60405160208183030381529060405292505050610ee3565b610ede8461220b565b925050505b919050565b610ef06129b1565b6000610efc6007611d5c565b9050600b60008281526020019081526020016000206040518060a0016040529081600082015481526020016001820160009054906101000a900473ffffffffffffffffffffffffffffffffffffffff1673ffffffffffffffffffffffffffffffffffffffff1673ffffffffffffffffffffffffffffffffffffffff1681526020016002820160009054906101000a900473ffffffffffffffffffffffffffffffffffffffff1673ffffffffffffffffffffffffffffffffffffffff1673ffffffffffffffffffffffffffffffffffffffff168152602001600382015481526020016004820160009054906101000a900460ff16151515158152505091505090565b6060600061100b6007611d5c565b905060008167ffffffffffffffff811115611029576110286139e7565b5b60405190808252806020026020018201604052801561106257816020015b61104f6129b1565b8152602001906001900390816110475790505b50905060008080600090505b848110156111c4576001816110839190613761565b91506000600b60008481526020019081526020016000209050806040518060a0016040529081600082015481526020016001820160009054906101000a900473ffffffffffffffffffffffffffffffffffffffff1673ffffffffffffffffffffffffffffffffffffffff1673ffffffffffffffffffffffffffffffffffffffff1681526020016002820160009054906101000a900473ffffffffffffffffffffffffffffffffffffffff1673ffffffffffffffffffffffffffffffffffffffff1673ffffffffffffffffffffffffffffffffffffffff168152602001600382015481526020016004820160009054906101000a900460ff161515151581525050858581518110611196576111956139b8565b5b60200260200101819052506001846111ae9190613761565b93505080806111bc906138e2565b91505061106e565b508294505050505090565b606060006111dd6007611d5c565b9050600080600080600090505b84811015611303578673ffffffffffffffffffffffffffffffffffffffff16600b600060018461121a9190613761565b815260200190815260200160002060010160009054906101000a900473ffffffffffffffffffffffffffffffffffffffff1673ffffffffffffffffffffffffffffffffffffffff1614806112db57508673ffffffffffffffffffffffffffffffffffffffff16600b60006001846112919190613761565b815260200190815260200160002060020160009054906101000a900473ffffffffffffffffffffffffffffffffffffffff1673ffffffffffffffffffffffffffffffffffffffff16145b156112f0576001846112ed9190613761565b93505b80806112fb906138e2565b9150506111ea565b5060008367ffffffffffffffff8111156113205761131f6139e7565b5b60405190808252806020026020018201604052801561135957816020015b6113466129b1565b81526020019060019003908161133e5790505b50905060005b858110156115a4578773ffffffffffffffffffffffffffffffffffffffff16600b600060018461138f9190613761565b815260200190815260200160002060010160009054906101000a900473ffffffffffffffffffffffffffffffffffffffff1673ffffffffffffffffffffffffffffffffffffffff16148061145057508773ffffffffffffffffffffffffffffffffffffffff16600b60006001846114069190613761565b815260200190815260200160002060020160009054906101000a900473ffffffffffffffffffffffffffffffffffffffff1673ffffffffffffffffffffffffffffffffffffffff16145b15611591576001816114629190613761565b92506000600b60008581526020019081526020016000209050806040518060a0016040529081600082015481526020016001820160009054906101000a900473ffffffffffffffffffffffffffffffffffffffff1673ffffffffffffffffffffffffffffffffffffffff1673ffffffffffffffffffffffffffffffffffffffff1681526020016002820160009054906101000a900473ffffffffffffffffffffffffffffffffffffffff1673ffffffffffffffffffffffffffffffffffffffff1673ffffffffffffffffffffffffffffffffffffffff168152602001600382015481526020016004820160009054906101000a900460ff161515151581525050838681518110611575576115746139b8565b5b602002602001018190525060018561158d9190613761565b9450505b808061159c906138e2565b91505061135f565b508095505050505050919050565b6000600560008473ffffffffffffffffffffffffffffffffffffffff1673ffffffffffffffffffffffffffffffffffffffff16815260200190815260200160002060008373ffffffffffffffffffffffffffffffffffffffff1673ffffffffffffffffffffffffffffffffffffffff16815260200190815260200160002060009054906101000a900460ff16905092915050565b60006116526007611d5c565b905090565b6116ed8160405160240161166b91906133fd565b6040516020818303038152906040527f41304fac000000000000000000000000000000000000000000000000000000007bffffffffffffffffffffffffffffffffffffffffffffffffffffffff19166020820180517bffffffffffffffffffffffffffffffffffffffffffffffffffffffff8381831617835250505050612273565b50565b60007f80ac58cd000000000000000000000000000000000000000000000000000000007bffffffffffffffffffffffffffffffffffffffffffffffffffffffff1916827bffffffffffffffffffffffffffffffffffffffffffffffffffffffff191614806117bb57507f5b5e139f000000000000000000000000000000000000000000000000000000007bffffffffffffffffffffffffffffffffffffffffffffffffffffffff1916827bffffffffffffffffffffffffffffffffffffffffffffffffffffffff1916145b806117cb57506117ca8261229c565b5b9050919050565b6117db81612306565b61181a576040517f08c379a00000000000000000000000000000000000000000000000000000000081526004016118119061357f565b60405180910390fd5b50565b600033905090565b816004600083815260200190815260200160002060006101000a81548173ffffffffffffffffffffffffffffffffffffffff021916908373ffffffffffffffffffffffffffffffffffffffff160217905550808273ffffffffffffffffffffffffffffffffffffffff1661189883610803565b73ffffffffffffffffffffffffffffffffffffffff167f8c5be1e5ebec7d5bd14f71427d1e84f3dd0314c0f7b2291e5b200ac8c7c3b92560405160405180910390a45050565b6000806118ea83610803565b90508073ffffffffffffffffffffffffffffffffffffffff168473ffffffffffffffffffffffffffffffffffffffff16148061192c575061192b81856115b2565b5b8061196a57508373ffffffffffffffffffffffffffffffffffffffff1661195284610625565b73ffffffffffffffffffffffffffffffffffffffff16145b91505092915050565b8273ffffffffffffffffffffffffffffffffffffffff1661199382610803565b73ffffffffffffffffffffffffffffffffffffffff16146119e9576040517f08c379a00000000000000000000000000000000000000000000000000000000081526004016119e09061345f565b60405180910390fd5b600073ffffffffffffffffffffffffffffffffffffffff168273ffffffffffffffffffffffffffffffffffffffff161415611a59576040517f08c379a0000000000000000000000000000000000000000000000000000000008152600401611a509061349f565b60405180910390fd5b611a668383836001612347565b8273ffffffffffffffffffffffffffffffffffffffff16611a8682610803565b73ffffffffffffffffffffffffffffffffffffffff1614611adc576040517f08c379a0000000000000000000000000000000000000000000000000000000008152600401611ad39061345f565b60405180910390fd5b6004600082815260200190815260200160002060006101000a81549073ffffffffffffffffffffffffffffffffffffffff02191690556001600360008573ffffffffffffffffffffffffffffffffffffffff1673ffffffffffffffffffffffffffffffffffffffff168152602001908152602001600020600082825403925050819055506001600360008473ffffffffffffffffffffffffffffffffffffffff1673ffffffffffffffffffffffffffffffffffffffff16815260200190815260200160002060008282540192505081905550816002600083815260200190815260200160002060006101000a81548173ffffffffffffffffffffffffffffffffffffffff021916908373ffffffffffffffffffffffffffffffffffffffff160217905550808273ffffffffffffffffffffffffffffffffffffffff168473ffffffffffffffffffffffffffffffffffffffff167fddf252ad1be2c89b69c2b068fc378daa952ba7f163c4a11628f55a4df523b3ef60405160405180910390a4611c68838383600161234d565b505050565b60006002600083815260200190815260200160002060009054906101000a900473ffffffffffffffffffffffffffffffffffffffff169050919050565b611d428282604051602401611cc0929190613635565b6040516020818303038152906040527ff666715a000000000000000000000000000000000000000000000000000000007bffffffffffffffffffffffffffffffffffffffffffffffffffffffff19166020820180517bffffffffffffffffffffffffffffffffffffffffffffffffffffffff8381831617835250505050612273565b5050565b6001816000016000828254019250508190555050565b600081600001549050919050565b611d84828260405180602001604052806000815250612353565b5050565b611d9182612306565b611dd0576040517f08c379a0000000000000000000000000000000000000000000000000000000008152600401611dc7906134ff565b60405180910390fd5b80600660008481526020019081526020016000209080519060200190611df7929190612a0e565b507ff8e1a15aba9398e019f0b49df1a4fde98ee17ae345cb5f6b5e2c27f5033e8ce782604051611e27919061361a565b60405180910390a15050565b600a543414611e77576040517f08c379a0000000000000000000000000000000000000000000000000000000008152600401611e6e9061355f565b60405180910390fd5b60008111611eba576040517f08c379a0000000000000000000000000000000000000000000000000000000008152600401611eb1906135df565b60405180910390fd5b6040518060a001604052808381526020013073ffffffffffffffffffffffffffffffffffffffff1681526020013373ffffffffffffffffffffffffffffffffffffffff16815260200182815260200160011515815250600b60008481526020019081526020016000206000820151816000015560208201518160010160006101000a81548173ffffffffffffffffffffffffffffffffffffffff021916908373ffffffffffffffffffffffffffffffffffffffff16021790555060408201518160020160006101000a81548173ffffffffffffffffffffffffffffffffffffffff021916908373ffffffffffffffffffffffffffffffffffffffff1602179055506060820151816003015560808201518160040160006101000a81548160ff021916908315150217905550905050817f9339409317fd01fabff48b703019016f49159bacc801ae872d2ca637d226e4c0303384600160405161201f949392919061332f565b60405180910390a25050565b8173ffffffffffffffffffffffffffffffffffffffff168373ffffffffffffffffffffffffffffffffffffffff16141561209a576040517f08c379a0000000000000000000000000000000000000000000000000000000008152600401612091906134bf565b60405180910390fd5b80600560008573ffffffffffffffffffffffffffffffffffffffff1673ffffffffffffffffffffffffffffffffffffffff16815260200190815260200160002060008473ffffffffffffffffffffffffffffffffffffffff1673ffffffffffffffffffffffffffffffffffffffff16815260200190815260200160002060006101000a81548160ff0219169083151502179055508173ffffffffffffffffffffffffffffffffffffffff168373ffffffffffffffffffffffffffffffffffffffff167f17307eab39ab6107e8899845ad3d59bd9653f200f220920489ca2b5937696c318360405161218b91906133e2565b60405180910390a3505050565b6121a3848484611973565b6121af848484846123ae565b6121ee576040517f08c379a00000000000000000000000000000000000000000000000000000000081526004016121e59061343f565b60405180910390fd5b50505050565b606060405180602001604052806000815250905090565b6060612216826117d2565b60006122206121f4565b90506000815111612240576040518060200160405280600081525061226b565b8061224a84612545565b60405160200161225b9291906132f0565b6040516020818303038152906040525b915050919050565b60008151905060006a636f6e736f6c652e6c6f679050602083016000808483855afa5050505050565b60007f01ffc9a7000000000000000000000000000000000000000000000000000000007bffffffffffffffffffffffffffffffffffffffffffffffffffffffff1916827bffffffffffffffffffffffffffffffffffffffffffffffffffffffff1916149050919050565b60008073ffffffffffffffffffffffffffffffffffffffff1661232883611c6d565b73ffffffffffffffffffffffffffffffffffffffff1614159050919050565b50505050565b50505050565b61235d838361261d565b61236a60008484846123ae565b6123a9576040517f08c379a00000000000000000000000000000000000000000000000000000000081526004016123a09061343f565b60405180910390fd5b505050565b60006123cf8473ffffffffffffffffffffffffffffffffffffffff1661283b565b15612538578373ffffffffffffffffffffffffffffffffffffffff1663150b7a026123f861181d565b8786866040518563ffffffff1660e01b815260040161241a9493929190613374565b602060405180830381600087803b15801561243457600080fd5b505af192505050801561246557506040513d601f19601f820116820180604052508101906124629190612dea565b60015b6124e8573d8060008114612495576040519150601f19603f3d011682016040523d82523d6000602084013e61249a565b606091505b506000815114156124e0576040517f08c379a00000000000000000000000000000000000000000000000000000000081526004016124d79061343f565b60405180910390fd5b805181602001fd5b63150b7a0260e01b7bffffffffffffffffffffffffffffffffffffffffffffffffffffffff1916817bffffffffffffffffffffffffffffffffffffffffffffffffffffffff19161491505061253d565b600190505b949350505050565b6060600060016125548461285e565b01905060008167ffffffffffffffff811115612573576125726139e7565b5b6040519080825280601f01601f1916602001820160405280156125a55781602001600182028036833780820191505090505b509050600082602001820190505b600115612612578080600190039150507f3031323334353637383961626364656600000000000000000000000000000000600a86061a8153600a85816125fc576125fb61395a565b5b049450600085141561260d57612612565b6125b3565b819350505050919050565b600073ffffffffffffffffffffffffffffffffffffffff168273ffffffffffffffffffffffffffffffffffffffff16141561268d576040517f08c379a00000000000000000000000000000000000000000000000000000000081526004016126849061353f565b60405180910390fd5b61269681612306565b156126d6576040517f08c379a00000000000000000000000000000000000000000000000000000000081526004016126cd9061347f565b60405180910390fd5b6126e4600083836001612347565b6126ed81612306565b1561272d576040517f08c379a00000000000000000000000000000000000000000000000000000000081526004016127249061347f565b60405180910390fd5b6001600360008473ffffffffffffffffffffffffffffffffffffffff1673ffffffffffffffffffffffffffffffffffffffff16815260200190815260200160002060008282540192505081905550816002600083815260200190815260200160002060006101000a81548173ffffffffffffffffffffffffffffffffffffffff021916908373ffffffffffffffffffffffffffffffffffffffff160217905550808273ffffffffffffffffffffffffffffffffffffffff16600073ffffffffffffffffffffffffffffffffffffffff167fddf252ad1be2c89b69c2b068fc378daa952ba7f163c4a11628f55a4df523b3ef60405160405180910390a461283760008383600161234d565b5050565b6000808273ffffffffffffffffffffffffffffffffffffffff163b119050919050565b600080600090507a184f03e93ff9f4daa797ed6e38ed64bf6a1f01000000000000000083106128bc577a184f03e93ff9f4daa797ed6e38ed64bf6a1f01000000000000000083816128b2576128b161395a565b5b0492506040810190505b6d04ee2d6d415b85acef810000000083106128f9576d04ee2d6d415b85acef810000000083816128ef576128ee61395a565b5b0492506020810190505b662386f26fc10000831061292857662386f26fc10000838161291e5761291d61395a565b5b0492506010810190505b6305f5e1008310612951576305f5e10083816129475761294661395a565b5b0492506008810190505b612710831061297657612710838161296c5761296b61395a565b5b0492506004810190505b60648310612999576064838161298f5761298e61395a565b5b0492506002810190505b600a83106129a8576001810190505b80915050919050565b6040518060a0016040528060008152602001600073ffffffffffffffffffffffffffffffffffffffff168152602001600073ffffffffffffffffffffffffffffffffffffffff168152602001600081526020016000151581525090565b828054612a1a9061387f565b90600052602060002090601f016020900481019282612a3c5760008555612a83565b82601f10612a5557805160ff1916838001178555612a83565b82800160010185558215612a83579182015b82811115612a82578251825591602001919060010190612a67565b5b509050612a909190612a94565b5090565b5b80821115612aad576000816000905550600101612a95565b5090565b6000612ac4612abf84613683565b61365e565b905082815260208101848484011115612ae057612adf613a1b565b5b612aeb84828561383d565b509392505050565b6000612b06612b01846136b4565b61365e565b905082815260208101848484011115612b2257612b21613a1b565b5b612b2d84828561383d565b509392505050565b600081359050612b4481613e44565b92915050565b600081359050612b5981613e5b565b92915050565b600081359050612b6e81613e72565b92915050565b600081519050612b8381613e72565b92915050565b600082601f830112612b9e57612b9d613a16565b5b8135612bae848260208601612ab1565b91505092915050565b600082601f830112612bcc57612bcb613a16565b5b8135612bdc848260208601612af3565b91505092915050565b600081359050612bf481613e89565b92915050565b600060208284031215612c1057612c0f613a25565b5b6000612c1e84828501612b35565b91505092915050565b60008060408385031215612c3e57612c3d613a25565b5b6000612c4c85828601612b35565b9250506020612c5d85828601612b35565b9150509250929050565b600080600060608486031215612c8057612c7f613a25565b5b6000612c8e86828701612b35565b9350506020612c9f86828701612b35565b9250506040612cb086828701612be5565b9150509250925092565b60008060008060808587031215612cd457612cd3613a25565b5b6000612ce287828801612b35565b9450506020612cf387828801612b35565b9350506040612d0487828801612be5565b925050606085013567ffffffffffffffff811115612d2557612d24613a20565b5b612d3187828801612b89565b91505092959194509250565b60008060408385031215612d5457612d53613a25565b5b6000612d6285828601612b35565b9250506020612d7385828601612b4a565b9150509250929050565b60008060408385031215612d9457612d93613a25565b5b6000612da285828601612b35565b9250506020612db385828601612be5565b9150509250929050565b600060208284031215612dd357612dd2613a25565b5b6000612de184828501612b5f565b91505092915050565b600060208284031215612e0057612dff613a25565b5b6000612e0e84828501612b74565b91505092915050565b60008060408385031215612e2e57612e2d613a25565b5b600083013567ffffffffffffffff811115612e4c57612e4b613a20565b5b612e5885828601612bb7565b9250506020612e6985828601612be5565b9150509250929050565b600060208284031215612e8957612e88613a25565b5b6000612e9784828501612be5565b91505092915050565b6000612eac8383613202565b60a08301905092915050565b612ec1816137c9565b82525050565b612ed0816137b7565b82525050565b6000612ee1826136f5565b612eeb8185613723565b9350612ef6836136e5565b8060005b83811015612f27578151612f0e8882612ea0565b9750612f1983613716565b925050600181019050612efa565b5085935050505092915050565b612f3d816137db565b82525050565b612f4c816137db565b82525050565b6000612f5d82613700565b612f678185613734565b9350612f7781856020860161384c565b612f8081613a2a565b840191505092915050565b6000612f968261370b565b612fa08185613745565b9350612fb081856020860161384c565b612fb981613a2a565b840191505092915050565b6000612fcf8261370b565b612fd98185613756565b9350612fe981856020860161384c565b80840191505092915050565b6000613002602d83613745565b915061300d82613a3b565b604082019050919050565b6000613025603283613745565b915061303082613a8a565b604082019050919050565b6000613048602583613745565b915061305382613ad9565b604082019050919050565b600061306b601c83613745565b915061307682613b28565b602082019050919050565b600061308e602483613745565b915061309982613b51565b604082019050919050565b60006130b1601983613745565b91506130bc82613ba0565b602082019050919050565b60006130d4602983613745565b91506130df82613bc9565b604082019050919050565b60006130f7602e83613745565b915061310282613c18565b604082019050919050565b600061311a604083613745565b915061312582613c67565b604082019050919050565b600061313d602083613745565b915061314882613cb6565b602082019050919050565b6000613160602383613745565b915061316b82613cdf565b604082019050919050565b6000613183601883613745565b915061318e82613d2e565b602082019050919050565b60006131a6602183613745565b91506131b182613d57565b604082019050919050565b60006131c9603d83613745565b91506131d482613da6565b604082019050919050565b60006131ec602283613745565b91506131f782613df5565b604082019050919050565b60a08201600082015161321860008501826132d2565b50602082015161322b6020850182612eb8565b50604082015161323e6040850182612eb8565b50606082015161325160608501826132d2565b5060808201516132646080850182612f34565b50505050565b60a08201600082015161328060008501826132d2565b5060208201516132936020850182612eb8565b5060408201516132a66040850182612eb8565b5060608201516132b960608501826132d2565b5060808201516132cc6080850182612f34565b50505050565b6132db81613833565b82525050565b6132ea81613833565b82525050565b60006132fc8285612fc4565b91506133088284612fc4565b91508190509392505050565b60006020820190506133296000830184612ec7565b92915050565b60006080820190506133446000830187612ec7565b6133516020830186612ec7565b61335e60408301856132e1565b61336b6060830184612f43565b95945050505050565b60006080820190506133896000830187612ec7565b6133966020830186612ec7565b6133a360408301856132e1565b81810360608301526133b58184612f52565b905095945050505050565b600060208201905081810360008301526133da8184612ed6565b905092915050565b60006020820190506133f76000830184612f43565b92915050565b600060208201905081810360008301526134178184612f8b565b905092915050565b6000602082019050818103600083015261343881612ff5565b9050919050565b6000602082019050818103600083015261345881613018565b9050919050565b600060208201905081810360008301526134788161303b565b9050919050565b600060208201905081810360008301526134988161305e565b9050919050565b600060208201905081810360008301526134b881613081565b9050919050565b600060208201905081810360008301526134d8816130a4565b9050919050565b600060208201905081810360008301526134f8816130c7565b9050919050565b60006020820190508181036000830152613518816130ea565b9050919050565b600060208201905081810360008301526135388161310d565b9050919050565b6000602082019050818103600083015261355881613130565b9050919050565b6000602082019050818103600083015261357881613153565b9050919050565b6000602082019050818103600083015261359881613176565b9050919050565b600060208201905081810360008301526135b881613199565b9050919050565b600060208201905081810360008301526135d8816131bc565b9050919050565b600060208201905081810360008301526135f8816131df565b9050919050565b600060a082019050613614600083018461326a565b92915050565b600060208201905061362f60008301846132e1565b92915050565b600060408201905061364a60008301856132e1565b61365760208301846132e1565b9392505050565b6000613668613679565b905061367482826138b1565b919050565b6000604051905090565b600067ffffffffffffffff82111561369e5761369d6139e7565b5b6136a782613a2a565b9050602081019050919050565b600067ffffffffffffffff8211156136cf576136ce6139e7565b5b6136d882613a2a565b9050602081019050919050565b6000819050602082019050919050565b600081519050919050565b600081519050919050565b600081519050919050565b6000602082019050919050565b600082825260208201905092915050565b600082825260208201905092915050565b600082825260208201905092915050565b600081905092915050565b600061376c82613833565b915061377783613833565b9250827fffffffffffffffffffffffffffffffffffffffffffffffffffffffffffffffff038211156137ac576137ab61392b565b5b828201905092915050565b60006137c282613813565b9050919050565b60006137d482613813565b9050919050565b60008115159050919050565b60007fffffffff0000000000000000000000000000000000000000000000000000000082169050919050565b600073ffffffffffffffffffffffffffffffffffffffff82169050919050565b6000819050919050565b82818337600083830152505050565b60005b8381101561386a57808201518184015260208101905061384f565b83811115613879576000848401525b50505050565b6000600282049050600182168061389757607f821691505b602082108114156138ab576138aa613989565b5b50919050565b6138ba82613a2a565b810181811067ffffffffffffffff821117156138d9576138d86139e7565b5b80604052505050565b60006138ed82613833565b91507fffffffffffffffffffffffffffffffffffffffffffffffffffffffffffffffff8214156139205761391f61392b565b5b600182019050919050565b7f4e487b7100000000000000000000000000000000000000000000000000000000600052601160045260246000fd5b7f4e487b7100000000000000000000000000000000000000000000000000000000600052601260045260246000fd5b7f4e487b7100000000000000000000000000000000000000000000000000000000600052602260045260246000fd5b7f4e487b7100000000000000000000000000000000000000000000000000000000600052603260045260246000fd5b7f4e487b7100000000000000000000000000000000000000000000000000000000600052604160045260246000fd5b600080fd5b600080fd5b600080fd5b600080fd5b6000601f19601f8301169050919050565b7f4552433732313a2063616c6c6572206973206e6f7420746f6b656e206f776e6560008201527f72206f7220617070726f76656400000000000000000000000000000000000000602082015250565b7f4552433732313a207472616e7366657220746f206e6f6e20455243373231526560008201527f63656976657220696d706c656d656e7465720000000000000000000000000000602082015250565b7f4552433732313a207472616e736665722066726f6d20696e636f72726563742060008201527f6f776e6572000000000000000000000000000000000000000000000000000000602082015250565b7f4552433732313a20746f6b656e20616c7265616479206d696e74656400000000600082015250565b7f4552433732313a207472616e7366657220746f20746865207a65726f2061646460008201527f7265737300000000000000000000000000000000000000000000000000000000602082015250565b7f4552433732313a20617070726f766520746f2063616c6c657200000000000000600082015250565b7f4552433732313a2061646472657373207a65726f206973206e6f74206120766160008201527f6c6964206f776e65720000000000000000000000000000000000000000000000602082015250565b7f45524337323155524953746f726167653a2055524920736574206f66206e6f6e60008201527f6578697374656e7420746f6b656e000000000000000000000000000000000000602082015250565b7f506c65617365207375626d6974207468652061736b696e67207072696365206960008201527f6e206f7264657220746f20636f6d706c65746520746865207075726368617365602082015250565b7f4552433732313a206d696e7420746f20746865207a65726f2061646472657373600082015250565b7f486f706566756c6c792073656e64696e672074686520636f727265637420707260008201527f6963650000000000000000000000000000000000000000000000000000000000602082015250565b7f4552433732313a20696e76616c696420746f6b656e2049440000000000000000600082015250565b7f4552433732313a20617070726f76616c20746f2063757272656e74206f776e6560008201527f7200000000000000000000000000000000000000000000000000000000000000602082015250565b7f4552433732313a20617070726f76652063616c6c6572206973206e6f7420746f60008201527f6b656e206f776e6572206f7220617070726f76656420666f7220616c6c000000602082015250565b7f4d616b652073757265207468652070726963652069736e2774206e656761746960008201527f7665000000000000000000000000000000000000000000000000000000000000602082015250565b613e4d816137b7565b8114613e5857600080fd5b50565b613e64816137db565b8114613e6f57600080fd5b50565b613e7b816137e7565b8114613e8657600080fd5b50565b613e9281613833565b8114613e9d57600080fd5b5056fea264697066735822122045b2e1e58dc9f2cd3f5a87bcde57cedefb2e5effb50054e8fdbbc472e9b4053064736f6c63430008070033",
  "linkReferences": {},
  "deployedLinkReferences": {}
}